:100000006F204036130000001300000013000000B2
:100010001300000013000000130000001300000094
:100020001300000013000000130000001300000084
:08003000130000007300100032
:100038000000000000000000EE050000F2050000CE
:1000480000000000AA2200000000000000000000DC
:10005800AC220000AE2200000000000000000000FA
:10006800180D000000000000000200000000000061
:10007800B4220000B6220000B8220000BA22000014
:10008800BC220000BE220000C0220000C2220000E4
:10009800C4220000C6220000C8220000CA220000B4
:1000A800CC220000CE220000D0220000D222000084
:1000B800D4220000D6220000D8220000DA22000054
:1000C800DC220000DE220000E0220000E222000024
:1000D800E4220000E6220000E8220000EA220000F4
:1000E800EC220000EE220000F0220000F2220000C4
:1000F800F4220000F6220000F8220000FA22000094
:10010800FC2200003621000000230000022300002A
:100118000423000006230000082300000A2300002F
:100128000C2300000E2300001023000012230000FF
:100138001423000016230000182300001A230000CF
:100148001C2300001E23000020230000222300009F
:100158002423000026230000282300002A2300006F
:100168002C2300002E23000030230000322300003F
:100178003423000036230000382300003A2300000F
:100188003C2300003E2300004023000042230000DF
:100198004423000046230000482300004A230000AF
:1001A8004C2300004E23000050230000522300007F
:1001B8005423000056230000582300005A2300004F
:1001C8005C2300005E23000060230000622300001F
:1001D8000000000000000000000000000000000017
:1001E8000000000000000000000000000000000007
:0801F8000000000000000000FF
:10020000130181F806C216C41AC61EC822CA26CC1B
:100210002ACE2ED032D236D43AD63ED842DA46DC76
:100220004ADECEC0D2C2D6C4DAC6DEC8E2CAE6CC46
:10023000EACEEED0F2D2F6D4FAD6FED8F3220030CF
:1002400096DA9702002083A2E20223A02200F3257F
:1002500010342EC09305000273A0458003A1C18114
:10026000EF10E07C170300200323C30003210300E9
:10027000824273901234D652739002309240A2425E
:100280003243C2435244E244724582551256A2564A
:100290003257C2575258E25872598649164AA64AEE
:1002A000364BC64B564CE64C764D865D165EA65ECA
:1002B000365FC65F13018107730020301300000012
:1002C00013000000130000001300000013000000E2
:1002D00013000000130000001300000013000000D2
:1002E00013000000130000001300000013000000C2
:1002F00013000000130000001300000013000000B2
:1003000083A2C181938202E073900234170100201E
:10031000032141F6024182403243C2435244E24447
:10032000724582551256A2563257C2575258E25859
:1003300072598649164AA64A364BC64B564CE64C6D
:10034000764D865D165EA65E365FC65FD652A1020A
:1003500073900230A24213018107828013000000D3
:100360001300000013000000130000001300000041
:100370001300000013000000130000001300000031
:100380001300000013000000130000001300000021
:100390001300000013000000130000001300000011
:1003A0001300000013000000130000001300000001
:1003B00013000000130000001300000013000000F1
:1003C00013000000130000001300000013000000E1
:1003D00013000000130000001300000013000000D1
:1003E00013000000130000001300000013000000C1
:1003F00013000000130000001300000013000000B1
:10040000F322003093F272FF130380781203B3E2F9
:100410006200711523205500130585FA10C12115BE
:10042000232005009302000063870200711523203A
:100430000500FD12D5BF71150CC1828000000000BF
:1004400000000000000000000000000000000000AC
:10045000000000000000000000000000000000009C
:10046000000000000000000000000000000000008C
:10047000000000000000000000000000000000007C
:10048000000000000000000000000000000000006C
:10049000000000000000000000000000000000005C
:1004A000000000000000000000000000000000004C
:1004B000000000000000000000000000000000003C
:1004C000000000000000000000000000000000002C
:1004D000000000000000000000000000000000001C
:1004E000000000000000397101436EC619A0397187
:1004F00041536AC866CA62CC5ECE19A039710153F5
:100500005AD056D252D44ED64AD826DA22DC06DE4B
:1005100033016140828241114AC026C222C406C60C
:100520008282B24D4101024D924C224CB24B4101AC
:10053000024B924A224AB249410102499244224462
:10054000B240410182803D432A876373C30293779F
:10055000F700BDEFADE5937606FF3D8ABA960CC372
:100560004CC30CC74CC74107E36BD7FE11E2828036
:10057000B306C3408A069702000096966780A600DD
:100580002307B700A306B7002306B700A305B700EB
:100590002305B700A304B7002304B700A303B700E3
:1005A0002303B700A302B7002302B700A301B700DB
:1005B0002301B700A300B7002300B700828093F5A2
:1005C000F50F93968500D58D93960501D58D61B76E
:1005D000939627009702000096968682E78086FA17
:1005E0009680C1171D8F3E96E374C3F8A5B77300BC
:1005F000203001A0EFF23FF2EF008075B707002036
:10060000B7B50000370500009387472409478146A6
:1006100013060010938505161305A567EF00105209
:10062000B7070020B7B5000037050000938787247F
:100630000D47814613060010938585161305A56C9A
:10064000EF00D04FB7070020B7B500003705000016
:100650001147814613060010938505179387C72419
:1006600013050572EF00904DB707002003A507247E
:10067000EF00106DEF00206FC9B5EFF2DFE9B704AE
:1006800000200144938404002D490504B37724031A
:100690009306901313062007930530081945860723
:1006A000A6979A23EF2030447D48930700084147DE
:1006B0008D4622869305F00613057004EF207063C3
:1006C0001305401FEF108030C9B7EFF2DFE4B70425
:1006D00000200144938404002D490504B3772403CA
:1006E000930690131306900E930530081305E00748
:1006F000B307F9408607A6979A23EF20D03E7D489E
:100700009307000841478D4622869305F00613059E
:10071000F00BEF20105E1305401FEF10202B75BF6C
:10072000EFF2DFDD0544B70400200949B7090020D6
:100730000145EF50904B63088500630B2501294567
:10074000EF10C028F5B703A54424EF00705FC5BFC4
:1007500003A58924DDBFEFF21FDC4164B7B70000B9
:100760001308048093870711130700029306000201
:100770001306C00DA9452945EF209062B7B70000C8
:1007800013080480938787116147E1461306C00D63
:100790009305F0022945EF20B060B7B700001308B9
:1007A00004809387C7124147C1461306C00D9305C5
:1007B000C0042945EF20D05E01479306A01313061D
:1007C00030079305E0061545EF20903F014793065B
:1007D000A0131306A00E9305E0061305D007EF2023
:1007E000303E014793062008130630079305200882
:1007F0001545EF2090340147930620081306A00EFC
:10080000930520081305D007EF203033B7B7000059
:100810007D489387C7134147C1461306E0069305F9
:10082000F0063D45EF20D057B7B700007D489387CD
:1008300087144147C1461306E0069305F0061305E9
:100840007008EF20F055B7070020B7B50000370556
:1008500000009387072405478146130600109385FF
:1008600045151305455FEF00702DEF00705AF1B18B
:10087000EFF27FCA0945EF10705213050009EF101F
:100880009018716513050520EF101002EF20600E1F
:10089000EF50902FEF20A0670145B1226D3D01453B
:1008A00069B9B71702409843B706FFF841111367BB
:1008B000170098C3D84337060200758FD8C39843F2
:1008C000B706F7FEFD16758F98C39843B706FCFF71
:1008D000FD16758F98C3D843B70681FFFD16758F37
:1008E000D8C39843B70600ECFD16758F98C3370739
:1008F000FF0098C723A6070202C402C69843C16638
:10090000558F98C3B716024005679C42F18F3EC6CB
:10091000A24785073EC4B24781E7A247E397E7FEB7
:10092000B71702409C431397E700635607068547B5
:100930003EC632478547631EF704B7170240D843C7
:10094000B706C1FFFD16D8C3D843D8C3D843136731
:100950000740D8C3D843758FD8C3D843C166558FD5
:10096000D8C39843B7060001558F98C39843931690
:100970006700E3DD06FED843B7160240719BD8C37B
:10098000D84313672700D8C32147DC42B18BE39ECD
:10099000E7FE4101828002C669BF370700200A05D1
:1009A0001307870181468147930500282A97639D95
:1009B000B6001305803EB387A7021305001433D594
:1009C000A70242054181828050473696122211C209
:1009D00085078906E9BF2A966313C500828005054D
:1009E000A30FB5FED5BFEFF21FB3370400201304E9
:1009F000840193172500A297AA84C84713060028EC
:100A00008145D13F269485471CA805BEB707002025
:100A1000938787269843636FA702D043B386C700A6
:100A20006316D50054413E85B296D4C35041B306F7
:100A3000C500631CD700B706002083A60625630601
:100A4000D70054431843B29654C118C16303F5004C
:100A500088C38280BA877DBFEFF25FAA41112AC6A0
:100A6000EF001044B706002083A7062537060020B4
:100A700093860625130646253245A9EF3737002011
:100A8000930707D893F5F700130707D881C5138795
:100A9000F700419BB70500209385852623A205001A
:100AA00098C189659385057FAE97C19B23A20700F6
:100AB00023A00700B385E7409CC21CC3B7070020F2
:100AC00023AEB724B707002023ACB724B7070080B4
:100AD0004CC31CC2032A0600B377AA0085E3930720
:100AE000F5FF3957636CF7009307050113F7F7001B
:100AF00041C313F707FF410763EBE706814489A071
:100B000022872E8461A058C15CC009375840B706BF
:100B100000209386C6259042B307E94023A0F90040
:100B200063F3C7009CC2B70700203367EA009387CE
:100B3000072658C09843C10423200400050798C322
:100B4000EF00705293F7F400D1CBA1679387078031
:100B50007390073037B6000037B5000013068617CC
:100B60009305001113058520EF60D01C01A0BA8702
:100B7000370700200329872593098725E360F9F8C3
:100B80003707002003248726130787265040637405
:100B9000F6000C40B5F59442E38286F61440044317
:100BA00014C33307F64093060002E3F1E6F633057B
:100BB000F4009376F500A1DAA1679387078073901C
:100BC000073037B6000037B50000130686179305C7
:100BD000F00C13058520EF60F01501A0268541017A
:100BE00081BA55C1EFF23F93B7070020032745FFB5
:100BF00083A747252A84B376F7009DE2A1679387F0
:100C000007807390073037B6000037B50000130631
:100C100086179305401213058520EF60B01101A0DF
:100C2000832605FF9DC2A1679387078073900730D5
:100C300037B6000037B5000013068617930550122B
:100C400013058520EF60100F01A093C7F7FFF98F00
:100C5000232AF5FEEF00D024B707002093878725CD
:100C60009443032744FF130504FF369798C3793B49
:100C7000B7070020938747269843050798C3EF00DE
:100C8000903E6FF09F8B82808280EFF2DF8841116F
:100C900002C6F32750303EC6B2470D478D8B6384A2
:100CA000E702A167938707807390073037B600008B
:100CB00037B500001306C6229305600B1305852087
:100CC000EF60500701A0B707012093870700BD8B95
:100CD0009DC3A167938707807390073037B60000E4
:100CE00037B500001306C6229305B00B1305852007
:100CF000EF60500401A0493FB7E700E0056723A07B
:100D0000E710116723A0E71023A20180EFF04FDF67
:100D1000014541016FF07F8273110134A167938710
:100D2000078073900730B7F700E023A20700EF00B9
:100D3000D01811C5B7E700E0116723A0E720A1672D
:100D400093878788739007307311013473002030C4
:100D5000A1679387078073900730938741809843FA
:100D6000050798C38280138741801C438DE7EFF20B
:100D70008FFAA167938707807390073037B600001A
:100D800037B500001306C6229305201013058520F1
:100D9000EF60407A01A0FD171CC391E7A16793871C
:100DA0008788739007308280930785007D575CC1E8
:100DB00018C55CC51CC923200500828023280500B6
:100DC00082805C419847DCC198C598474CC38CC76A
:100DD0001C4188C985071CC182809841FD56930734
:100DE0008500631ED7001C49D843D8C10CC79CC5D9
:100DF000CCC31C4188C985071CC18280B687D443F7
:100E00009042E37DC7FECDB7544118451C4998C6B2
:100E100054C3D4436393A600D8C398432328050042
:100E20007D1798C388438280EFF2EFEE41112AC606
:100E300005373245005D053F1335140041016FF061
:100E4000CFEF304115C2EFF20FED58451445AA8798
:100E5000329758C56364D700184158C52E85CC47D2
:100E6000EF5010446FF06FED8280EFF2CFEA2A84EA
:100E7000C5358344540413094402E204E184634504
:100E80009002FD57A302F404F93DD935834444048C
:100E900013090401E204E18463449002FD57230234
:100EA000F404D1356FF06FE95C50E1DF4A85EF0063
:100EB000904D19C1EF00D069FD14E204E184C1B77F
:100EC0001C48E9DF4A85EF00104C19C1EF0050685B
:100ED000FD14E204E184C9B7EFF2EFE341111DE133
:100EE000A167938707807390073037B6000037B546
:100EF00000001306C62B9305001113058520EF6033
:100F0000606301A05C5D2EC62A84BDC33841B3B7BF
:100F1000E702B9EF353D3040585C1440232C040201
:100F2000B307E602B24554C03387F600918FB697F7
:100F30005CC4FD572302F40418C4A302F40495E131
:100F40001C4899CB13050401EF00F04311C5B7E726
:100F500000E0116723A0E7203935054541016FF016
:100F6000CFDD13050401893513054402353DEDB786
:100F7000A167938707807390073037B6000037B5B5
:100F800000001306C62B9305501413058520EF604F
:100F9000605A01A0EFF22FD8411121C1B3B7A502C9
:100FA000AA8485EF3305B502930770FB63E7A702B8
:100FB000130585042EC64D342A8401CDB245AA8777
:100FC00099C1930785042CC01CC044DC854522854B
:100FD0002137228541016FF04FD6A16793870780A3
:100FE0007390073037B6000037B500001306C62BE4
:100FF0009305601C13058520EF60C05301A0EFF23C
:101000000FCF011132C61DE1A1679387078073904E
:10101000073037B6000037B500001306C62B93051E
:10102000105513058520EF60E05001A02A84AE8999
:101030008DE53C419DC3A16793870780739007307E
:1010400037B6000037B500001306C62B9305505580
:1010500013058520EF60004E01A0EF00305015E52C
:10106000B247014985C7A16793870780739007300E
:1010700037B6000037B500001306C62B9305A05500
:1010800013058520EF60004B01A001497D5A930AAA
:10109000440237EB00E0916B9DA0B24781E7E1315C
:1010A000014561A0631509002808EF00903C6539EF
:1010B000C52B793983474404E207E18763944701EC
:1010C0002302040483475404E207E1876394470141
:1010D000A302040449396C002808EF00F03A31ED0E
:1010E0002285993331C5B2455685EF00F01D228522
:1010F000AD3BEF00407719E123207B210549893979
:10110000045CC1DCCE852285FD14253B04DC1C4833
:1011100099CB13050401EF00102711C5B7E700E0D4
:10112000116723A0E7208131054505616FF0AFBF4E
:101130002285253BEF002073D1B722853D33EF0098
:1011400080722285D5315DD9A1BF15E5EFF2AFBC24
:10115000A167938707807390073037B600008565D5
:1011600037B500001306C62B938585AC1305852083
:10117000EF60403C01A09DCD3756002093060658F5
:101180008147014713060658214883A84600639803
:10119000A80093173700B2978CC3C8C321A891E762
:1011A00083A8060063930800B6870507A106E31E1F
:1011B00007FDFDF38280EFF20FB641112A842EC69F
:1011C00032C47936834744047D572246E207E187DB
:1011D000B2456394E70023020404834754047D5717
:1011E000E207E1876394E700A302040432C62EC439
:1011F0009D3E1C5CA245324689E713054402EF0080
:10120000301122859D3141016FF02FB33707002047
:10121000130747271C439443B707002093874729A8
:1012200081E67D5798C38280184358471843DDBF35
:10123000EFF2CFAC37090020B7070020930409274D
:1012400083A9472A2A849C4088404111A388070427
:1012500011052EC6553E7D5793070927B245631CDD
:10126000E40295C9B7570020938787729440D8430A
:1012700098C610479440D0C694401047910654C277
:101280009440910614C798405CCB9843050798C3D7
:1012900041016FF0EFA998434E9440C3637A340143
:1012A00037070020032587278C4391053D36CDB7AE
:1012B00037070020032547278C439105393EB707A0
:1012C0000020938747299843E374E4FC80C3C9B79F
:1012D000EFF2CFA237540020B70900201304C473E3
:1012E000370A0020B75A0020938409289C4089EFD0
:1012F00093870A5C98438547E3F8E7FEB7E700E089
:10130000116723A0E720CDB7EFF09FA45C4403A9A9
:10131000C70013054900CD3C1307CA271C43FD171E
:101320001CC39C40FD179CC0EFF0FFA303250903DD
:10133000EFF03F8B4A85EFF0DF8A7DB7EFF22F9B0E
:1013400013192600AA8A4A852E8A368BBA8BBE8943
:10135000EFF08FF01DC1AA8413054005EFF0CFEF29
:101360002A8409C904D98147C146631A0A00230A9D
:10137000050225A02685EFF0DF867D5565A233079F
:10138000FA00030707003306F400230AE60201C748
:101390008507E396D7FEA3010404B94763F47703F6
:1013A000A167938707807390073037B6000037B581
:1013B00000001306C6339305703913058520EF60CE
:1013C000601701A0130A44005285232674032322C8
:1013D000740523240404EFF07F9E13058401EFF0CD
:1013E000FF9D3D471305C9FF33077741269500C888
:1013F00018CC40D023060404A306040423070404E5
:10140000A307040423080404A30804045A86D68509
:101410004199EFE0FFFE08C06384090023A0890022
:10142000EFF01F93B70700209387C7279843B704AF
:101430000020B7590020050798C3138704271843D5
:10144000938404271389095C6310070E80C09843B6
:1014500085476316F7069389095C930AC9124E857E
:10146000D109EFF07F94E39C3AFF37550020930AAF
:10147000C56E1305C56EEFF03F93375500209309F5
:10148000057013050570EFF03F92375500201305E6
:101490004571EFF07F91375500201305C573EFF0CC
:1014A000BF903755002013058572EFF0FF8FB70707
:1014B000002023AA5727B707002023AC3727B707F8
:1014C0000020938787289843050798C33707002093
:1014D0001307C7285C54144363F3F6001CC3514739
:1014E000B387E702CA97D843144718C454C41447B3
:1014F00023A246012324470198435CC8050798C3EB
:10150000EFF07F86B707002083A7072A054599CB10
:101510009C40D8575C546377F700B7E700E0116749
:1015200023A0E7206FF02F80B707002083A7072AAA
:10153000D9F79C40D8575C54E3E3E7F880C041B743
:10154000EFE27FFD2A84B7040020EFF07F809384D0
:10155000042711E08040130944004A85EFF0DF8A38
:101560001C5489C713058401EFF01F8AB7070020B8
:10157000938787289843050798C39C40639A8706FA
:1015800037550020CA851305C573EFF09F83B70751
:101590000020938707289843050798C3EFF0AFFC16
:1015A0009C40638887000858EFF0AFE32285EFF096
:1015B0004FE3B707002083A7072AA9CB9C40639776
:1015C0008704B707002083A7472885CFA1679387A3
:1015D00007807390073037B6000037B50000130658
:1015E000C6339305C04D13058520EF50B07401A09C
:1015F000B70700209387C72798437D1798C33931D1
:1016000071BFB7E700E0116723A0E7206FE0FFF2AA
:10161000EFE27FF0B7070020B7B5000037150000F4
:101620009387072901478146130600089385C53B28
:101630001305052D21330544631E8502EF00F020BC
:10164000631A8502A1679387078073900730B707F5
:1016500000207D5723AAE728B707002023A0A72A48
:10166000B707002023A2072AEFF02FE283A781808B
:101670006FE0BFECFD57E31BF5FEA1679387078082
:101680007390073037B60000856537B50000130644
:10169000C6339385058413058520EF50B06901A0FA
:1016A000B7070020938747289843050798C382808F
:1016B000B707002003A5472A8280B707002083A729
:1016C000472863990718EFE21FE5B70700209387C3
:1016D000472A8043050480C321ECB7070020938785
:1016E00047279843184305C7A167938707807390DE
:1016F000073037B60000856537B500001306C633DE
:10170000938575AC13058520EF50D06201A0370793
:101710000020130787279443104390C3B707002086
:1017200014C3938787299843050798C3EFF01FAE2A
:1017300037060020930746299C4337570020B705FA
:101740000020130646291307075C938505270145EA
:101750006375F4029C41D146DC57B387D7023E97AC
:101760001843854763F3E7000545B707002083A7C3
:10177000872A91C305456FE05FDC370E0020B70E66
:101780000020514F93074E279443944281E6FD5722
:101790001CC2C9B79C43DC47DC47D4436374D40004
:1017A00014C24DBF83A8870003A8C700D44B13837E
:1017B000470023A408012322180183A8460063944C
:1017C000680023A2060103A8060023AA07007D18CB
:1017D00023A00601945795CA03A8C70183A807024E
:1017E00083AF46002324180183A8070223A208011F
:1017F0001388870163940F0123A2160103A8060032
:1018000023A407027D1823A006019386CE2803A8EF
:10181000C70283A8060063F4080123A00601B306EB
:10182000E803BA9683A8460083AF880023A4170173
:1018300023A6F70183AF880023A26F0023A46800CA
:10184000D4CB9C4285079CC29C41DC57E36CF8F2E8
:1018500005450DBFB70700209387C7299843014569
:10186000050798C38280EFE27FC937040020130484
:1018700044281C40411185E7A16793870780739036
:10188000073037B60000856537B500001306C6334C
:101890009385358B13058520EF50D04901A0EFF0DB
:1018A0002FCB1C40FD171CC01C4089CB01452AC60C
:1018B000EFF06FCB324541016FE09FC7B7070020C3
:1018C00083A7C727E5D7B7560020375500208147A3
:1018D00093864671370F00201305055CD148370306
:1018E0000020370E0020854E59A8DC46DC47CC4F3F
:1018F0009053985790C503A807022322B8000328E5
:101900004700938587016313B80050C3104323A495
:1019100007027D1610C38C47D047D84B1388470069
:1019200090C54CC24C436393050150C3104323AA96
:1019300007007D1610C31307CF28D0570C4363F35D
:10194000C50010C3330716032A974C4383AF8500A5
:101950008CC723A6F70183AF850023A20F0123A420
:1019600005010C43D8CB85050CC313070327184387
:1019700058576366E60013078E2A2320D701984242
:101980002DF799C3EFF09F88B70700201387C72969
:1019900004431384C72991CC370900208549313B82
:1019A00009C59307892A23A03701FD14EDF82320E8
:1019B0000400B707002083A7872AE38907EEB7E76B
:1019C00000E0116723A0E7200545D5B519E5B7E785
:1019D00000E0116723A0E7208280EFE2DFB3B707C2
:1019E000002083A7472841119DC3A16793870780E3
:1019F0007390073037B6000037B500001306C633C2
:101A00009305905413058520EF50D03201A02AC6CB
:101A1000413932458145EFF0BF81B13511E5B7E776
:101A200000E0116723A0E72041016FE01FB1B70775
:101A3000002003A74728B70700209387872A01C7FC
:101A4000054798C3828023A00700B70700201387AB
:101A5000C72818431386C728B75700209387075C09
:101A60005148B3060703B385D700884115C5C8415F
:101A7000A106BE964841C8C16314D5005441D4C1E3
:101A8000D146B306D702B697DC43D447B707002048
:101A900023A8D72618C2828015E7EFE2DFA7A16747
:101AA000938707807390073037B60000856537B598
:101AB00000001306C633938525C013058520EF501B
:101AC000702701A07D1771BFEFE2FFA405E5A167B4
:101AD000938707807390073037B60000856537B568
:101AE00000001306C6339385C5C113058520EF504A
:101AF000702401A0B70700202E8483A50727E105E5
:101B0000EFF0AFAD85452285EFF08FF26FE0FFA2D9
:101B1000EFE27FA02A8705E5A1679387078073908E
:101B2000073037B60000856537B500001306C633A9
:101B3000938525C513058520EF50D01F01A0B70759
:101B400000209387072754432E858C4303A88600E3
:101B5000D4CD8C4323A0050303A807008C4661085D
:101B600023A2050103A807009C43610823A40601E2
:101B700098D71C4385071CC311C27D55B285EFF071
:101B80002FEB6FE09F9B5C45DC4795E7EFE2BF984A
:101B9000A167938707807390073037B6000085658B
:101BA00037B500001306C633938525C81305852075
:101BB000EF50501801A0D04F945398579385870148
:101BC00014C6D0C250436313B60054C3144323A4B5
:101BD0000702FD1614C33707002003274728D457F0
:101BE00025EF8C47D047D84B90C5D04748434CC2CF
:101BF000938547006313B50050C3104323AA070021
:101C00007D1610C3370700201307C72810436373DE
:101C1000D60014C351473386E60237570020130716
:101C2000075C32975043084690C7C8C708464CC166
:101C30000CC6D8CB1C43014585071CC3B707002041
:101C400083A70727DC5763F8D700B70700200547AD
:101C500023A4E72A054582803757002013074771E0
:101C600050430846D0CF88D308464CC10CC698D7FD
:101C7000D1B7B707002083A787291CC1B707002069
:101C800083A7472A5CC18280EFE2FF88411105E506
:101C9000A167938707807390073037B6000085658A
:101CA00037B500001306C6339385D5CF13058520BD
:101CB000EF50500801A085E5A167938707807390D6
:101CC000073037B60000856537B500001306C63308
:101CD0009385E5CF13058520EF50D00501A02EC6D2
:101CE0002AC4EFF0EF8637070020B707002013075C
:101CF000072783A6472A1C432245B24583C71705F9
:101D000099CB1C43A38807040544EFF0CF852285B7
:101D100041016FE09F829C417D570144E387E7FECC
:101D2000370600200326862903280500584163074B
:101D3000C80063E5E60023A00500F9B73386E64056
:101D4000E37BF6FE958FBA979CC12537014475BF9A
:101D5000B7070020054723A4E72A8280B7070020A1
:101D600083A7072A054581CBB707002003A547288D
:101D70001335150006058280EFE2EFF937040020E5
:101D8000EFE01FFD1304842B1C40B1E73755002002
:101D90001309057513050575EFF00F813755002000
:101DA0009304457613054576EFF00F80B7070020C2
:101DB00023A6272B0146B7070020C145154523A8B8
:101DC000972AEFF02F9D08C019C5B7B5000093857D
:101DD000853EEFF08FB7EFE01FF96FE00FF6EFE20F
:101DE0008FF34CC108C9AA876362B602184D158EDD
:101DF0000545637BE60093854700B707002003A5F0
:101E0000072BEFE09FFD01456FE02FF36375D600D0
:101E10000545E3FBD5FE93854700B707002003A5E2
:101E2000C72AC5B7EFE22FEF2A84AE8432890C4C63
:101E3000A6864A86A69522855D3719E16FE0EFEF09
:101E40001C4C2285BE941C508297D5B7EFE2AFECB4
:101E5000B707002083A7C72A4111AA84DC472EC6F2
:101E6000C04713054400EFE03FFA8347440232467F
:101E700013F7470011CBA68522856D371C502285AC
:101E8000829741016FE06FEBF99B2302F402FDB7EB
:101E9000EFE26FE8370400209306C42A98421C43FF
:101EA00091EBB70700209387072B904398C390C20C
:101EB0006FE0AFE85C47FD558843493FF1BFEFE273
:101EC0000FE32D694111B70A0020B7090020370B35
:101ED0000020B70B00201309493C83A7CA2A984366
:101EE00029CBDC47814C03AC0700EFF06FFBEFF030
:101EF0002FFC83A7492B2A849384492B130A8B2B0D
:101F0000636CF50288C0638F0C0283A70B2B904390
:101F10001336160003250A00B3058C40EFF0AFA975
:101F2000EFF07F9411EDB7E700E0116723A0E72001
:101F300001A8854C014C55BFA13F80C0EFF0BF9276
:101F4000214C05A00146E36785FDEFF0DF91A285F6
:101F50006285ED3DF5B79247B2458297824763DDD2
:101F6000070003250A0001468A85EFF04F8935D521
:101F700082472245E3C107FE22445C4895E3EFF027
:101F80002FF39C40AA8C6373F5001937824723A076
:101F90009401FD17E367FCFC8A07CA979C4382877C
:101FA00013054400EFE05FE6D9BF834744020C4CC1
:101FB000924693E717002302F4026686B6952285BF
:101FC000393D45D18347440213F7470019CB1C4CD8
:101FD000924566862285BE95B1351C502285829732
:101FE00049B7F99B2302F402CDBF83474402F99B12
:101FF0002302F402BDB783474402924593E71700DA
:102000002302F4020CCC9DE1A167938707807390B3
:10201000073037B6000037B500001306063F9305BA
:10202000903513058520EF50E05001A0E6866686C6
:10203000E69522856D3335B78347440213F72700B1
:102040005DF72285EFE0FFB929BFEFE2CFCC2D335A
:10205000B707002083A7872B9DE3A167938707809D
:102060007390073037B6000037B500001306063FFF
:102070009305901113058520EF50C04B01A0B707C1
:102080000020B7B50000372500009387C72B3947DC
:10209000814613060010938505471305E5EBEFF025
:1020A000EFA945DD6FE06FC9EFE2EFC679712A89CC
:1020B00085451145052F854511452D278545116518
:1020C00015273714014093070020FC828D44E14717
:1020D0004C08130504803ECE26CCD52E9307004035
:1020E000FC824C089147130504803ECE37440140E2
:1020F000F92E0C10B7070C00130504804AD03ED40B
:1021000002D223160102F52D930750337C86680016
:1021100085473EC844874129054613050480930539
:102120005052EF00007B854513050480EF000079D5
:1021300045616FE08FC0411122C6374401409305CD
:10214000505213050480EF00C07D29C19305505201
:1021500013050480EF00B00013050480552F3707E6
:1021600000209306072C9E221307072C13960701C5
:102170004186634D0600139617011375F50F635FD3
:10218000060029466308C5002310070032444101B8
:10219000730020306177D98F9EA2CDBF354663147E
:1021A000C5001167CDBF9396270113D62601850779
:1021B000B756002093868677C207B296C18388A25D
:1021C0001EA39306700CE3E1F6FCC9B7EFE20FB370
:1021D000B7440140AE893289014493840480634549
:1021E00024014A856FE0CFB49305000426852D278E
:1021F00065DDB38789008385070026850504C20550
:10220000C1811927E9BFB70700202391A72C4157A7
:10221000B7E700E02387E7402386E740B7F700E011
:1022200023A0070023A20700814694C70147D8C70F
:1022300037070020832587201307803E814633D649
:10224000E5027D4790CBD4CB98C38280B7F600E0FF
:10225000984ADC4A37F800E0B707002083D7272CDC
:10226000BA8598463385A702DC4681470326880055
:102270008326C800E30CC7FEBA976377E600918F08
:102280003287E3E5A7FE8280AE97D5BFEFE2AFA825
:10229000AA840144636494006FE02FAA1305803E72
:1022A00075370504C5BF01A001A001A001A001A0D0
:1022B00001A001A001A001A001A001A001A001A016
:1022C00001A001A001A001A001A001A001A001A006
:1022D00001A001A001A001A001A001A001A001A0F6
:1022E00001A001A001A001A001A001A001A001A0E6
:1022F00001A001A001A001A001A001A001A001A0D6
:1023000001A001A001A001A001A001A001A001A0C5
:1023100001A001A001A001A001A001A001A001A0B5
:1023200001A001A001A001A001A001A001A001A0A5
:1023300001A001A001A001A001A001A001A001A095
:1023400001A001A001A001A001A001A001A001A085
:1023500001A001A001A001A001A001A001A001A075
:1023600001A001A097E1FF1F9381416A17E10020BE
:10237000130141C917C500001305855997E5FF1FD3
:10238000938545C81386818263FAC50083220500C0
:1023900023A0550011059105E3EAC5FE17E5FF1FCF
:1023A000130545EA973500209385054B6377B50003
:1023B000232005001105E36DB5FEFD42739002BCBC
:1023C000FD4273904280B78200009382028073A026
:1023D000023097E2FFFF938262C693E2320073906D
:1023E0005230EFE00FCC97E2FFFF9382A248739048
:1023F00012347300203014455C4158450328C5024F
:10240000D58FD98F1849370600A0D98F5849D98F51
:10241000184DD98F584DD98F1851D98F5851D98F00
:102420001855D98F1859B3E70701D98F18410A07F2
:102430003A961CC2A1476396F6001C4293E7070434
:102440001CC254598C4E9C42CD8FCC429205CD8FEC
:102450008C46A205CD8FCC46C205CD8F8C4AD44A7E
:10246000D205CD8FE206D58F5CC291676319F80261
:10247000145D904E9C42D18FD0421206D18F90466F
:102480002206D18F904AD44A5206E206D18FD58FC8
:10249000B70600A09386461036971CC38280B70704
:1024A00000A0938747103E97B7070010FD17F5B7B8
:1024B000B70700A00A053E951C4189C593E71700A0
:1024C0001CC18280370710007917F98FD5BF9C4552
:1024D00013F7070113F8F70001C7D8413368E80084
:1024E0008E2113F7F50F39C318418146854E3D4FB4
:1024F000930F800293028004214E3396DE00B3F8DE
:10250000C500631116039398260033131F0113436C
:10251000F3FF3377E300B318180133E7E800639F54
:10252000F70550C98506E39AC6FD18C11307F00FD9
:102530006375B70454412146854E3D4F930F800289
:1025400093028004414EB398CE0033F71501639295
:10255000E8021317260001173313EF001343F3FFAC
:10256000B376D3003317E800D98E639DF701232A91
:1025700015010506E319C6FD54C18280E39457FA9C
:1025800010C94DB7E39757FE23281501DDB708455D
:102590006D8D3335A00082800CC98280B707002082
:1025A00023A2A72C8280B70700209387472C94434F
:1025B000182181E63C21920721A894430546639F98
:1025C000C6023C21103192076314D60093E707F846
:1025D000B7E600E093F7F70FBA962380F6408546FA
:1025E000935757003397E6005441A5C293870704D9
:1025F0008A07B7E600E0B69798C382808C43894685
:102600006391D50214313C216365D6008A06B697E2
:102610005DB79386E6038A06B69793F7F70F92079E
:1026200075B790438D46631CD60014313C2163641A
:10263000D6008606E9BF9386C6078606F1BF944397
:102640009147E39EF6F81C31BDB7938707064DB757
:10265000371702405C439146B18B6385D700A14692
:102660006382D706B7177A00938707201CC13716F5
:1026700002405C42370700201307C7029183BD8BDD
:10268000BA9794231C41B3D7D7005CC15442A182AE
:102690009D8ABA969422B3D6D70014C55442AD820F
:1026A0009D8A36971823B3D7E7005CC55842398313
:1026B000937637001387C18036971823B3D7E70284
:1026C0001CC982805C435843C166C983758FB7F6C5
:1026D000FF1F83A6C670BD8B89071396160163483A
:1026E0000600C54601466392D702C94739A8894604
:1026F000638FD702BD46638ED702C146638ED70271
:10270000C54601466393D700C1471DEF37470240D6
:1027100003270780418B05C737177A001307072067
:10272000B307F7021CC121D61C41858381B701463E
:102730006DBF0546B547D1BF0146BD47F9B737174D
:102740003D0013070790E9BFB7150240D85593160F
:10275000F700D85563DF060411833D8B93061700FD
:1027600037177A00130707203357D70218C1D455FB
:10277000A182BD8A8DE295463307D702058318C131
:1027800037170240585714413D8B050733D7E602EF
:1027900018C1184171B785456394B600E546E9BF95
:1027A000BD456396B600D1463387E602C9BF8906A8
:1027B000E5BF3D8B9306170037177A0013070720F4
:1027C0003357D702F1B799C5371702405C4B5D8D7F
:1027D00048CB8280B7170240D84B1345F5FF798D5F
:1027E000C8CB828099C5371702401C4F5D8D08CF3A
:1027F0008280B7170240984F1345F5FF798D88CF37
:102800008280EFD25FD11629F577FD17F58FF6217B
:10281000DA257971D58F1EA95625FD779387379FC5
:10282000F58FD6212A842EC6D58F9625D58FB6252D
:10283000D58F5EA55E29C207C18393F7F7CFD98FE5
:102840005EA968083135B747014093870780B245D4
:10285000631AF404A25756246547B387E702C206F9
:10286000C186984163D20604060752244206B3D7B4
:10287000E702130740064186B3D6E702B3F7E70243
:102880009206635506028E0793872703B3D7E702A4
:1028900013F77700B367D700C207C1831EA4456151
:1028A0006FD0BFC9925745BF0A07C1B79207938738
:1028B0002703B3D7E702BD8BD58FF9BF91C55E253E
:1028C0000967D98F5EA582805A25F977FD17F98FA0
:1028D000D5BF13F7F50F85471583B395B700631977
:1028E000F7009307C500984301CED98D8CC3828031
:1028F000894693074501E318D7FE93070501E5B71D
:1029000093C5F5FFF98DDDB793F5F51F4EA18280D4
:102910004A211375F51F82800A216D8D3335A00081
:10292000828013F7F50F85461583B397B6006311C0
:10293000D7025A25F98F1A2101454207418381CBDD
:102940000545A181B315B5006D8F3335E000828058
:1029500089466314D7001A29F1BF5A29E1BFA18122
:102960008547B397B70093C7F7FFC207C1831EA17E
:102970008280EFD25FBA41118545130500029D3573
:10298000854513050002B93D8567371401407C82F7
:10299000C1473EC64C008D47130504403EC4EFF0CE
:1029A0001FB389674C00130504407C82EFF03FB2EF
:1029B000130504408565EFF03FBE896513050440AB
:1029C000EFF09FBD41016FD05FB7B7071060F917F7
:1029D000BE234111C207C1837C87288741018280C1
:1029E000411168873887B7071060420741839AA36F
:1029F00041018280411168873C8737071060C20718
:102A0000C183231FF7FE41018280B7071060239F17
:102A1000A7FE8EA38280B767002003D78784B707FD
:102A20001060239FE7FE8280B768002093870884A8
:102A300003DE4700BA27D22789679387379613D3D7
:102A400085009388088493F5F50F6314FE0803D876
:102A5000080083CE6800370E10607D1893170801B8
:102A6000C1839306EEFF63960E04898F231FEEFE4B
:102A7000C20723910600C1832391060013D7870064
:102A8000BAA293F7F70FBEA2B7071060239FC7FE45
:102A9000239067008EA31387E7FF83D72800FD17D5
:102AA00093D68740C206C18236A393F7F70F3EA3A1
:102AB0008280231FEEFE1358884013578500BAA268
:102AC0001375F50F4208AAA21358080123910601B5
:102AD0004DBF935885009377F50F37051060156843
:102AE0009306E5FF231FE5FE130808512391160105
:102AF00063130E03050742074183231FE5FEBEA2B1
:102B0000231FC5FE05064206239166004182231F4E
:102B1000C5FEAEA28280BEA2231FC5FE2391660021
:102B2000CDBF3767002093070784F023D623854560
:102B300089671307078493873796631EB6006399E6
:102B4000F6027D151375F50F994763F4A704130674
:102B50006003814749A01DE66396F6029D4763E145
:102B6000A71AAD67938787470A053E951C41828760
:102B70009D4763E7A718AD67938787490A053E9588
:102B80001C4182877D151375F50F19468147636BCC
:102B9000A600AD679387874B0A053E951C41828747
:102BA0009307000E156613060651638AC604256650
:102BB00013061634638DC6001D66930596786388E8
:102BC000B60093056679130660036396B60093E733
:102BD000870013066003B7051060239FC5FE0966D2
:102BE0009EA1130636966388C60C93F7070212233C
:102BF0002E2399CF6370B6020EA332A321A80D66CF
:102C000013060660C9BF1306600393070004E1B70B
:102C1000E3E4C5FE956793870751639EF608322764
:102C2000B70710605627130816002E230A23420800
:102C3000239FC7FE2390070013580801239F07FF17
:102C400013082600420823900700135808017D1539
:102C5000239F07FF1358854042080D0613580801AB
:102C60004206239007014182239FC7FE1375F50F8B
:102C70008AA313861600239FD7FE420623900700DF
:102C80004182239FC7FE1386260042062390070039
:102C90004182239FC7FE1386F5FF93558640C205E8
:102CA0008D06C181C2068EA3C182239FD7FE1376F3
:102CB000F60F92A38280362737061060231FD6FEB8
:102CC00023100600231006001623FD1693D5864018
:102CD000C205C1810EA293F6F60F16A25627231F36
:102CE000D6FE23100600231006003A237D179356C4
:102CF0008740C206C18216A21377F70F1AA28280FC
:102D000081474DB59307000A71BD9307000659BD71
:102D10009307000241BD9307000C69B593070004B7
:102D200051B593070008BDBDEFD2EFFE411132C689
:102D3000EFF09FCFEFF03FCE3246B707106042066C
:102D4000418292A341016FD04FFFEFD2CFFCB70772
:102D500010601307E00B1384E7FF239FE7FE9547FE
:102D60003EA0EF301046B7E7000003A6074683A653
:102D70004746EF304074EF30103F420541812AA0B2
:102D800085473EA09307F00F3EA0231104002311B6
:102D900004006FD08FFAEFD20FF8B7670020938648
:102DA0000784E8A2DA229387078455E137064001B9
:102DB0001306060F90C21566930506516315B702F8
:102DC000B737002A938707C09CC68D67938707B0E3
:102DD000DEA6B70720039387071E9CC20145EFF0CC
:102DE0005FD46FD08FF5896693863696631AD702C3
:102DF000B7062B009386C60294C79306A002D6A7F7
:102E0000B70620039386061E94C3A9669386668040
:102E1000E316D7FC370720031307071E98C37DBFAF
:102E2000B7062A009386C60294C79306B002D6A7B7
:102E3000130606316317C700B706E0019386061430
:102E4000E1B79D6693866679E308D7FE7DBF3706B6
:102E5000F0001306061490C215661306065163109F
:102E6000C702B737002A938707C09CC68D67938730
:102E700007B0DEA6B707E00193870732B9BF8966BE
:102E8000938636966307D700A96693866680631C8F
:102E9000D702B7062A009386C60294C79306B002EB
:102EA000D6A7B706E0019386063294C3956693864B
:102EB00006316307D7009D6693866679E310D7F2E3
:102EC0003707400191BFB7062A009386C60294C710
:102ED0009306B002D6A7D9BFEFD2EFE3B7670020C1
:102EE000938707849A23A2238145AA84014533044A
:102EF000E402EFF07FB3EFF01FB2814737071060B5
:102F0000639487006FD06FE306A38507D5BFEFD228
:102F1000EFDE1971854513050010EFF0DF8A854556
:102F20002145EFF03F8C854513050002EFF09F8BA4
:102F3000854513050004EFF0FF8AF177938737701A
:102F4000371401407C80E147130504403EC48A8564
:102F50008D47372901403EC2EFF06FD7930700F845
:102F6000130509808A857C80EFF06FD693070008EF
:102F7000130504408A857C80EFF06FD5930700022B
:102F8000130504408A857C80EFF06FD4C14413059B
:102F900004408A856480EFF08FD3130509808A8509
:102FA000A14A23105101EFF08FD28A85130504C086
:102FB0006480C14426C4EFF08FD18567BED4916789
:102FC000BED87C00BEDC3C10BEDEBD473EC69307CB
:102FD000C0033ECAC800A5473ED43ED8A6C882C298
:102FE00082C682D082C482CA82CE82D282D682CC6B
:102FF00082DA02C802CC02CE02D002D202D602DAB3
:1030000002DC02DE82C0EFF00FBF85450145EFF024
:103010002FCA13052003130A300DB7041060EFF018
:10302000EFA637640020239F44FF13090484EFF0C8
:10303000DF992312A900EFF05F992312A900EFF0A6
:10304000DF9822052312A900EFF03F98835749002B
:10305000130404845D8D42054181A5672312A900F4
:10306000938717346303F5189147239FF4FEEFF01D
:10307000DF954AA0EFF07F954AA0EFF01F9522055B
:103080004AA0EFF09F945E205D8D42054181A167CB
:103090004AA0938727556317F5009D679387977814
:1030A0005EA0A1A21D6B93079B786300F5149307A4
:1030B000400D239FF4FEEFF05F914AA0EFF0FF90E8
:1030C0004AA0EFF09F9022054AA0EFF01F905E20EB
:1030D00015695D8D420541814AA093070931630658
:1030E000F510239F44FFEFF05F8E4AA0EFF0FF8DB5
:1030F0004AA0EFF09F8D22054AA0EFF01F8D5E20C1
:10310000130B6B795D8D420541814AA0630F650DFC
:10311000FD77239FF4FE9389E4FF13075005239165
:10312000E90013871700239FE4FE1307A00A2391E9
:10313000E90013872700239FE4FE1307200523914E
:10314000E90013873700239FE4FE2391590191077B
:10315000239FF4FE85472391F900B16993870950B5
:10316000239FF4FEEFF07F8622054AA09389195031
:10317000239F34FFEFF07F855E205D8D4AA01545CB
:10318000EFF0CF905A20930709516300F706239F71
:1031900044FFEFF09F834AA0EFF03F834AA0EFF097
:1031A000DF8222054AA0EFF05F825E205D8D42053E
:1031B0004181A9674AA0938767806308F502930756
:1031C000100A239FF4FEEFF05F804AA0EFF0EFFFBC
:1031D00022054AA0EFF06FFF5E20130919765D8D7E
:1031E00042054181630B25054AA04E2037E50000CA
:1031F00013054545EF4000345E209D6613879678A1
:103200006391E70431215E201D6793069778639CE4
:10321000D7088D473ED43ED80145EFF0DFB73715CC
:103220000140C145130505C0EFF00FB741657D159D
:10323000EFF09FCA09616FD0AFAF89679387379668
:1032400085B52567130717346395E700EF00805BAA
:103250005DBF1567130607316395C700EF00D00304
:103260005DB7938666796395D700EF10701361BFE1
:10327000130707516395E700EF10903569B7296789
:10328000130767806395E700EF20303AADBF096709
:1032900013073796E399E7F6EF207075130540069C
:1032A000EFF0BFAA8DB7A96693866680638CD700BE
:1032B000A566938616346387D700956613860651F4
:1032C0006394C7008947B9B793860631638BD700EB
:1032D000130767796387E700096713073796E39D4C
:1032E000E7F2854705BFEFD26FA1B304A64085047E
:1032F000C2049319070141112A892E84C18093D9F0
:103300000901370A106063F5860041016FD04FA2B2
:10331000A2854A8536C6EFF02FF1EFF0CFEFB24627
:10332000814763E69700050442044180E9BF8507B1
:10333000C20723103A01C183EDB7EFD24F9B33048C
:10334000A64041112A8BAE8CB384B640854B6347AF
:103350008000814B01C43304C540FD5B054C6347CD
:103360009000014C81C4B384D5407D5C22896353B5
:1033700094002689814A014A8149130D1900635539
:103380003D0141016FD02F9A93950C0113150B014C
:103390003A86C18141813AC6229AEFF0FF98A69AF7
:1033A000324763554901330A2A415E9B63555901EF
:1033B000B38A2A41E29C8509C20993D90901C1B7A0
:1033C000EFD2CF933684AE86328AAA893A89AE8408
:1033D000AD374A87A2864E86A6854E85B93F4A8775
:1033E000A2865286A2854E85893F4A87A28652864A
:1033F000A685528599376FD0AF93EFD2CF8E93F4D5
:1034000076003E8AB334900093D73600BE9493D7AB
:103410001600B384F402130406FE6204C1472A8B2B
:10342000AE8BB68ABA89618493F4F40F6383F60A8B
:1034300063E7D700B1476380F6026FD08F8EE14714
:10344000638EF60893070002E399F6FE35661A04C8
:10345000130646C931A03304D4022D661306464D27
:103460003294B76C0020A2945E89938C0C84E3861E
:1034700084FC130C8900834D0400420C135C0C0186
:1034800093978D01E187528663C607006398090010
:1034900003A60181CA855A85EFF01F89050983D7E4
:1034A0002C004209860D1359090193FDFD0FE376A7
:1034B000F9F8B3077941639BFA02050B83D70C0037
:1034C000420B135B0B01E37AFBF65E8C0504628909
:1034D00079BF316612041306869459B71306400269
:1034E0003304C4023166130686F39DBFE31A89F9DB
:1034F000F1BFEFC25FFF93FA1700E2074111BA84F0
:10350000138CF6FF0583E1872A892E8AB28D428DBE
:103510003AC41374FC0F8149814B130BF00FA94C73
:103520003EC6631F640541016FC0BFFFB3879703A9
:103530007D171377F70FE31B67FFB3D7FD02B3F7D0
:10354000970313F6F70F63970B0463D58905B1E36F
:10355000B24763DA0702EA875687A6861306000396
:103560004A85D285EFF07FE9A2477D148509B3082B
:10357000F90013990801135909011374F40F55B791
:103580002287854775B7EA875687A6861306000205
:10359000C1BF854BEA875687A68613060603C9B7BF
:1035A000EFC2FFF42A96AE9693190601139A06010C
:1035B0004111AE843E8993D90901135A0A01BA8A8E
:1035C000935B17002A84130BE005137CF50F0306A9
:1035D0000900930706FE93F7F70F6375FB0041019F
:1035E0006FC07FF463663401D694C2046284C180E4
:1035F000E3F744FFC28722850147D686A6855E94FD
:1036000042C64204EFF07FDF418005093248C1B76E
:10361000EFC27FF04545EFF0EFBD13058007EFE007
:10362000FFC613056003EFF0EFBC0145EFF04FBBA1
:103630001305A003EFF00FBC1545EFF06FBA1305AB
:10364000200BEFF02FBB3145EFF08FB93145EFF094
:103650002FB90145EFF0CFB813053003EFF04FB8A5
:1036600013053003EFF0CFB71305700BEFF08FB8F1
:1036700013055003EFF0CFB61305B00BEFF08FB783
:1036800013052003EFF0CFB51305000CEFF08FB654
:103690003145EFF0EFB41305200CEFF0AFB5054561
:1036A000EFF00FB41305300CEFF0CFB44145EFF05D
:1036B0002FB31305400CEFF0EFB313050002EFF04A
:1036C0002FB21305600CEFF0EFB23D45EFF04FB1B4
:1036D0001305000DEFF00FB21305400AEFF04FB0E5
:1036E0001305100AEFF0CFAF1305000EEFF08FB007
:1036F0001305000DEFF0CFAE0145EFF06FAE0945B9
:10370000EFF00FAE1D45EFF0AFAD2945EFF04FAD37
:1037100013058002EFF0CFAC13052003EFF04FACA0
:1037200013054004EFF0CFAB13052004EFF04FABCF
:103730001945EFF0EFAA3945EFF08FAA4945EFF0B0
:103740002FAA5145EFF0CFA95D45EFF06FA9130502
:10375000100EEFF02FAA1305000DEFF06FA8014532
:10376000EFF00FA80945EFF0AFA71D45EFF04FA709
:103770002945EFF0EFA613058002EFF06FA61305C1
:103780001003EFF0EFA513054005EFF06FA513054B
:103790007004EFF0EFA43945EFF08FA47145EFF01E
:1037A0002FA45D45EFF0CFA36D45EFF06FA37945F2
:1037B000EFF00FA31305A002EFF0CFA30145EFF048
:1037C0002FA20145EFF0CFA10145EFF06FA1130546
:1037D000F00EEFF0EFA01305B002EFF0AFA101453E
:1037E000EFF00FA00145EFF0AF9F0545EFF04F9FC1
:1037F0001305F003EFF0CF9E13059002EFF08F9FBB
:103800006FC0BFD3EFC23FD11305F00CEFF08F9E16
:103810000145EFF0EF9C1305100CEFF06F9C1305C2
:103820000003EFF0EF9B1305D00EEFF0AF9C1305F4
:103830004006EFF0EF9A0D45EFF08F9A4945EFF013
:103840002F9A13051008EFF0AF991305800EEFF0D3
:103850006F9A13055008EFF0AF984145EFF04F987D
:103860001305A007EFF0CF971305B00CEFF08F987A
:1038700013059003EFF0CF961305C002EFF04F96BB
:103880000145EFF0EF9513054003EFF06F95094503
:10389000EFF00F951305700FEFF0CF9513050002B1
:1038A000EFF00F941305A00EEFF0CF940145EFF069
:1038B0002F930145EFF0CF921305000CEFF08F939B
:1038C0006D45EFF0EF911305100CEFF0AF92054549
:1038D000EFF00F911305500CEFF0CF91130500039B
:1038E000EFF00F9013050003EFF08F8F1305700CAE
:1038F000EFF04F901305700BEFF08F8E1305600300
:10390000EFF04F8F13058004EFF08F8D1305A003A8
:10391000EFF04F8E13055005EFF08F8C1305100B51
:10392000EFF04F8D0145EFF0AF8B6945EFF04F8B16
:103930001305600BEFF00F8C2945EFF06F8A13052C
:10394000200AEFF0EF891305200FEFF0AF8A014551
:10395000EFF00F8913056002EFF0CF890545EFF016
:103960002F881305000EEFF0EF883D45EFF04F87ED
:103970001305A002EFF0CF8613058002EFF04F860B
:103980002145EFF0EF853945EFF08F852145EFF0C8
:103990002F8513054005EFF0AF841305900AEFF073
:1039A0002F8413053004EFF0AF832945EFF04F83E8
:1039B0003D45EFF0EF820145EFF08F820145EFF0DA
:1039C0002F820145EFF0CF810145EFF06F811305A4
:1039D000100EEFF02F820145EFF08F805545EFF08C
:1039E0002F805D45EFE0DFFF1D45EFE07FFF4545A0
:1039F000EFE01FFF1945EFE0BFFE1305B002EFE057
:103A00003FFE13056005EFE0BFFD1305C003EFE0C7
:103A10003FFD1545EFE0DFFC4145EFE07FFC3D4514
:103A2000EFE01FFC1305F003EFE09FFB1305F0032D
:103A3000EFE01FFB3D45EFE0BFFA1305B002EFE0FA
:103A40007FFB0145EFE0DFF90145EFE07FF9054538
:103A5000EFE01FF91305F003EFE09FF81305A00254
:103A6000EFE05FF90145EFE0BFF70145EFE05FF7F9
:103A70000145EFE0FFF61305F00EEFE07FF6454558
:103A8000EFE05FF713058007EFE05F80130590021A
:103A9000EFE05FF66FC07FAAEFC2FFA71305D00E5D
:103AA000EFE05FF50545EFE0BFF31305E00FEFE052
:103AB0003FF31305E00EEFE0FFF31305E00DEFE039
:103AC0003FF213051002EFE0BFF11305100FEFE016
:103AD0007FF20545EFE0DFF01305F00DEFE09FF119
:103AE0004145EFE0FFEF1305400CEFE0BFF0130599
:103AF000F008EFE0FFEE1305600CEFE0BFEF0145CB
:103B0000EFE01FEE1305200EEFE09FED1305200EF2
:103B1000EFE01FED1305200EEFE09FEC1305F00B17
:103B2000EFE05FED1305A00AEFE09FEB1305000B3C
:103B3000EFE05FEC3545EFE0BFEA0145EFE05FEA1B
:103B40003545EFE0FFE90145EFE09FE94545EFE04E
:103B50003FE90145EFE0DFE86545EFE07FE801453B
:103B6000EFE01FE813051002EFE09FE70145EFE0EB
:103B70003FE71305D002EFE0BFE60145EFE05FE667
:103B80001305D003EFE0DFE50145EFE07FE5130526
:103B9000D005EFE0FFE40145EFE09FE41305D00519
:103BA000EFE01FE40145EFE0BFE31305100BEFE08A
:103BB0007FE413050008EFE0BFE20145EFE05FE2BC
:103BC0001305B008EFE0DFE10145EFE07FE1130509
:103BD0006009EFE0FFE00145EFE09FE01305200BF7
:103BE000EFE05FE10145EFE0BFDF0145EFE05FDFC0
:103BF0000945EFE0FFDE0145EFE09FDE0D45EFE018
:103C00003FDE0145EFE0DFDD1305300BEFE09FDE27
:103C10000145EFE0FFDC0145EFE09FDC0145EFE00F
:103C20003FDC0145EFE0DFDB0145EFE07FDB0145F5
:103C3000EFE01FDB0145EFE0BFDA0145EFE05FDABF
:103C40000145EFE0FFD90145EFE09FD90145EFE0E5
:103C50003FD90145EFE0DFD80145EFE07FD80145CE
:103C6000EFE01FD80145EFE0BFD70145EFE05FD798
:103C70000145EFE0FFD60145EFE09FD60145EFE0BB
:103C80003FD60145EFE0DFD50145EFE07FD50145A7
:103C9000EFE01FD50145EFE0BFD40145EFE05FD471
:103CA0001305400BEFE01FD51305B008EFE05FD31D
:103CB0000145EFE0FFD213056009EFE07FD2014537
:103CC000EFE01FD21305100AEFE09FD10145EFE0AE
:103CD0003FD11305500BEFE0FFD10945EFE05FD076
:103CE0000145EFE0FFCF0D45EFE09FCF0145EFE04D
:103CF0003FCF1145EFE0DFCE0145EFE07FCE13056A
:103D0000600BEFE03FCF0145EFE09FCD0145EFE0D5
:103D10003FCD1305700BEFE0FFCD0145EFE05FCC29
:103D20000145EFE0FFCB1305F003EFE07FCB01454A
:103D3000EFE01FCB1305E005EFE09FCA0145EFE080
:103D40003FCA13054006EFE0BFC90145EFE05FC978
:103D50001305C008EFE0DFC80145EFE07FC8130599
:103D6000C00AEFE0FFC70145EFE09FC71305C00D94
:103D7000EFE01FC70145EFE0BFC613050007EFE006
:103D80003FC60145EFE0DFC513050009EFE05FC561
:103D90000145EFE0FFC41305B00EEFE07FC401451D
:103DA000EFE01FC41305C00DEFE09FC30145EFE036
:103DB0003FC31305800BEFE0FFC30145EFE05FC297
:103DC0000145EFE0FFC10145EFE09FC10145EFE094
:103DD0003FC10145EFE0DFC00145EFE07FC0014595
:103DE000EFE01FC00145EFE0BFBF1305A00BEFE000
:103DF0007FC013054002EFE0BFBE0145EFE05FBEAC
:103E00000145EFE0FFBD0145EFE09FBD1305100C3C
:103E1000EFE05FBE13050002EFE09FBC0145EFE05D
:103E20003FBC13054005EFE0BFBB0145EFE05FBBC2
:103E30001305F00FEFE0DFBA0145EFE07FBA13059D
:103E4000200CEFE03FBB2945EFE09FB90145EFE0D3
:103E50003FB91145EFE0DFB80145EFE07FB813054A
:103E6000300CEFE03FB91305C003EFE07FB7014529
:103E7000EFE01FB71305A003EFE09FB60145EFE0A9
:103E80003FB613059003EFE0BFB50145EFE05FB526
:103E900013057003EFE0DFB40145EFE07FB41305D5
:103EA000C003EFE0FFB30145EFE09FB313056003EC
:103EB000EFE01FB30145EFE0BFB213052003EFE0D1
:103EC0003FB20145EFE0DFB11305F002EFE05FB173
:103ED0000145EFE0FFB01305C002EFE07FB0014500
:103EE000EFE01FB013059002EFE09FAF0145EFE058
:103EF0003FAF13056002EFE0BFAE0145EFE05FAEFC
:103F000013054002EFE0DFAD0145EFE07FAD1305A3
:103F10004002EFE0FFAC0145EFE09FAC130530023B
:103F2000EFE01FAC0145EFE0BFAB1305C003EFE0CE
:103F30003FAB0145EFE0DFAA13056003EFE05FAAA6
:103F40000145EFE0FFA913052003EFE07FA901453C
:103F5000EFE01FA91305F002EFE09FA80145EFE095
:103F60003FA81305C002EFE0BFA70145EFE05FA740
:103F700013059002EFE0DFA60145EFE07FA61305F1
:103F80006002EFE0FFA50145EFE09FA513054002A9
:103F9000EFE01FA50145EFE0BFA413054002EFE0ED
:103FA0003FA40145EFE0DFA313053002EFE05FA37C
:103FB0000145EFE0FFA21305400CEFE0BFA313059E
:103FC0002006EFE0FFA10145EFE09FA11545EFE0DE
:103FD0003FA10145EFE0DFA013054008EFE05FA03F
:103FE0000145EFE0FF9F1305000FEFE07F9F0145C4
:103FF000EFE01F9F6145EFE0BF9E0145EFE05F9E50
:104000001305400AEFE0DF9D0145EFE07F9D61452C
:10401000EFE01F9D0145EFE0BF9C13050005EFE0B9
:104020003F9C0145EFE0DF9B3145EFE07F9B014581
:10403000EFE01F9B5D45EFE0BF9A0145EFE05F9A1F
:1040400013055009EFE0DF990145EFE07F99130573
:10405000300FEFE0FF980145EFE09F981305600EE9
:10406000EFE01F980145EFE0BF971305500CEFE01C
:104070007F9813052003EFE0BF960145EFE05F96C0
:1040800013054004EFE0DF950145EFE07F95130550
:104090005006EFE0FF940145EFE09F9413056007A1
:1040A000EFE01F940145EFE0BF9313058008EFE0B8
:1040B0003F930145EFE0DF921305600CEFE09F9323
:1040C00013050002EFE0DF910145EFE07F915D45D0
:1040D000EFE01F910145EFE0BF900545EFE05F90F5
:1040E0000145EFE0FF8F1305700CEFE0BF90014535
:1040F000EFE01F8F0145EFE0BF8E0145EFE05F8EDF
:104100000145EFE0FF8D1305800CEFE0BF8E014508
:10411000EFE01F8D0145EFE0BF8C0145EFE05F8CC4
:104120000145EFE0FF8B1305900CEFE0BF8C0145DC
:10413000EFE01F8B0145EFE0BF8A0145EFE05F8AAA
:104140000145EFE0FF890145EFE09F890145EFE080
:104150003F890145EFE0DF880145EFE07F880145B9
:10416000EFE01F880145EFE0BF870145EFE05F8783
:104170000145EFE0FF860145EFE09F860145EFE056
:104180003F860145EFE0DF850145EFE07F851305C0
:10419000000EEFE03F865945EFE09F840145EFE0D8
:1041A0003F847145EFE0DF830145EFE07F83130536
:1041B0001002EFE0FF820145EFE09F8213056003EC
:1041C000EFE01F820145EFE0BF8113056004EFE0DF
:1041D0003F810145EFE0DF8013052005EFE05F80C0
:1041E0000145EFE0EFFF13054006EFE06FFF0145EB
:1041F000EFE00FFF1305A007EFE08FFE0145EFE0B2
:104200002FFE1305B008EFE0AFFD0145EFE04FFDD5
:1042100013059009EFE0CFFC0145EFE06FFC1305BB
:10422000800AEFE0EFFB0145EFE08FFB1305900BF9
:10423000EFE00FFB0145EFE0AFFA1305400CEFE0B4
:104240002FFA0145EFE0CFF91305A00CEFE04FF98D
:104250000145EFE0EFF81305200DEFE06FF80145A1
:10426000EFE00FF81305900DEFE08FF70145EFE059
:104270002FF71305000EEFE0AFF60145EFE04FF624
:104280001305300FEFE0CFF50145EFE06FF51305B3
:10429000100EEFE02FF65945EFE08FF40145EFE007
:1042A0002FF47145EFE0CFF30145EFE06FF3130515
:1042B0002002EFE0EFF20145EFE08FF2130560031B
:1042C000EFE00FF20145EFE0AFF113055004EFE02E
:1042D0002FF10145EFE0CFF013052005EFE04FF09F
:1042E0000145EFE0EFEF13054006EFE06FEF01450A
:1042F000EFE00FEF1305A007EFE08FEE0145EFE0D1
:104300002FEE1305B008EFE0AFED0145EFE04FED04
:1043100013059009EFE0CFEC0145EFE06FEC1305DA
:10432000800AEFE0EFEB0145EFE08FEB1305900B18
:10433000EFE00FEB0145EFE0AFEA1305400CEFE0D3
:104340002FEA0145EFE0CFE91305A00CEFE04FE9BC
:104350000145EFE0EFE81305200DEFE06FE80145C0
:10436000EFE00FE81305800DEFE08FE70145EFE088
:104370002FE71305000EEFE0AFE60145EFE04FE653
:104380001305300FEFE0CFE50145EFE06FE51305D2
:10439000200EEFE02FE61545EFE08FE40145EFE05A
:1043A0002FE42D45EFE0CFE30145EFE06FE36D45EE
:1043B000EFE00FE30145EFE0AFE213054003EFE06C
:1043C0002FE20145EFE0CFE113054004EFE04FE1BC
:1043D0000145EFE0EFE01305F004EFE06FE0014589
:1043E000EFE00FE013051006EFE08FDF0145EFE08F
:1043F0002FDF13059007EFE0AFDE0145EFE04FDE62
:1044000013058008EFE0CFDD0145EFE06FDD130518
:104410007009EFE0EFDC0145EFE08FDC1305600A87
:10442000EFE00FDC0145EFE0AFDB1305700BEFE0D1
:104430002FDB0145EFE0CFDA1305200CEFE04FDA78
:104440000145EFE0EFD91305700CEFE06FD901459E
:10445000EFE00FD91305100DEFE08FD80145EFE025
:104460002FD81305600DEFE0AFD70145EFE04FD730
:104470001305D00DEFE0CFD60145EFE06FD6130561
:10448000300FEFE0EFD50145EFE08FD51305300E8B
:10449000EFE04FD61545EFE0AFD40145EFE04FD444
:1044A0002945EFE0EFD30145EFE08FD37145EFE011
:1044B0002FD30145EFE0CFD213053003EFE04FD209
:1044C0000145EFE0EFD113054004EFE06FD1014566
:1044D000EFE00FD113050005EFE08FD00145EFE0CD
:1044E0002FD013052006EFE0AFCF0145EFE04FCF0F
:1044F00013058007EFE0CFCE0145EFE06FCE130547
:104500008008EFE0EFCD0145EFE08FCD1305700996
:10451000EFE00FCD0145EFE0AFCC1305600AEFE00F
:104520002FCC0145EFE0CFCB1305700BEFE04FCB65
:104530000145EFE0EFCA1305200CEFE06FCA01451B
:10454000EFE00FCA1305700CEFE08FC90145EFE0F3
:104550002FC91305100DEFE0AFC80145EFE04FC8BC
:104560001305500DEFE0CFC70145EFE06FC713050E
:10457000D00DEFE0EFC60145EFE08FC61305300F19
:10458000EFE00FC60145EFE0AFC51305400EEFE0C9
:104590006FC60545EFE0CFC40145EFE06FC40545A8
:1045A000EFE00FC40145EFE0AFC30945EFE04FC3B3
:1045B0000145EFE0EFC21305A002EFE06FC2014535
:1045C000EFE00FC21305C003EFE08FC10145EFE03C
:1045D0002FC11305B004EFE0AFC00145EFE04FC0BD
:1045E0001305D005EFE0CFBF0145EFE06FBF130526
:1045F0004007EFE0EFBE0145EFE08FBE1305400836
:10460000EFE00FBE0145EFE0AFBD13053009EFE06D
:104610002FBD0145EFE0CFBC1305200AEFE04FBCF2
:104620000145EFE0EFBB1305300BEFE06FBB014539
:10463000EFE00FBB1305E00BEFE08FBA0145EFE0B1
:104640002FBA1305400CEFE0AFB90145EFE04FB9C9
:104650001305D00CEFE0CFB80145EFE06FB81305BC
:10466000300DEFE0EFB70145EFE08FB71305D00D48
:10467000EFE00FB70145EFE0AFB61305300FEFE005
:104680002FB60145EFE0CFB51305500EEFE08FB622
:104690000145EFE0EFB40145EFE08FB40145EFE0F5
:1046A0002FB40145EFE0CFB30945EFE06FB301450B
:1046B000EFE00FB313059002EFE08FB20145EFE09A
:1046C0002FB21305C003EFE0AFB10145EFE04FB1EA
:1046D0001305B004EFE0CFB00145EFE06FB0130574
:1046E000D005EFE0EFAF0145EFE08FAF13054007D6
:1046F000EFE00FAF0145EFE0AFAE13054008EFE08C
:104700002FAE0145EFE0CFAD13053009EFE04FAD1F
:104710000145EFE0EFAC1305200AEFE06FAC014577
:10472000EFE00FAC1305300BEFE08FAB0145EFE08E
:104730002FAB1305E00BEFE0AFAA0145EFE04FAA66
:104740001305400CEFE0CFA90145EFE06FA9130579
:10475000D00CEFE0EFA80145EFE08FA81305300D76
:10476000EFE00FA80145EFE0AFA71305C00DEFE0A4
:104770002FA70145EFE0CFA61305300FEFE04FA6BE
:104780000145EFE0EFA51305600EEFE0AFA645454C
:10479000EFE00FA50145EFE0AFA413054003EFE004
:1047A0002FA40145EFE0CFA313056005EFE04FA371
:1047B0000145EFE0EFA213056007EFE06FA20145AE
:1047C000EFE00FA213057007EFE08FA10145EFE0C6
:1047D0002FA113056006EFE0AFA00145EFE04FA069
:1047E00013058008EFE0CF9F0145EFE06F9F1305B1
:1047F0009009EFE0EF9E0145EFE08F9E1305B00BAF
:10480000EFE00F9E0145EFE0AF9D13059009EFE04B
:104810002F9D0145EFE0CF9C13056006EFE04F9C14
:104820000145EFE0EF9B13055005EFE06F9B01455D
:10483000EFE00F9B13055005EFE08F9A0145EFE085
:104840002F9A13055004EFE0AF990145EFE04F991F
:1048500013053004EFE0CF980145EFE06F981305A2
:104860004004EFE0EF970145EFE08F971305700EDE
:10487000EFE04F9813052003EFE08F960145EFE03E
:104880002F9613055005EFE0AF950145EFE04F95EA
:1048900013056007EFE0CF940145EFE06F94130537
:1048A0006006EFE0EF930145EFE08F93130570068C
:1048B000EFE00F930145EFE0AF9213057006EFE0D4
:1048C0002F920145EFE0CF9113057008EFE04F9173
:1048D0000145EFE0EF9013059009EFE06F9001457F
:1048E000EFE00F901305B00BEFE08F8F0145EFE085
:1048F0002F8F13059009EFE0AF8E0145EFE04F8E4B
:1049000013057007EFE0CF8D0145EFE06F8D1305C4
:104910004004EFE0EF8C0145EFE08F8C130560055C
:10492000EFE00F8C0145EFE0AF8B13053002EFE0B5
:104930002F8B0145EFE0CF8A13053003EFE04F8A5C
:104940000145EFE0EF8913055004EFE06F89014561
:10495000EFE00F891305800EEFE0CF890145EFE00E
:104960002F880145EFE0CF8713059009EFE04F87CF
:104970000145EFE0EF8613057008EFE06F86014513
:10498000EFE00F8613058008EFE08F850145EFE02B
:104990002F8513057007EFE0AF840145EFE04F84EA
:1049A00013056006EFE0CF830145EFE06F83130549
:1049B0008008EFE0EF820145EFE08F821305A00A47
:1049C000EFE00F820145EFE0AF811305B00BEFE0A0
:1049D0002F810145EFE0CF8013059009EFE04F8074
:1049E0000145EFD0FFFF13056006EFD07FFF0145C3
:1049F000EFD01FFF13055005EFD09FFE0145EFD00C
:104A00003FFE13055005EFD0BFFD0145EFD05FFD20
:104A100013054004EFD0DFFC0145EFD07FFC130508
:104A20004004EFD0FFFB0145EFD09FFB130550057D
:104A3000EFD01FFB0145EFD0BFFA1305900EEFD06A
:104A40007FFB1305A00AEFD0BFF90145EFD05FF956
:104A50000145EFD0FFF80145EFD09FF80145EFD0B9
:104A60007FF91305A00AEFD0BFF71305F00CEFD0C4
:104A70007FF80145EFD0DFF60145EFD07FF6014525
:104A8000EFD01FF60145EFD0BFF50145EFD05FF540
:104A90000145EFD0FFF40145EFD09FF40145EFD081
:104AA0003FF40145EFD0DFF30145EFD07FF301453F
:104AB000EFD01FF30145EFD0BFF20145EFD05FF219
:104AC0000145EFD0FFF10145EFD09FF10145EFD057
:104AD0003FF10145EFD0DFF01305000FEFD09FF15C
:104AE0000145EFD0FFEF13050005EFD07FEF014543
:104AF000EFD01FEF0145EFD0BFEE0145EFD05FEEE5
:104B00001305300FEFD01FEF0145EFD07FED1305F8
:104B1000900FEFD03FEE1945EFD09FEC4145EFD01D
:104B20003FEC13059002EFD0BFEB0145EFD05FEBF8
:104B30001305A003EFD01FEC13055005EFD05FEA7B
:104B40004545EFD03FEB13054006EFD02FF413059A
:104B50009002EFD03FEA13055003EFD0BFE90145C3
:104B6000EFD01FE813051005EFD0DFE81305F00FB5
:104B7000EFD01FE713053005EFD0DFE71305C002C4
:104B8000EFD01FE613055005EFD0DFE61305200830
:104B9000EFD01FE51305C002EFD0DFE56FB0FF993E
:104BA000EFB27F974545EFD0FFE413058007EFD0C4
:104BB000EFED13056003EFD0FFE313058004EFD0A2
:104BC0003FE21305A003EFD0FFE213055005EFD03D
:104BD0003FE11305000FEFD0FFE11305300CEFD0DC
:104BE0003FE01305000FEFD0FFE013056009EFD0A1
:104BF0003FDF1305400BEFD0FFDF0545EFD05FDE51
:104C00001305600BEFD01FDF2945EFD07FDD1305C3
:104C1000200AEFD0FFDC1305700BEFD0BFDD1305CA
:104C2000600CEFD0FFDB1305900BEFD0BFDC094524
:104C3000EFD01FDB1305000EEFD09FDA1305000C39
:104C4000EFD05FDB13050008EFD09FD95945EFD0B7
:104C50003FD91305100CEFD0FFD96545EFD05FD8D1
:104C60001305200CEFD01FD91305700AEFD05FD7C2
:104C70001305500CEFD01FD85945EFD07FD6130540
:104C8000800EEFD03FD713050004EFD07FD513057A
:104C9000A008EFD0FFD40145EFD09FD40145EFD05D
:104CA0003FD413059002EFD0BFD36545EFD05FD35B
:104CB0001305500AEFD0DFD213053003EFD05FD2D7
:104CC0001305000EEFD01FD31305000FEFD05FD1F7
:104CD0001D45EFD0FFD03545EFD09FD01145EFD027
:104CE0003FD01545EFD0DFCF5145EFD07FCF130533
:104CF0006003EFD0FFCE13054005EFD07FCE130544
:104D0000C004EFD0FFCD13058003EFD07FCD4D451C
:104D1000EFD01FCD5145EFD0BFCC1305E002EFD04F
:104D20003FCC13054003EFD0BFCB1305100EEFD0DF
:104D30007FCC1305000FEFD0BFCA4145EFD05FCA4B
:104D40005145EFD0FFC93945EFD09FC93145EFD06C
:104D50003FC92145EFD0DFC813055003EFD05FC82E
:104D600013054004EFD0DFC71305C004EFD05FC7C1
:104D700013056002EFD0DFC64145EFD07FC649453D
:104D8000EFD01FC61305C002EFD09FC51305200347
:104D9000EFD01FC51305000FEFD0DFC51305C0030B
:104DA000EFD01FC41305000FEFD0DFC4130590062A
:104DB000EFD01FC313058007EFD04FCD13051002AE
:104DC000EFD05FC313059002EFD0DFC26FB0EFF6F4
:104DD000EFB26FF4930550053D65EFD01FC33D64FE
:104DE000130514009305A00AEFD03FC21305240059
:104DF00093052005EFD07FC113053400A145EFD006
:104E0000DFC0130544008545EFD03FC0B5452D6593
:104E10002D64EFD09FBF13051400B545EFD0FFBE42
:104E200013052400B545EFD05FBE1305046093055C
:104E30004003EFD09FBD1305146093054003EFD0EE
:104E4000DFBC1305246093054003EFD01FBC13059E
:104E50000410B545EFD07FBB13051410B545EFD056
:104E6000DFBA13052410B545EFD03FBA130504701F
:104E700093054003EFD07FB91305147093054003E9
:104E8000EFD0BFB81305247093054003EFD0FFB7F0
:104E9000130504208145EFD05FB713051420814529
:104EA000EFD0BFB6130524208145B164EFD0FFB524
:104EB0001385048093054002EFD03FB5138514801D
:104EC00093054002EFD07FB4138524809305400200
:104ED000EFD0BFB3138504F08545EFD01FB31305A2
:104EE0000430BD45EFD07FB213051430BD45EFD07F
:104EF000DFB113052430BD45EFD03FB113850490D9
:104F000093054003EFD07FB01385149093054003C1
:104F1000EFD0BFAF1385249093054003EFD0FFAED1
:104F200013050450A145EFD05FAE13051450A14501
:104F3000EFD0BFAD13052450A145EFD01FAD1385B1
:104F400004208D45EFD07FAC138504A0930540026B
:104F5000EFD0BFAB138514A093054002EFD0FFAA9A
:104F6000138524A093054002EFD03FAA138504C007
:104F70008145EFD09FA9138514C093058007EFD01A
:104F8000DFA8138524C08145EFD03FA8138504D046
:104F90008145EFD09FA7138514D093058007EFD0EC
:104FA000DFA6138524D08145EFD03FA6138504E00A
:104FB0008145EFD09FA5138514E093054006356425
:104FC000EFD0BFA4130504108145EFD01FA4130533
:104FD000141093053003EFD05FA31305241081450F
:104FE000EFD0BFA21305341093054003EFD0FFA10B
:104FF000130544108145EFD05FA1130554109305AC
:10500000A003EFD09FA0130564108145EFD0FF9F50
:10501000130574109305A004EFD03F9F130584106F
:105020008145EFD09F9E130594109305C005EFD0E6
:10503000DF9D1305A4108145EFD03F9D1305B410EB
:1050400093051008EFD07F9C1305C4108145EFD065
:10505000DF9B1305D4109305600AEFD01F9B130547
:10506000E4108145EFD07F9A1305F4109305500E9C
:10507000EFD0BF99130504118545EFD01F99130593
:105080001411CD45EFD07F98130524118545EFD03D
:10509000DF971305341193054005EFD01F971305D3
:1050A00044118545EFD07F961305541193052008D0
:1050B000EFD0BF95130564118545EFD01F951305FB
:1050C00074119305A00CEFD05F94130584118945EA
:1050D000EFD0BF93130594118145EFD01F931305B3
:1050E000A4118945EFD07F921305B4118545EFD007
:1050F000DF911305C4118945EFD03F911305D411F9
:1051000093054003EFD07F901305E4118945EFD05C
:10511000DF8F1305F41193057006EFD01F8F130571
:1051200004128945EFD07F8E1305141293054008B1
:10513000EFD0BF8D130524128945EFD01F8D1305C5
:1051400034129305400AEFD05F8C13054412894551
:10515000EFD0BF8B130554129305700BEFD0FF8A6D
:10516000130564128945EFD05F8A13057412930505
:10517000F00CEFD09F89130584128945EFD0FF888A
:10518000130594129305E00DEFD03F881305A41288
:105190008945EFD09F871305B4129305200FEFD0F8
:1051A000DF861305C4128945EFD03F861305D4125C
:1051B0009305E00FEFD07F851305E4128D45EFD006
:1051C000DF841305F412C145EFD03F8413050413A7
:1051D0008D45EFD09F831305141393053003EFD053
:1051E000DF82130524138D45EFD03F82130534135E
:1051F0009305D006EFD07F81130504208145EFD0C1
:10520000DF801305142093053003EFD01F801305B2
:1052100024208145EFD06FFF130534209305400310
:10522000EFD0AFFE130544208145EFD00FFE1305EC
:1052300054209305A003EFD04FFD13056420814552
:10524000EFD0AFFC130574209305A004EFD0EFFB63
:10525000130584208145EFD04FFB1305942093055F
:10526000C005EFD08FFA1305A4208145EFD0EFF9E8
:105270001305B42093051008EFD02FF91305C420AF
:105280008145EFD08FF81305D4209305600AEFD045
:10529000CFF71305E4208145EFD02FF71305F42055
:1052A0009305500EEFD06FF6130504218545EFD01E
:1052B000CFF513051421CD45EFD02FF5130524218B
:1052C0008545EFD08FF41305342193054005EFD0C9
:1052D000CFF3130544218545EFD02FF31305542157
:1052E00093052008EFD06FF2130564218545EFD0B8
:1052F000CFF1130574219305A00CEFD00FF1130526
:1053000084218945EFD06FF0130594218145EFD0BA
:10531000CFEF1305A4218945EFD02FEF1305B4215A
:105320008545EFD08FEE1305C4218945EFD0EFED11
:105330001305D42193054003EFD02FED1305E4218D
:105340008945EFD08FEC1305F42193057006EFD05B
:10535000CFEB130504228945EFD02FEB1305142260
:1053600093054008EFD06FEA130524228945EFD05A
:10537000CFE9130534229305400AEFD00FE9130556
:1053800044228945EFD06FE8130554229305700B32
:10539000EFD0AFE7130564228945EFD00FE713057F
:1053A00074229305F00CEFD04FE613058422894553
:1053B000EFD0AFE5130594229305E00DEFD0EFE4B5
:1053C0001305A4228945EFD04FE41305B4229305B9
:1053D000200FEFD08FE31305C4228945EFD0EFE211
:1053E0001305D4229305E00FEFD02FE21305E4223A
:1053F0008D45EFD08FE11305F422C145EFD0EFE0EA
:10540000130504238D45EFD04FE0130514239305B6
:105410003003EFD08FDF130524238D45EFD0EFDE6F
:10542000130534239305D006EFD02FDE1305043087
:105430008145EFD08FDD1305143093053003EFD095
:10544000CFDC130524308145EFD02FDC1305343039
:1054500093054003EFD06FDB130544308145EFD057
:10546000CFDA130554309305A003EFD00FDA1305FC
:1054700064308145EFD06FD9130574309305A004D3
:10548000EFD0AFD8130584308145EFD00FD8130586
:1054900094309305C005EFD04FD71305A430814554
:1054A000EFD0AFD61305B43093051008EFD0EFD589
:1054B0001305C4308145EFD04FD51305D430930583
:1054C000600AEFD08FD41305E4308145EFD0EFD3DD
:1054D0001305F4309305500EEFD02FD3130504318C
:1054E0008545EFD08FD213051431CD45EFD0EFD1E4
:1054F000130524318545EFD04FD113053431930581
:105500004005EFD08FD0130544318545EFD0EFCF64
:105510001305543193052008EFD02FCF13056431C4
:105520008545EFD08FCE130574319305A00CEFD0D5
:10553000CFCD130584318945EFD02FCD130594319C
:105540008145EFD08FCC1305A4318945EFD0EFCB47
:105550001305B4318545EFD04FCB1305C4318945D0
:10556000EFD0AFCA1305D43193054003EFD0EFC994
:105570001305E4318945EFD04FC91305F431930584
:105580007006EFD08FC8130504328945EFD0EFC7FE
:105590001305143293054008EFD02FC713052432AA
:1055A0008945EFD08FC6130534329305400AEFD0FA
:1055B000CFC5130544328945EFD02FC513055432AA
:1055C0009305700BEFD06FC4130564328945EFD09B
:1055D000CFC3130574329305F00CEFD00FC313053E
:1055E00084328945EFD06FC2130594329305E00DE4
:1055F000EFD0AFC11305A4328945EFD00FC1130519
:10560000B4329305200FEFD04FC01305C432894543
:10561000EFD0AFBF1305D4329305E00FEFD0EFBE4C
:105620001305E4328D45EFD04FBE1305F432C1456A
:10563000EFD0AFBD130504338D45EFD00FBD13057B
:10564000143393053003EFD04FBC130524338D453D
:10565000EFD0AFBB130534339305D006EFD0EFBACC
:10566000130504408145EFD04FBA1305144093054C
:105670003003EFD08FB9130524408145EFD0EFB848
:105680001305344093054003EFD02FB81305444071
:105690008145EFD08FB7130554409305A003EFD099
:1056A000CFB6130564408145EFD02FB61305744083
:1056B0009305A004EFD06FB5130584408145EFD06A
:1056C000CFB4130594409305C005EFD00FB4130574
:1056D000A4408145EFD06FB31305B4409305100883
:1056E000EFD0AFB21305C4408145EFD00FB2130520
:1056F000D4409305600AEFD04FB11305E4408145D3
:10570000EFD0AFB01305F4409305500EEFD0EFAFDC
:10571000130504418545EFD04FAF13051441CD4526
:10572000EFD0AFAE130524418545EFD00FAE130582
:10573000344193054005EFD04FAD130544418545F5
:10574000EFD0AFAC1305544193052008EFD0EFAB79
:10575000130564418545EFD04FAB130574419305A4
:10576000A00CEFD08FAA130584418945EFD0EFA993
:10577000130594418145EFD04FA91305A4418945F4
:10578000EFD0AFA81305B4418545EFD00FA813059E
:10579000C4418945EFD06FA71305D4419305400359
:1057A000EFD0AFA61305E4418945EFD00FA613054E
:1057B000F44193057006EFD04FA5130504428945C7
:1057C000EFD0AFA41305144293054008EFD0EFA328
:1057D000130524428945EFD04FA3130534429305A6
:1057E000400AEFD08FA2130544428945EFD0EFA1C4
:1057F000130554429305700BEFD02FA1130564429B
:105800008945EFD08FA0130574429305F00CEFD0BB
:10581000CF9F130584428945EFD02F9F13059442F3
:105820009305E00DEFD06F9E1305A4428945EFD09C
:10583000CF9D1305B4429305200FEFD00F9D1305A4
:10584000C4428945EFD06F9C1305D4429305E00F05
:10585000EFD0AF9B1305E4428D45EFD00F9B1305AE
:10586000F442C145EFD06F9A130504438D45EFD044
:10587000CF991305144393053003EFD00F99130507
:1058800024438D45EFD06F98130534439305D0061C
:10589000EFD0AF97130504508145EFD00F97130554
:1058A000145093053003EFD04F96130524508145D3
:1058B000EFD0AF951305345093054003EFD0EF942C
:1058C000130544508145EFD04F9413055450930570
:1058D000A003EFD08F93130564508145EFD0EF9272
:1058E000130574509305A004EFD02F921305845034
:1058F0008145EFD08F91130594509305C005EFD0EB
:10590000CF901305A4508145EFD02F901305B450CC
:1059100093051008EFD06F8F1305C4508145EFD069
:10592000CF8E1305D4509305600AEFD00F8E130568
:10593000E4508145EFD06F8D1305F4509305500E60
:10594000EFD0AF8C130504518545EFD00F8C1305B4
:105950001451CD45EFD06F8B130524518545EFD001
:10596000CF8A1305345193054005EFD00F8A1305F4
:1059700044518545EFD06F89130554519305200894
:10598000EFD0AF88130564518545EFD00F8813051C
:1059900074519305A00CEFD04F87130584518945AE
:1059A000EFD0AF86130594518145EFD00F861305D4
:1059B000A4518945EFD06F851305B4518545EFD0CB
:1059C000CF841305C4518945EFD02F841305D451DA
:1059D00093054003EFD06F831305E4518945EFD061
:1059E000CF821305F45193057006EFD00F82130593
:1059F00004528945EFD06F81130514529305400876
:105A0000EFD0AF80130524528945EFD00F801305E6
:105A100034529305400AEFC05FFF13054452894595
:105A2000EFC0BFFE130554529305700BEFC0FFFD8E
:105A3000130564528945EFC05FFD13057452930549
:105A4000F00CEFC09FFC130584528945EFC0FFFBAB
:105A5000130594529305E00DEFC03FFB1305A452CC
:105A60008945EFC09FFA1305B4529305200FEFC08C
:105A7000DFF91305C4528945EFC03FF91305D4522D
:105A80009305E00FEFC07FF81305E4528D45EFC09A
:105A9000DFF71305F452C145EFC03FF71305045378
:105AA0008D45EFC09FF61305145393053003EFC0E7
:105AB000DFF5130524538D45EFC03FF5130534532F
:105AC0009305D006EFC07FF4130504608145EFC055
:105AD000DFF31305146093053003EFC01FF31305C4
