:100000006F402014130000001300000013000000D4
:100010001300000013000000130000001300000094
:100020001300000013000000130000001300000084
:08003000130000007300100032
:100038000000000000000000120F0000160F000072
:1000480000000000884000000000000000000000E0
:100058008A4000008C400000000000000000000002
:100068009E200000000000000002000000000000C8
:100078009240000094400000964000009840000024
:100088009A4000009C4000009E400000A0400000F4
:10009800A2400000A4400000A6400000A8400000C4
:1000A800AA400000AC400000AE400000B040000094
:1000B800B2400000B4400000B6400000B840000064
:1000C800BA400000BC400000BE400000C040000034
:1000D800C2400000C4400000C6400000C840000004
:1000E800CA400000CC400000CE400000D0400000D4
:1000F800D2400000D4400000D6400000D8400000A4
:10010800DA400000383F0000903F0000E040000067
:10011800E2400000E4400000E6400000E840000043
:10012800EA400000EC400000EE400000F040000013
:10013800F2400000F4400000F6400000F8400000E3
:10014800FA400000FC400000FE40000000410000B2
:10015800024100000441000006410000084100007F
:100168000A4100000C4100000E410000104100004F
:10017800124100001441000016410000184100001F
:100188001A4100001C4100001E41000020410000EF
:1001980022410000244100002641000028410000BF
:1001A8002A4100002C4100002E410000304100008F
:1001B800324100003441000036410000384100005F
:1001C8003A4100003C4100003E410000404100002F
:1001D8000000000000000000000000000000000017
:1001E8000000000000000000000000000000000007
:0801F8000000000000000000FF
:10020000130181F806C216C41AC61EC822CA26CC1B
:100210002ACE2ED032D236D43AD63ED842DA46DC76
:100220004ADECEC0D2C2D6C4DAC6DEC8E2CAE6CC46
:10023000EACEEED0F2D2F6D4FAD6FED8F3220030CF
:1002400096DA9702002083A2220123A02200F32540
:1002500010342EC09305000273A0458003A1818154
:10026000EF30001C17030020032303FF03210300CA
:10027000824273901234D652739002309240A2425E
:100280003243C2435244E244724582551256A2564A
:100290003257C2575258E25872598649164AA64AEE
:1002A000364BC64B564CE64C764D865D165EA65ECA
:1002B000365FC65F13018107730020301300000012
:1002C00013000000130000001300000013000000E2
:1002D00013000000130000001300000013000000D2
:1002E00013000000130000001300000013000000C2
:1002F00013000000130000001300000013000000B2
:1003000083A28181938202E073900234170100205E
:10031000032181F4024182403243C2435244E24409
:10032000724582551256A2563257C2575258E25859
:1003300072598649164AA64A364BC64B564CE64C6D
:10034000764D865D165EA65E365FC65FD652A1020A
:1003500073900230A24213018107828013000000D3
:100360001300000013000000130000001300000041
:100370001300000013000000130000001300000031
:100380001300000013000000130000001300000021
:100390001300000013000000130000001300000011
:1003A0001300000013000000130000001300000001
:1003B00013000000130000001300000013000000F1
:1003C00013000000130000001300000013000000E1
:1003D00013000000130000001300000013000000D1
:1003E00013000000130000001300000013000000C1
:1003F00013000000130000001300000013000000B1
:10040000F322003093F272FF130380781203B3E2F9
:100410006200711523205500130585FA10C12115BE
:10042000232005009302000063870200711523203A
:100430000500FD12D5BF71150CC1828000000000BF
:1004400000000000000000000000000000000000AC
:10045000000000000000000000000000000000009C
:10046000000000000000000000000000000000008C
:10047000000000000000000000000000000000007C
:10048000000000000000000000000000000000006C
:10049000000000000000000000000000000000005C
:1004A000000000000000000000000000000000004C
:1004B000000000000000000000000000000000003C
:1004C000000000000000000000000000000000002C
:1004D000000000000000000000000000000000001C
:1004E000000000000000397101436EC619A0397187
:1004F00041536AC866CA62CC5ECE19A039710153F5
:100500005AD056D252D44ED64AD826DA22DC06DE4B
:1005100033016140828241114AC026C222C406C60C
:100520008282B24D4101024D924C224CB24B4101AC
:10053000024B924A224AB249410102499244224462
:10054000B240410182803D432A876373C30293779F
:10055000F700BDEFADE5937606FF3D8ABA960CC372
:100560004CC30CC74CC74107E36BD7FE11E2828036
:10057000B306C3408A069702000096966780A600DD
:100580002307B700A306B7002306B700A305B700EB
:100590002305B700A304B7002304B700A303B700E3
:1005A0002303B700A302B7002302B700A301B700DB
:1005B0002301B700A300B7002300B700828093F5A2
:1005C000F50F93968500D58D93960501D58D61B76E
:1005D000939627009702000096968682E78086FA17
:1005E0009680C1171D8F3E96E374C3F8A5B7336795
:1005F000B500FD530D8B79E7B7877F7F9387F7F7BA
:1006000010419441B372F6003363F600BE92B3E238
:1006100062006395720C6318D6065041D441B372E0
:10062000F6003363F600BE92B3E262006396720A8C
:10063000631BD60410459445B372F6003363F6008D
:10064000BE92B3E26200639F7208631ED6025045F9
:10065000D445B372F6003363F600BE92B3E2620093
:10066000639872086311D60210499449B372F60078
:100670003363F600BE92B3E26200639172085105E3
:10068000D105E30FD6F61317060193970601631CF5
:10069000F7001357060193D706013305F74093750A
:1006A000F50F91E982804183C1833305F74093754B
:1006B000F50F91E182801377F70F93F7F70F33056A
:1006C000F740828010219421050585056313D6002B
:1006D00075FA3305D640828011059105E314D6FEE4
:1006E000014582802105A105E31ED6FC01458280DB
:1006F0003105B105E318D6FC014582804105C105ED
:10070000E312D6FC01458280EFF2FFE041118545FE
:100710002145EF30F06B37140140C1473EC68D4490
:1007200089474C00130504C07C8226C4EF30103882
:1007300091473EC64C008547130504C07C8226C401
:10074000EF30D0364101D5BBEFF2FFDC2A863715FA
:1007500001408945130505C0EF307042F9BBEFF247
:100760009FDB411185452145EF3090669147371455
:1007700001403EC685477C824C008D47130504C06E
:100780003EC4EF30B0328545130504C0EF30103E53
:10079000410165B3EFF23FD8D93701457537C1370D
:1007A0007DFD0545EF305008E14401440545693FB2
:1007B00001450604513F653711C10504FD1493F44A
:1007C000F40FEDF4054549370145BD3F370580007D
:1007D000218DA5B3EFF23FD4411129466C00EF7093
:1007E0001035B2478387070099E71307F00F937717
:1007F000F50F637CA70083A7418137D5000013055F
:100800004531CC47EF50F05781473E85410135B324
:10081000EFF27FD0B70700203707002003274720DB
:1008200083A787203704002013040420998F130521
:1008300005131CC045371C40130745016368F700CA
:10084000311533B5A70013451500C5B90145F5BFEE
:10085000EFF27FCCB707002037070020032787205F
:1008600083A747203704002013040420998F130521
:1008700005131CC085371C40130745016368F7004A
:10088000311533B5A7001345150045B90145F5BF2E
:10089000EFF27FC837D5000013054533EF60702AAB
:1008A000056513058538EF20503137D50000130555
:1008B0008534EF6010291305803EEF201030B5B964
:1008C000EFF2DFC337D900001305C934EF6070279A
:1008D0001305803EEF20702EB7D90000B70400202A
:1008E000938549351385442E37040020EF6070331B
:1008F0002328A420B70A00201304042137DB0000BA
:100900001C40138ACA20B5C737D500001305053728
:10091000EF6030231305803EEF20302A37D90000E6
:1009200013054938EF60F0211305803EEF20F028D1
:10093000B7D90000938509391385442EEF60702ED6
:1009400008C0B7DA00001C40B9CF37D50000130546
:10095000C53AEF60101F05661306068081451385B2
:10096000442E23100A00C5361305803EEF20F024E4
:10097000C1B61305CB35EF60D01C1305803EEF20C8
:10098000D0231305C93423100A00EF60901B130510
:10099000803EEF209022938549351385442EEF60E9
:1009A000502808C0B1BF1385CA39EF6090191305EC
:1009B000803EEF2090201305493823100A00EF6095
:1009C00050181305803EEF20501F93850939138579
:1009D000442EEF60102508C0BDB7EFF23FB237D507
:1009E00000001305C54CEF60D0151305803EEF20C5
:1009F000D01C37D90000370400209305C94D1305DA
:100A0000442EB7040020EF60D02123A8A420370A89
:100A1000002093840421B7DA000037DB00009C40FB
:100A20009309CA208DC737D500001305C550EF6064
:100A3000501105661306068081451305442E239048
:100A4000090011361305803EEF203017D5B4138509
:100A50008A4EEF60100F1305803EEF20101613052D
:100A6000CB4F23900900EF60D00D1305803EEF209F
:100A7000D0149305C94D1305442EEF60901A88C019
:100A800079BFEFF2DFA637D900001305C951EF6037
:100A9000500B1305803EEF20501237DA0000370468
:100AA000002093054A561305442EB7040020EF603A
:100AB000501723A8A420B70A00209384042137DB11
:100AC00000009C409389CA20DDC337D50000130580
:100AD00045590569EF60F006130909804A8681458A
:100AE0001305442E23900900B93C1305803EEF20E6
:100AF000D00C37DA000013050A5BEF609004130591
:100B0000803EEF20900BB7DA000093850A5D130555
:100B1000442EEF60101188C0B7DB000037DC000006
:100B20009C4095E393850B5E1305442EEF60700F98
:100B30002A8B88C04A8681451305442E23900900DC
:100B4000193463000B0637D500001305055FEF600D
:100B5000407F05661306068081451305442E2390C9
:100B60000900D5321305803EEF2030056DBA13051C
:100B70008B57EF60007D1305803EEF2010041305B6
:100B8000C95123900900EF60C07B1305803EEF2020
:100B9000D00293054A561305442EEF60900888C092
:100BA0000DB713050C60EF60C0791305803EEF2090
:100BB000D00013050A5BEF60C07893850A5D1305CA
:100BC000442EEF60100688C04A8681451305442EE6
:100BD000239009008D3AA9B7EFF25F9237D9000050
:100BE00013050961EF60E0751305007DEF20E07CDF
:100BF000B7D90000370400209385C9641305442E3B
:100C0000B7040020EF60F00123A8A420B70A002059
:100C10009384042137DB00009C40138ACA209DC7BF
:100C200037D5000013050567EF60A0710566130650
:100C3000068081451305442E23100A00EFF0BF9073
:100C40001305803EEF2060776FF09F8E1305CB6514
:100C5000EF60206F1305803EEF20207613050961B9
:100C600023100A00EF60E06D1305803EEF20E07472
:100C70009385C9641305442EEF60A07A88C069BFCC
:100C8000EFF27F892E86AA8537D500001305C53B74
:100C9000EF6020596FF07F8AEFF2FF87B7040020E2
:100CA00061712A8926848387442E638C0718B7D5FF
:100CB0000000938545461385442EEF6080760DC96C
:100CC000814713062002930640063307F500030709
:100CD00057006304C7006395D714181B37D500006D
:100CE000BA970C0813058546238007E6EF6060532A
:100CF000B7D50000938585471305442EEF606072D9
:100D000005CD180881479305200213064006B30657
:100D1000F500838676006385B60005076397C710E4
:100D2000181B37D50000BA979305610713050548CE
:100D3000238307ECEF60E04EB7D5000093850549AB
:100D40001305442EEF60E06D39C5180881479305FF
:100D5000C0021308200213064006B306F50083867E
:100D600086006387B6006385060105076393C70C99
:100D7000181BBA976C00E809238607F2EF70403918
:100D8000EF50E06CA30AA10637D50000EC0913056B
:100D90008549EF600049B7D500009385C54A130522
:100DA000442EEF60006839C5180881479305C002DA
:100DB0001308200213064006B306F500838696004A
:100DC0006387B6006385060105076398C706181B8D
:100DD000BA976C008802238807F8EF706033EF50F1
:100DE0000067A30DA10C37D500008C021305454BFD
:100DF000EF6020430566B707002013060680814593
:100E00001305442E23960720EFF0EFF30C0813068A
:100E1000001A4A85EF50007E4A855D616FF0EFF160
:100E20000C08BE9598A185074DB58507A302D70686
:100E3000F9BD8507A305D70C0DB78507A307D71202
:100E4000A5BF1305401FEF204057B1BDEFF2AFEC37
:100E500083A7418137D500001305456CCC47EF507F
:100E600040720545EF500064232205002300050071
:100E70008280EFF24FEA41112A841305001A2EC630
:100E8000EF50E072B24511E1D1371306001AAA847F
:100E9000EF5040765C4023AC041889EB44C01C2022
:100EA00085071CA041016FF04FE9BA8703A7871996
:100EB0006DFF23AC9718E5B7EFF24FE440411DC832
:100EC0002E89AA848149CA852285EFF04FF28327B3
:100ED00084191DE163960902DCC02285EF50C06DC4
:100EE0009C2037D50000CA85FD179CA013054568D6
:100EF000EF6020336FF0CFE3A28991C73E84E1B762
:100F000023ACF918D9BF37D50000CA851305456A47
:100F1000C5B77300203001A0EFF2EFDFEF10A01B88
:100F2000392DB7070020B7D500003715000093878B
:100F3000872209478146130600069385057213052B
:100F4000C5FAEF103052B7070020B7D500003715AB
:100F500000009387C7210947814613060006938541
:100F6000C5721305E529EF10F04FB7070020B7D57C
:100F7000000037150000094781461306800C938551
:100F80008573138447211305451D93874721EF106F
:100F9000704D0840EF206052B707002003A5C7221C
:100FA000EF10F06DEF1080146FF02FD9EFF20FD526
:100FB000370400204111370900208549B70400207B
:100FC000130AF05F1304442E0325092C7D56930564
:100FD000F100EF10E071E31935FF83D7C420E3651A
:100FE000FAFE988793861700A2972396D42098A399
:100FF000E1BFEFF24FCF37D50000130101CC13054D
:101000004574EF6000343709002037040020B70929
:101010000020370A0020B70A0020370B0020B70B4A
:10102000002037DC0000894C0D4D914D8544EF5078
:10103000402C230BA92C8347692D93F7F70F638767
:10104000970F63ECFC0CE39497FEEF00C07503A5CB
:101050004921EF10F06F03258A2AFD55EF10A07F7C
:10106000E31395FC03A54A2C7D560C13EF10406842
:10107000631D950493050C75081319310565130557
:1010800085BBEF2080330A8501391306001A8A8553
:101090000813EF50205637D5000093056120130543
:1010A0008575EF600018B707002003A5872C8146DF
:1010B0007D560C13EF10C036B707002003A5C72AD2
:1010C000814601468145EF10A0351306001A0C1326
:1010D0000A85EF5020520A85EF00807A1305803E82
:1010E000EF20A02D03250B2B814601468145EF10F3
:1010F00020330C131306001A0A85EF50A04F8A857F
:1011000013050422BD3303A54B2BFD55EF10A0742E
:101110008547E31AF5F0252139B7E38EA7FFE39859
:10112000B7F113050422EF007015F5BDEF00C07E86
:1011300003A54921EF10D06103258A2AFD55EF1040
:1011400080718547AA84E310F5EE03A54A2C7D56ED
:101150000C13EF10E05963169504B7D50000938582
:1011600005760813313E1305007DEF2000250A8522
:1011700025361306001A8A850813EF50A047B707D3
:10118000002003A5872C81467D560C13EF104029C3
:10119000B707002003A5872B814601468145EF1044
:1011A00020280C131306001A0A85EF50A0440A8564
:1011B000EF0030041305803EEF20202003250B2B89
:1011C000814601468145EF10A0250C13130504222A
:1011D000E53115BFEFF28FB2B7440140373400203C
:1011E000617193840480370A0020370900201304BA
:1011F000C44DB70900207D4BA94A85452685EF30AF
:10120000A04C0325CA2B7D569305F100EF10404EEC
:101210008547E314F5FEEF50003898873A951C3166
:101220008D8B8DC38347492A636EFB008347492A10
:1012300093F7F70F9386170093F6F60FA297230202
:10124000D92A98A3E31B57FBA2851306400608087A
:10125000EF60E01A03A5492C0C0881467D56230A4D
:101260000106EF10E01BB707002003A5872A81467F
:1012700001468145EF10C01A130600028145228500
:101280002302092AEFF02FAC26858145EF30C043B9
:10129000B707002003A54721EF202022A9BFEFF2C6
:1012A0008FA7EFF0EFDEEFF0AFE1EFF00FF3EFF02D
:1012B0004FFDEFF07F92B7070020B7D5000037153C
:1012C000000093878721094781461306802593856F
:1012D0004576130525FFEF10F018B7070020B7D5A6
:1012E000000037150000938707230947814613063E
:1012F00000049385057713058530EF10B01601457E
:10130000EF10F0376FF06FA3EFF26F9E130101CC77
:10131000EFF08FBF37E4E400EFF0CFC71304F41B06
:10132000370B0020B70B002037090020B70400203E
:10133000B7090020EFF00FC6E36EA4FE0325CB2A09
:10134000FD55054AEF102051AA8A631A4505032569
:10135000892C7D560C13EF10A0392A8AE31C55FD09
:101360001306001A0C130A85EF50C0280A85EFF007
:101370002FCA11ED03A5092BFD55EF10C04D6318C1
:101380004501EF00D00B1305803EEF20000303A5BD
:10139000442B814601468145EF10800861BF03A5BB
:1013A0008B2BFD55EF10204BAA8AE31545F9032539
:1013B000892C7D560C13EF10A0332A8AE31C55F7B5
:1013C0001306001A0C130A85EF50C0220A85EFF0AD
:1013D0002FC845B7EFF22F940D4681450545EF0024
:1013E000107DB704002023A4A42A0D46814505459D
:1013F000EF00F07B370400202326A42A0D46814508
:101400000545EF00D07AB707002023A8A72A0D468C
:1014100081450545EF00B079B707002023AAA72A28
:101420000D4681450545EF009078B707002023ACB5
:10143000A72A83A7842A81C78327C42A99E737D597
:1014400000001305056EEF50D06F0146854513056A
:101450000002EF00D07537090020232EA92A01468B
:10146000854513050060EF009074B704002023A0A9
:10147000A42C01469305001A0545EF00507337046C
:1014800000202322A42C01469305001A0545EF00F5
:101490001072B707002023A4A72C8327C92B81CB68
:1014A00083A7042C89C78327442C91C301E937D42F
:1014B000000013050470EF50D068E5BF3705002029
:1014C00013050522EFF05F9AB7070020B7D500009B
:1014D000371500009387C72205478146130600048D
:1014E00093854571130585F1EF10C077EF10F0304B
:1014F0006FF0AF84EFF22F821145EF20F0681305F3
:101500000009EF20102E37140140EF20300FEF407C
:10151000105BEF30C026A16513050480EF20F06555
:1015200013054006EF20503413050480A165EF2019
:101530009064EF30A043793D01456FF00F80EFE2FA
:101540009FFD0145EF30203FB70700207D57239ACC
:10155000E72C2167130707439306801C1306802F8F
:10156000E14513058002EF40D0349306801C5146BC
:10157000E1455145EF40F0399306C01D1306802F19
:101580009305C01D13058002EF40B0389146130645
:10159000802F914513058002EF40B0379306801CE1
:1015A0001306C030E1451305C030EF409036930676
:1015B000801C1306802FE14513058002EF40903D0B
:1015C0005146E14513058002EF40704051469305B6
:1015D000801C13058002EF40903F51469305801C0C
:1015E0001305802FEF40B03E5146E1451305802F93
:1015F000EF40F03DB7D700009387477C1307000208
:101600009306000213060012930580021305A00F33
:10161000EF4090233164130784619306E0111306B1
:10162000E0109305600A1305C003EF4090281307EC
:1016300084619306E0111306901F9305600A130559
:101640007012EF401027130784619306E011130610
:10165000402E9305600A13052021EF4090251307C3
:1016600084619306F01A1306E010930570131305B6
:10167000C003EF401024130784619306F01A130689
:10168000901F9305701313057012EF4090221307FB
:1016900084619306F01A1306402E93057013130508
:1016A0002021EF401021B7D700009387877D1307D3
:1016B000000293060002130600059305800C130533
:1016C0004006EF407018B7D700009387077E1307D6
:1016D000000293060002130600089305800C130510
:1016E0000014EF407016B7D700009387C77E13072A
:1016F000000293060002130600059305800C1305F3
:10170000A023EF40701437D400009307447F1307E1
:10171000000293060002130600059305000F13054F
:101720008025EF407012B7D700009387C77F13075B
:101730000002930600021306000993059015130595
:101740004006EF4070109307447F13070002930692
:101750000002130600059305101813052008EF403A
:10176000B00EB7E700009387878013070002930647
:101770000002130600069305901513050014EF40B0
:10178000B00CB7E7000093870781130700029306A8
:10179000000213060006930590151305A023EF40E1
:1017A000B00A6FE09FD9EFE21FD70145EF30A018D4
:1017B000B70700207D57239AE72C216713070743BB
:1017C0009306801C1306802FE14513058002EF402D
:1017D000500E9306801C5146E1455145EF40701371
:1017E0009306C01D1306802F9305C01D13058002AC
:1017F000EF40301291461306802F91451305800269
:10180000EF4030119306801C1306C030E1451305EC
:10181000C030EF4010109306801C1306802FE14566
:1018200013058002EF4010175146E1451305800271
:10183000EF40F01951469305801C13058002EF40DC
:10184000101951469305801C1305802FEF40301866
:101850005146E1451305802FEF407017B7D70000C0
:101860009387477813070002930600021306000BC4
:10187000930540061305A00FEF40007D6FE0FFCBFE
:10188000EFE27FC9B16419712A84138504C4EF3073
:10189000800A138784619306000F13068025930541
:1018A00080071305800CEF40D000930764063E8547
:1018B0003EC6EF50B033B247131645004206130739
:1018C00000024182930600029305400B1305800C31
:1018D000EF4080778346540637D600001306C6775C
:1018E000930540066808EF50B0297C0813070002F2
:1018F00093060002130600059305800C1305800C67
:10190000EF4080740565130505FAEF10102BEFF01A
:101910001FC309616FE07FC2EFE2FFBF0145EF30F7
:101920008001B70700207D57239AE72C2167130712
:1019300007439306801C1306802FE14513058002A0
:10194000EF4020779306801C5146E1455145EF401A
:10195000407C9306C01D1306802F9305C01D130500
:101960008002EF40007B91461306802F91451305BE
:101970008002EF40007A9306801C1306C030E145D8
:101980001305C030EF40E0789306801C1306802FCB
:10199000E14513058002EF40E07F5146E145130524
:1019A0008002EF40D00251469305801C130580024F
:1019B000EF40F00151469305801C1305802FEF4046
:1019C00010015146E1451305802FEF405000B7D775
:1019D000000093874778130700029306000213065E
:1019E000000B930580021305A00FEF40E0656FE048
:1019F000DFB4EFE25FB22A84416519717D15EF20F3
:101A000090733167130787619306000F13068025D3
:101A1000930580071305800CEF40A06993076406C7
:101A20003E853EC6EF50901CB24713164500420655
:101A3000130700024182930600029305400B130531
:101A4000800CEF4060608346540637D600001306D2
:101A5000C677930540066808EF5090127C0813077C
:101A6000000293060002130600059305800C13057F
:101A7000800CEF40605D09616FE03FACEFE23FA793
:101A800003490500404111710145EF20D06A37DB61
:101A90000000B7D9000037DA0000B7DA0000A94724
:101AA00063E727016311091811616FE0DFA7930451
:101AB0001009930BF01E45C89306640613060B7AB3
:101AC000930500100A85EF50B00B0A85EF501012F5
:101AD0001316450042068A8713070002A685418235
:101AE0009306000213052003EF4000568346441975
:101AF0001386C97A930500100A85EF5070080A858D
:101B0000EF50D00E13164500420693074A7B130789
:101B10000002A6854182930600021305A00FEF4044
:101B2000A0529306C40C13868A7B930500100A8585
:101B3000EF5010050A85EF50700B13164500A6856F
:101B4000938434024206C20441828A87130700024A
:101B5000930600021305401FC180EF40E04E0324AE
:101B60008419E39A74F559191379F90F0DBFB384E9
:101B700049039306640613060C7A930500100A8540
:101B8000EF5010000A85EF5070061316450042060C
:101B90009384E406C204C1808A871307000241824D
:101BA00093060002A68513052003EF40E049834613
:101BB00044191386CA7A930500100A85EF50407CB9
:101BC0000A85EF50B00213164500420693074B7B7F
:101BD00013070002418293060002A6851305A00F99
:101BE000EF4080469306C40C13868B7B9305001050
:101BF0000A85EF50E0780A85EF50407F13164500C4
:101C0000420641828A871307000293060002A685D6
:101C10001305401F8509EF40204303248419E34541
:101C200039E931F451B5854937DC0000130A300237
:101C3000B7DA000037DB0000B7DB0000DDB7EFE20A
:101C40009F8D41657D15EF20104F31671307876128
:101C50009306000F13068025930580071305800C5B
:101C6000EF402045B7D7000093870779130700029C
:101C7000930600021306000D9305400B1305800C1C
:101C8000EF40803C0565130505FAEF100073EFF097
:101C90001F8B6FE09F8AB71702409843B706FFF883
:101CA00041111367170098C3D84337060200758F98
:101CB000D8C39843B706F7FEFD16758F98C39843AF
:101CC000B706FCFFFD16758F98C3D843B70681FF92
:101CD000FD16758FD8C39843B70600ECFD16758FB7
:101CE00098C33707FF0098C723A6070202C402C69D
:101CF0009843C166558F98C3B716024005679C424A
:101D0000F18F3EC6A24785073EC4B24781E7A2478E
:101D1000E397E7FEB71702409C431397E70063562B
:101D2000070685473EC632478547631EF704B71747
:101D30000240D843B706C1FFFD16D8C3D843D8C365
:101D4000D84313670740D8C3D843758FD8C3D84347
:101D5000C166558FD8C39843B7060001558F98C305
:101D6000984393166700E3DD06FED843B71602409A
:101D7000719BD8C3D84313672700D8C32147DC42DF
:101D8000B18BE39EE7FE4101828002C669BFB707BF
:101D900000209387C7249843636FA702D043B3867C
:101DA000C7006316D50054413E85B296D4C3504156
:101DB000B306C500631CD700B706002083A64623E0
:101DC0006306D70054431843B29654C118C1630345
:101DD000F50088C38280BA877DBFEFE22FF2411100
:101DE0002AC6EF10A02AB706002083A7462337068D
:101DF000002093864623130686233245A9EF371722
:101E00000020930747AE93F5F700130747AE81C54F
:101E10001387F700419BB70500209385C52423A2B3
:101E2000050098C189659385057FAE97C19B23A264
:101E3000070023A00700B385E7409CC21CC3B70777
:101E4000002023A0B724B707002023AEB722B7078E
:101E500000804CC31CC2032A0600B377AA0085E3A6
:101E60009307F5FF3957636CF7009307050113F7E4
:101E7000F70041C313F707FF410763EBE70681440F
:101E800089A022872E8461A058C15CC009375840C0
:101E9000B7060020938606249042B307E94023A0AA
:101EA000F90063F3C7009CC2B70700203367EA005C
:101EB0009387472458C09843C10423200400050792
:101EC00098C3EF10003993F7F400D1CBA167938743
:101ED00007807390073037E6000037E500001306EF
:101EE00086819305001113058585EF50803301A08D
:101EF000BA87370700200329C7239309C723E36064
:101F0000F9F8370700200324C7241307C7245040DB
:101F10006374F6000C40B5F59442E38286F61440F3
:101F2000044314C33307F64093060002E3F1E6F6D8
:101F30003305F4009376F500A1DAA1679387078053
:101F40007390073037E6000037E5000013068681FE
:101F50009305F00C13058585EF50A02C01A0268574
:101F600041016FE0EFDC5DC1EFE2EFDAB70700207F
:101F7000032745FF83A787232A84B376F7009DE2D2
:101F8000A167938707807390073037E6000037E535
:101F90000000130686819305401213058585EF50D6
:101FA000402801A0832605FF9DC2A1679387078073
:101FB0007390073037E6000037E50000130686818E
:101FC0009305501213058585EF50A02501A093C7F6
:101FD000F7FFF98F232AF5FEEF10400BB70700201B
:101FE0009387C7239443032744FF130504FF3697C1
:101FF00098C3EFF0DFD9B707002093878724984371
:10200000050798C3EF10E0246FE02FD38280828011
:10201000EFE26FD0411102C6F32750303EC6B247FF
:102020000D478D8B6384E702A167938707807390C8
:10203000073037E6000037E500001306C687930532
:10204000600B13058585EF50C01D01A0B707012067
:1020500093870700BD8B9DC3A1679387078073900B
:10206000073037E6000037E500001306C687930502
:10207000B00B13058585EF50C01A01A0493FB7E7A3
:1020800000E0056723A0E710116723A0E71023A253
:102090000180EFE0EFA6014541016FE00FCA731127
:1020A0000134A1679387078073900730B7F700E08A
:1020B00023A20700EF00307F11C5B7E700E01167EA
:1020C00023A0E720A1679387878873900730731157
:1020D000013473002030A167938707807390073025
:1020E000938741809843050798C382801387418076
:1020F0001C438DE7EFE22FC2A1679387078073909F
:10210000073037E6000037E500001306C687930561
:10211000201013058585EF50C01001A0FD171CC3CA
:1021200091E7A16793878788739007308280216544
:102130001305058073150530828073100530828089
:10214000930785007D575CC118C55CC51CC9232059
:10215000050082802328050082805C419847DCC10D
:1021600098C598474CC38CC71C4188C985071CC1BA
:1021700082809841FD5693078500631ED7001C4955
:10218000D843D8C10CC79CC5CCC31C4188C985079E
:102190001CC18280B687D4439042E37DC7FECDB791
:1021A000544118451C4998C654C3D4436393A600B0
:1021B000D8C39843232805007D1798C3884382809D
:1021C000EFE26FB541112AC639373245005D393F1C
:1021D0001335140041016FE04FB6EFE2CFB33289FF
:1021E0003041045D2A8409EE1C41014591E7084411
:1021F000EF10C06F23240400850404DC6FE0EFB30C
:10220000631009024841EF40E03E5C403840014520
:10221000BA9718445CC0E3E1E7FE1C405CC0E9BF2C
:102220004845EF40203D3C4058441440B307F0403F
:102230003E9758C46375D7001844BA975CC4894761
:102240000145E31BF9FACDD8FD147DB7304115C225
:10225000EFE26FAC58451445AA87329758C56364BE
:10226000D700184158C52E85CC47EF40A0386FE005
:10227000CFAC8280EFE22FAA2A84EFF0DFE583441F
:10228000540413094402E204E18463489002FD57B8
:10229000A302F404EFF09FE5EFF0FFE3834444046E
:1022A00013090401E204E18463459002FD5723020F
:1022B000F404EFF0BFE36FE04FA85C50E9DB4A8520
:1022C000EF10A03819C1EF100055FD14E204E184AD
:1022D0006DBF1C48E1DF4A85EF10203719C1EF10B0
:1022E0008053FD14E204E184C1B7EFE2CFA24111B3
:1022F0001DE1A167938707807390073037E60000E0
:1023000037E500001306068C93050011130585853B
:10231000EF40307101A05C5D2EC62A84BDC73841F4
:10232000B3B7E702BDE3EFF01FDB3040585C144069
:10233000232C0402B307E602B24554C03387F600EB
:10234000918FB6975CC4FD572302F40418C4A3020E
:10235000F4049DE11C4899CB13050401EF10E02E15
:1023600011C5B7E700E0116723A0E720EFF01FD801
:10237000054541016FE06F9C13050401EFF05FDC40
:1023800013054402EFF0DFDBD5B7A1679387078021
:102390007390073037E6000037E500001306068C1F
:1023A0009305501413058585EF40B06701A0EFE257
:1023B0008F96411121C5B3B7A502AA84A1E33305C5
:1023C000B5029307F0FA63EBA702130505053289FE
:1023D0002EC6EFF09FA02A8411CDB245AA8799C1DD
:1023E000930705052CC01CC044DC85452285F53DBE
:1023F00023062405228541016FE02F94A16793876E
:1024000007807390073037E6000037E500001306B9
:10241000068C9305601C13058585EF40906001A034
:10242000EFE2EF8C011132C61DE1A16793870780AF
:102430007390073037E6000037E500001306068C7E
:102440009305E03213058585EF40B05D01A02A8435
:102450002E89B6848DE53C419DC3A1679387078093
:102460007390073037E6000037E500001306068C4E
:102470009305F03213058585EF40B05A01A08947D6
:102480006398F402585C85476304F702A167938759
:1024900007807390073037E6000037E50000130629
:1024A000068C9305003313058585EF40905701A0F6
:1024B000EF10203715E5B247014C85C7A167938718
:1024C00007807390073037E6000037E500001306F9
:1024D000068C9305303313058585EF40905401A099
:1024E000014C094BFD59930B040137EA00E0916A56
:1024F000A5A8B24789E7EFF07FBF014555A0631556
:102500000C002808EF102023EFF05FBEEF0010381A
:10251000EFF07FBC83474404E207E187639437010F
:102520002302040483475404E207E18763943701DC
:10253000A3020404EFF09FBB6C002808EF100021F9
:1025400035EDEFF05FB9185C5C5C631EF704EFF0EB
:10255000FFB9B2455E85EF1060032285EFF09FD191
:10256000EF00304F29C9054CEFF0FFB6185C5C5CFA
:102570006364F700E39F64F72686CA852285EFF03F
:10258000DFC55C5089C713054402EF10000C11C56C
:10259000B7E700E0116723A0E720EFF03FB505455E
:1025A00005616FD05FF8EFF07FB42285EFF09FCC2C
:1025B000EF00304A4DBF23205A2175B72285EFF036
:1025C0007FCBEF00104915BFEFD25FF341111DE142
:1025D000A167938707807390073037E6000037E5DF
:1025E00000001306068C9305204013058585EF40F7
:1025F000504301A02A84B2898DE53C419DC3A16767
:10260000938707807390073037E6000037E50000B6
:102610001306068C9305304013058585EF40704006
:1026200001A089476398F602585C85476304F70266
:10263000A167938707807390073037E6000037E57E
:1026400000001306068C9305404013058585EF4076
:10265000503D01A036C62EC4EFF07FAD185C5C5C27
:102660002A8AA245B2466366F7008947814463938C
:10267000F602834454041C5C368622851399840137
:10268000EFF0BFB513598941FD576317F9025C504C
:1026900089EB85445285EFF05FAA268541016FD012
:1026A0003FE913054402EF00507A65D5E38309FE44
:1026B000854723A0F900F1BF9307F0076314F902DF
:1026C000A167938707807390073037E6000037E5EE
:1026D00000001306068C9305D04813058585EF404E
:1026E000503401A08504E204E184A302940455B7A8
:1026F000EFD2FFDF011132C61DE1A167938707808A
:102700007390073037E6000037E500001306068CAB
:102710009305105513058585EF40B03001A02A843C
:10272000AE898DE53C419DC3A16793870780739077
:10273000073037E6000037E500001306068C9305E6
:10274000505513058585EF40D02D01A0EF10600D89
:1027500015E5B247014985C7A16793870780739044
:10276000073037E6000037E500001306068C9305B6
:10277000A05513058585EF40D02A01A001497D5A57
:10278000930A440237EB00E0916B95A8B24789E7C2
:10279000EFF0DF95014569A8631509002808EF00EF
:1027A0009079EFF0BF94EF00700EEFF0DF92834767
:1027B0004404E207E187639447012302040483474A
:1027C0005404E207E18763944701A3020404EFF095
:1027D000FF916C002808EF00707725E52285EFF067
:1027E0003F9E31C9B2455685EF00505A2285EFF021
:1027F0007FA8EF00102619E123207B210549EFF087
:102800009F8D045CC1D4CE852285FD14EFF01FA4FA
:1028100004DC1C4899CB13050401EF00106311C5BB
:10282000B7E700E0116723A0E720EFF03F8C0545F4
:1028300005616FD05FCF2285EFF0DFA3EF0070213D
:1028400075BF2285EFF01FA3EF00B0202285EFF0C7
:102850003F974DD581B7EFD27FCA01112EC61DE13A
:10286000A167938707807390073037E6000037E54C
:1028700000001306068C9305305E13058585EF4036
:10288000501A01A03C412A849DC3A1679387078009
:102890007390073037E6000037E500001306068C1A
:1028A0009305705E13058585EF40B01701A0EF001A
:1028B00050770DE5B2479DC3A1679387078073905A
:1028C000073037E6000037E500001306068C930555
:1028D000C05E13058585EF40D01401A081440149F5
:1028E000FD59130A4402B7EA00E0116B75A0B24724
:1028F0009DE79DC0A167938707807390073037E6F7
:10290000000037E500001306068C930520631305CD
:102910008585EF40101101A0EFF04FFD45A863152C
:1029200009002808EF003061EFF04FFCEF0000765F
:10293000EFF06FFA83474404E207E18763943701BD
:102940002302040483475404E207E18763943701B8
:10295000A3020404EFF08FF96C002808EF00105F69
:1029600041E12285EFF0DF8535C51C4089EBEFF0B2
:102970008FF60844EF00B06CAA84EFF02FF7B24551
:102980005285EF00B0402285EFF0DF8EEF00700C33
:1029900019E123A06A210549EFF0EFF31C5CA1DBEC
:1029A000FD171CDC1C4081E7EF10400F08C41C48D9
:1029B00099CB13050401EF00504911C5B7E700E0BA
:1029C000116723A0E720EFF06FF2854426850561AB
:1029D0006FD01FB62285EFF0FF89EF00900765BF2B
:1029E0002285EFF03F89EF00D0062285EFF04FFD02
:1029F0005DD1E9DCEFF02FEE5C50814589C71C58B2
:102A0000BD459C439D8D08448144EF00D07AEFF092
:102A1000EFED6DBF15E5EFD21FB0A167938707807B
:102A20007390073037E60000856537E50000130630
:102A3000068C938585AC13058585EF40807E01A0CB
:102A40009DCD373600209306462E81470147130659
:102A5000462E214883A846006398A80093173700A4
:102A6000B2978CC3C8C321A891E783A806006393DB
:102A70000800B6870507A106E31E07FDFDF3828067
:102A8000EFD27FA941112A842EC632C4EFF0AFE401
:102A9000834744047D572246E207E187B2456394A9
:102AA000E70023020404834754047D57E207E187CB
:102AB0006394E700A302040432C62EC4EFF00FE3D0
:102AC0001C5CA245324689E713054402EF009030B2
:102AD0002285EFF02FFA41016FD03FA63707002083
:102AE000130787251C439443B70700209387872744
:102AF00081E67D5798C38280184358471843DDBF4D
:102B00000DE5EFD25FA1A16793870780739007302F
:102B100037E6000037E500001306068F9305707254
:102B200013058585EF40E06F01A054493737002039
:102B30001307C748AA870145639BE6009857B73734
:102B40000020938787476304F700133517008280BE
:102B5000EFD2DF9A37090020B707002093044925F8
:102B600083A987282A849C4088404111A38C0704AC
:102B700011052EC6EFF0CFE27D5793074925B245E8
:102B8000631CE40295C9B73700209387C748944077
:102B9000D84398C610479440D0C694401047910639
:102BA00054C29440910614C798405CCB98430507E3
:102BB00098C341016FD0DF9798434E9440C3637B25
:102BC0003401370700200325C7258C439105EFF01A
:102BD0004FDAC5B737070020032587258C439105B9
:102BE000EFF02FD9B7070020938787279843E37228
:102BF000E4FC80C37DBFEFD27F9037340020B7095B
:102C000000201304044A370A0020B73A00209384B6
:102C100049269C4089EF93874A3298438547E3F8D9
:102C2000E7FEB7E700E0116723A0E720CDB7EFF09C
:102C30008FCA5C4403A9C70013054900EFF04FD6C3
:102C400013070A261C43FD171CC39C40FD179CC09C
:102C5000EFF0CFC903250903EFF0EFB04A85EFF09D
:102C60008FB075B7EFD2BF88931426002A8B2685C4
:102C70002E8AB68B3A89BE8AEFF02F9605CDAA89A7
:102C80001305C005EFF06F952A8415C1232835037D
:102C900026864E859305500AEFD0FF8A8147832907
:102CA0000403C146631A0A00230A040225A04E85C4
:102CB000EFF06FAB7D5575A23307FA0003070700ED
:102CC0003306F400230AE60201C78507E396D7FE20
:102CD000A3010404B94763F42703A167938707801E
:102CE0007390073037E6000037E500001306068FC3
:102CF0009305703913058585EF40A05201A0130A92
:102D00004400232624032326240552852328040473
:102D1000EFF04FC413058401EFF0CFC3BD47F114AA
:102D200033892741CE9400C8232C240140D0230AA4
:102D30000404A30A0404230B0404A30B0404230CBB
:102D40000404A30C04045E86DA8513F504FFEFD0B7
:102D50002FEB08C063840A0023A08A00EFF0AFB70E
:102D6000B7070020938707269843B7040020B73998
:102D70000020050798C313874425184393844425EE
:102D8000138949326311070E80C098438547631643
:102D9000F70693894932930AC9124E85D109EFF09B
:102DA0002FBAE39C3AFF37350020930A05451305F7
:102DB0000545EFF0EFB83735002093094546130578
:102DC0004546EFF0EFB73735002013058547EFF0A4
:102DD0002FB7373500201305054AEFF06FB63735AA
:102DE00000201305C548EFF0AFB5B707002023ACAE
:102DF0005725B707002023AE3725370700201307D4
:102E0000C7261C4385071CC3370700201307072765
:102E10007CC014435C5463F3F6001CC35147B38772
:102E2000E702CA97D843144718C454C4144723A2CE
:102E300046012324470198435CC8050798C3EFF077
:102E4000EFAAB707002083A74728054599CB9C40E8
:102E5000D8575C546377F700B7E700E0116723A009
:102E6000E7206FD04FECB707002083A74728D1F7A2
:102E70009C40D8575C54E3E2E7F880C0BDBFEFD276
:102E80008FE92A84B7040020EFF0EFA4938444254F
:102E900011E08040130944004A85EFF06FB01C54E4
:102EA00089C713058401EFF0AFAFB7070020938700
:102EB000C7269843050798C39C40639A8706373511
:102EC0000020CA851305054AEFF02FA9B707002097
:102ED000938747269843050798C3EFF02FA19C409E
:102EE000638887000858EFF00F882285EFF0AF87DE
:102EF000B707002083A74728B1CB9C40639887047D
:102F0000B707002083A787268DCFA1679387078007
:102F10007390073037E6000037E500001306068F90
:102F20009305C04D13058585EF40A02F01A0B7077D
:102F300000209387072698437D1798C3EFF01FBAA8
:102F400069BFB7E700E0116723A0E7206FD0EFDE8D
:102F5000EFD26FDC1DE1A167938707807390073084
:102F600037E6000037E500001306068F930510755D
:102F700013058585EF40E02A01A0B7040020938760
:102F800044259C432A84938444256386A706EFF056
:102F90008F942285EFF0DFB629CD130944004A85CE
:102FA000EFF00FA0B70700209387072758549443EA
:102FB00063F3E60098C3D147B306F702B7370020A2
:102FC00093874732B697D443904614C450C4904672
:102FD0002322260123A4260194435CC8850694C3BA
:102FE0009C40DC576367F700B7E700E0116723A058
:102FF000E720EFF0AF8F6FD04FD4EFD2CFD1B7072C
:103000000020B7E5000037350000938747270147C8
:1030100081461306000893850592130565BFEFF0FE
:103020007FC40544631E8502EF005057631A850272
:10303000A1679387078073900730B70700207D57FB
:1030400023ACE726B707002023A2A728B707002054
:1030500023A40728EFE0DFFB83A781806FD0EFCDAB
:10306000FD57E31BF5FEA167938707807390073038
:1030700037E60000856537E500001306068F938567
:10308000058413058585EF40C01901A0B70700200E
:10309000938787269843050798C38280B707002047
:1030A00003A587288280B707002083A78726639916
:1030B0000718EFD24FC6B7070020938787288043B1
:1030C000050480C321ECB707002093878725984328
:1030D000184305C7A167938707807390073037E6C9
:1030E0000000856537E500001306068F938575ACF3
:1030F00013058585EF40E01201A037070020130774
:10310000C7259443104390C3B707002014C3938787
:10311000C7279843050798C3EFF05F9C3706002048
:10312000930786279C4337370020B70500201306F6
:103130008627130747329385452501456375F402B9
:103140009C41D146DC57B387D7023E971843854749
:1031500063F3E7000545B707002083A7C72891C39D
:1031600005456FD08FBD370E0020B70E0020514FA0
:1031700093078E259443944281E6FD571CC2C9B73C
:103180009C43DC47DC47D4436374D40014C24DBF76
:1031900083A8870003A8C700D44B1383470023A448
:1031A00008012322180183A846006394680023A223
:1031B000060103A8060023AA07007D1823A0060124
:1031C000945795CA03A8C70183A8070283AF460096
:1031D0002324180183A8070223A20801138887016A
:1031E00063940F0123A2160103A8060023A407027B
:1031F0007D1823A0060193860E2703A8C70283A883
:10320000060063F4080123A00601B306E803BA969A
:1032100083A8460083AF880023A4170123A6F701E3
:1032200083AF880023A26F0023A46800D4CB9C4204
:1032300085079CC29C41DC57E36CF8F205450DBF45
:10324000B70700209387072898430145050798C3CF
:103250008280EFD2AFAA37040020130484261C40DA
:10326000411185E7A167938707807390073037E6A0
:103270000000856537E500001306068F9385358BC2
:1032800013058585EF30F07901A0EFE0DFE41C4005
:10329000FD171CC01C4089CB01452AC6EFE01FE585
:1032A000324541016FD0CFA8B707002083A707267A
:1032B000E5D7B7360020373500208147938686470B
:1032C000370F002013054532D14837030020370E51
:1032D0000020854E59A8DC46DC47CC4F90539857C8
:1032E00090C503A807022322B8000328470093854E
:1032F00087016313B80050C3104323A407027D164F
:1033000010C38C47D047D84B1388470090C54CC298
:103310004C436393050150C3104323AA07007D1655
:1033200010C313070F27D0570C4363F3C50010C316
:10333000330716032A974C4383AF85008CC723A617
:10334000F70183AF850023A20F0123A405010C43DD
:10335000D8CB85050CC3130743251843585763661C
:10336000E6001307CE282320D70198422DF799C3F2
:10337000EFF0CFF6B7070020138707280443138424
:10338000072899CC370900208549EFF0DFD109C51E
:103390009307C92823A03701FD14E5F82320040072
:1033A000B707002083A7C728E38807EEB7E700E048
:1033B000116723A0E7200545CDB519E5B7E700E083
:1033C000116723A0E7208280EFD2EF94B707002097
:1033D00083A7872641119DC3A167938707807390B8
:1033E000073037E6000037E500001306068F930527
:1033F000905413058585EF30D06201A02AC6EFF006
:10340000FFC832458145EFF0AFF4EFF09FE411E5DE
:10341000B7E700E0116723A0E72041016FD0EF91EB
:10342000B707002003A78726B70700209387C72880
:1034300001C7054798C3828023A00700B707002073
:1034400013870727184313860727B737002093876A
:1034500047325148B3060703B385D700884115C5E5
:10346000C841A106BE964841C8C16314D500544165
:10347000D4C1D146B306D702B697DC43D447B707C9
:10348000002023AAD72418C2828015E7EFD2AF8884
:10349000A167938707807390073037E60000856542
:1034A00037E500001306068F938525C01305858533
:1034B000EF30305701A07D1771BFEFD22F842A84DF
:1034C00037090020EFE03FC11309492519E0032423
:1034D0000900930944004E85EFE09FCC1C5489C736
:1034E00013058401EFE0DFCBB7340020CE851385D0
:1034F000C448EFE09FC68347840505476314F7007F
:10350000230C0404EFE09FBEB70700201387472871
:1035100018439389472819C7EFE0FFBBEFF00FDC92
:10352000EFE0DFBC832709006391870483A70900CC
:103530009DCFB707002083A787269DC3A1679387E8
:1035400007807390073037E6000037E50000130668
:10355000068F9305D06F13058585EF30904C01A041
:10356000B7E700E0116723A0E7206FC07FFC9384DA
:10357000C448B7070020984083A707266315F700C3
:1035800023200900DDB7EFF0BFE9C5B7EFC2BFF8F0
:1035900005E5A167938707807390073037E6000041
:1035A000856537E500001306068F9385C5C11305B1
:1035B0008585EF30104701A0B70700202E8483A532
:1035C0004725E105EFE0FFBA85452285EFF04FD8AA
:1035D0006FC0BFF6EFC23FF42A8705E5A167938766
:1035E00007807390073037E60000856537E50000F7
:1035F0001306068F938525C513058585EF30704228
:1036000001A0B70700209387472554432E858C439C
:1036100003A88600D4CD8C4323A0050303A807008C
:103620008C46610823A2050103A807009C4361089A
:1036300023A4060198D71C4385071CC311C27D55DE
:10364000B285EFF0EFD06FC05FEF5C45DC4795E7E8
:10365000EFC27FECA167938707807390073037E64E
:103660000000856537E500001306068F938525C8A1
:1036700013058585EF30F03A01A0D04F9453985749
:103680009385870114C6D0C250436313B60054C358
:10369000144323A40702FD1614C337070020032791
:1036A0008726D45725EF8C47D047D84B90C5D047B5
:1036B00048434CC2938547006313B50050C3104381
:1036C00023AA07007D1610C337070020130707271A
:1036D00010436373D60014C351473386E60237376D
:1036E00000201307473232975043084690C7C8C797
:1036F00008464CC10CC6D8CB1C43014585071CC3EA
:10370000B707002083A74725DC5763F8D700B70722
:103710000020054723A6E72805458280373700208B
:103720001307874750430846D0CF88D308464CC17B
:103730000CC698D7D1B7B707002083A7C7271CC1ED
:10374000B707002083A787285CC18280EFC2BFDC57
:10375000411105E5A167938707807390073037E62D
:103760000000856537E500001306068F9385D5CFE9
:1037700013058585EF30F02A01A085E5A1679387C1
:1037800007807390073037E60000856537E5000055
:103790001306068F9385E5CF13058585EF307028D6
:1037A00001A02EC62AC4EFE01F9337070020B707F9
:1037B00000201307472583A687281C432245B245CE
:1037C00083C7970599CB1C43A38C07040544EFE0FE
:1037D000FF91228541016FC05FD69C417D57014416
:1037E000E387E7FE370600200326C62703280500E7
:1037F00058416307C80063E5E60023A00500F9B758
:103800003386E640E37BF6FE958FBA979CC1EFF0D6
:103810009FF201446DBFB7070020054723A6E728A4
:103820008280B707002083A74728054581CBB707CB
:10383000002003A5872613351500060582804DC597
:10384000EFC2DFCB37090020930749259443585531
:1038500013094925D4566373D7081C4D63C8070064
:1038600083270900D457BD47958F1CCD5146330798
:10387000C702B73700209386473293844732369782
:1038800054496398E604930945002A844E85EFE085
:103890003F91832709003707002013070727DC57CC
:1038A00014435CD463F3F6001CC35147B387E702AB
:1038B000A697D843144718C454C4144723A236010A
:1038C0002324370198435CC8050798C305456FC09A
:1038D0003FC683270900DC575CD5CDBF9C436845B4
:1038E000DC573335F500E5B70145828011E5014528
:1038F000828001456FC07FC4EFC2FFC1B7070020BF
:1039000083A747252A846385A702A1679387078039
:103910007390073037E60000856537E50000130631
:10392000068F9385F50413058585EF30900F01A070
:10393000BC4B85E7A167938707807390073037E614
:103940000000856537E500001306068F93850505A1
:1039500013058585EF30F00C01A054557845FD170F
:103960003CC9E388E6F8D1F7930445002685EFE0EB
:103970003F837C443D471D8F18CC37070020130739
:10398000072714435CD463F3F6001CC35147338705
:10399000E702B7370020938747320545BA97D843E7
:1039A000144718C454C41447C4C204C798435CC81D
:1039B000050798C381B775C1EFC2FFB534492A84A2
:1039C00085E6A167938707807390073037E600008C
:1039D000856537E500001306068F9385F509130505
:1039E0008585EF30100401A07C4563F3B700AE87F6
:1039F00058546302F70A0546639FC608B7060020BD
:103A000083A6462563958602A167938707807390F6
:103A1000073037E60000856537E500001306068F9E
:103A20009385A50B13058585EF30A07F01A0144C6D
:103A30005CD463C60600BD46B387F6401CCC514635
:103A40003307C702B7370020938647329384473243
:103A5000369754486391E604130944004A85EFE021
:103A60002FF437070020130707275C54144363F330
:103A7000F6001CC35147B387E702A697D843144703
:103A800018C454C4144723A22601232427019843B1
:103A90005CC8050798C36FC05FAA8280B707002083
:103AA0001387472518439387472509C79443B84A86
:103AB0000507B8CA88438280EFC2FFA537040020FB
:103AC000EFE06FE11304C4291C40B1E73735002053
:103AD0001309454B1305454BEFE08FE637350020C2
:103AE0009304854C1305854CEFE08FE5B707002064
:103AF00023A827290146B7070020C145154523AA59
:103B00009728EFE0DF8A08C019C5B7E50000938564
:103B1000C594EFE03FF0EFE06FDD6FC01FA2EFC292
:103B20009F9F4CC108C9AA876362B602184D158EC3
:103B30000545637BE60093854700B707002003A592
:103B40004729EFE00FE301456FC03F9F6375D60043
:103B50000545E3FBD5FE93854700B707002003A585
:103B60000729C5B7EFC23F9B2A84AE8432890C4C2B
:103B7000A6864A86A6952285EFF07FFA19E16FC0E6
:103B8000DF9B1C4C2285BE941C508297CDB7EFC2A0
:103B90009F98B707002083A707294111AA84DC4713
:103BA0002EC6C04713054400EFE08FDF8347840231
:103BB000324613F7470019CBA6852285EFF09FFA0E
:103BC0001C502285829741016FC03F97F99B2304C7
:103BD000F402FDB7EFC23F94370400209306042996
:103BE00098421C4391EBB7070020938747299043E5
:103BF00098C390C26FC07F945C47FD558843EFF037
:103C00001FF9E9BFEFC2BF8E39694111B70A002021
:103C1000B7090020370B0020B70B00201309899249
:103C200083A70A29984329CBDC47814C03AC0700C2
:103C3000EFF0CFC5EFF08FC683A789292A8493843C
:103C40008929130ACB29636CF50288C063800C04B0
:103C500083A74B2990431336160003250A00B305AA
:103C60008C40EFE0FFE1EFF0CFDE19EDB7E700E0C9
:103C7000116723A0E72009A8854C014C55BFEFF040
:103C80007FF580C0EFF0EFDC214C0DA00146E3662C
:103C900085FDEFF00FDCA2856285EFF05FEFEDB7F9
:103CA0009247B2458297824763DD070003250A00E9
:103CB00001468A85EFE0DFA325D582472245E3C18F
:103CC00007FE22445C489DE3EFF04FBD9C40AA8C68
:103CD0006374F500EFF01FF0824723A09401FD17F5
:103CE000E366FCFC8A07CA979C438287130544005D
:103CF000EFE00FCBD1BF834784020C4C924693E791
:103D000017002304F4026686B6952285EFF03FE1A2
:103D100051DD8347840213F7470001CF1C4C9245C5
:103D200066862285BE95EFF0FFE31C5022858297C0
:103D3000B5BFF99B2304F402CDBF83478402F99BEE
:103D40002304F402A5B783478402924593E7170042
:103D50002304F4020CCC9DE1A16793870780739044
:103D6000073037E6000037E5000013064695930557
:103D7000903513058585EF30C04A01A0E68666863A
:103D8000E6952285EFF0BFD915B78347840213F774
:103D9000270055F72285EFE00F9D09BFEFC2AFF76F
:103DA000EFF09FD1B707002083A7C7299DE3A16744
:103DB000938707807390073037E6000037E50000EF
:103DC000130646959305901113058585EF306045E0
:103DD00001A0B7070020B7E5000037450000938732
:103DE000072A394781461306001093854598130525
:103DF00045C0EFE03FE745DD6FC02FF4EFC20FF0A5
:103E00005D7185451145EF00A07C854537050200B1
:103E1000EF00E07D85451165EF00807B37140140A0
:103E2000930700208D4961492C0813050480FC8408
:103E30004ECE4AD0A5299307004091442C08130583
:103E40000480FC8426D09D214C101305048023128D
:103E500091024ED44AD69929A1474C1013050480EB
:103E60002312F10226D671649121B7440040130455
:103E7000042037090C008C0013850440A2C0CAC47A
:103E800082C223160104EF00607822D83744014033
:103E90000C18130504804ADC02DA231E0102EF002D
:103EA000E0769307501305497C84280085475C859C
:103EB0004AC6C521930760130808FC802309210125
:103EC0004ACAC12913050480054693055052EF00E4
:103ED000100105461385044093055052EF00300051
:103EE000130504808545EF00207E85451385044039
:103EF000EF00807D61616FC0AFE3EFC22FE0B74498
:103F00000040AE8932890144938404406345240112
:103F10004A856FC0EFE1930500042685EF0090000D
:103F20007DD9B38789008385070026850504C205EE
:103F3000C181EF00207ED9BF011122CE374401405C
:103F4000930550521305048002C6EF00407E0DCD4C
:103F50009305505213050480EF00300113050480CF
:103F6000EF00C07BB7070020C88503A5C72B81469B
:103F700070009305B100EFE02FE5B24791C7B7E7B6
:103F800000E0116723A0E720724405617300203030
:103F9000011122CE374400409305505213050440CE
:103FA00002C671271DC99305505213050440752F91
:103FB00013050440A527B7070020C88503A5072CD3
:103FC000814670009305B100EFE00FE0B24791C762
:103FD000B7E700E0116723A0E72072440561730092
:103FE0002030B70700202396A72C4157B7E700E001
:103FF0002387E7402386E740B7F700E023A00700C8
:1040000023A20700814694C70147D8C7370700207D
:104010008325071E1307803E814633D6E5027D4780
:1040200090CBD4CB98C38280B7F600E0984ADC4AA4
:1040300037F800E0B707002083D7C72CBA85984629
:104040003385A702DC468147032688008326C80003
:10405000E30CC7FEBA976377E600918F3287E3E5FA
:10406000A7FE8280AE97D5BFEFC2EFCAAA840144F3
:10407000636494006FC06FCC1305803EEFF0DFFAED
:104080000504FDB701A001A001A001A001A001A0AD
:1040900001A001A001A001A001A001A001A001A018
:1040A00001A001A001A001A001A001A001A001A008
:1040B00001A001A001A001A001A001A001A001A0F8
:1040C00001A001A001A001A001A001A001A001A0E8
:1040D00001A001A001A001A001A001A001A001A0D8
:1040E00001A001A001A001A001A001A001A001A0C8
:1040F00001A001A001A001A001A001A001A001A0B8
:1041000001A001A001A001A001A001A001A001A0A7
:1041100001A001A001A001A001A001A001A001A097
:1041200001A001A001A001A001A001A001A001A087
:1041300001A001A001A001A001A001A001A001A077
:1041400001A097D1FF1F9381E18917C100201301BE
:1041500061EB17D500001305A5D097C5FF1F938508
:1041600065EA1386018263FAC5008322050023A055
:10417000550011059105E3EAC5FE17C5FF1F13059C
:10418000650897F5FF1F9385E5386377B500232011
:1041900005001105E36DB5FEFD42739002BCFD42C2
:1041A00073904280B78200009382028073A0023035
:1041B00097C2FFFF938282E893E2320073905230FD
:1041C000EFD07FAD97D2FFFF93820233739012340A
:1041D0007300203014455C4158450328C502D58F33
:1041E000D98F1849370600A0D98F5849D98F184D53
:1041F000D98F584DD98F1851D98F5851D98F1855FB
:10420000D98F1859B3E70701D98F18410A073A9691
:104210001CC2A1476396F6001C4293E707041CC228
:1042200054598C4E9C42CD8FCC429205CD8F8C46FA
:10423000A205CD8FCC46C205CD8F8C4AD44AD2057B
:10424000CD8FE206D58F5CC291676319F802145DC9
:10425000904E9C42D18FD0421206D18F90462206BA
:10426000D18F904AD44A5206E206D18FD58FB70635
:1042700000A09386461036971CC38280B70700A023
:10428000938747103E97B7070010FD17F5B7B7079C
:1042900000A00A053E951C4189C593E717001CC183
:1042A0008280370710007917F98FD5BF9C4513F727
:1042B000070113F8F70001C7D8413368E8008E21E1
:1042C00013F7F50F39C318418146854E3D4F930FC3
:1042D000800293028004214E3396DE00B3F8C500BD
:1042E000631116039398260033131F011343F3FF42
:1042F0003377E300B318180133E7E800639FF7054D
:1043000050C98506E39AC6FD18C11307F00F6375FF
:10431000B70454412146854E3D4F930F80029302CE
:104320008004414EB398CE0033F715016392E80242
:104330001317260001173313EF001343F3FFB3766F
:10434000D3003317E800D98E639DF701232A1501A6
:104350000506E319C6FD54C18280E39457FA10C9DB
:104360004DB7E39757FE23281501DDB708456D8D3E
:104370003335A00082800CC982804CC9828019C26A
:104380000CC982804CC98280B707002023A8A72CC3
:104390008280B70700209387072D9443182181E678
:1043A0003C21920721A894430546639FC6023C2105
:1043B000103192076314D60093E707F8B7E600E0E0
:1043C00093F7F70FBA962380F64085469357570028
:1043D0003397E6005441A5C2938707048A07B7E6DE
:1043E00000E0B69798C382808C4389466391D502DA
:1043F00014313C216365D6008A06B6975DB7938673
:10440000E6038A06B69793F7F70F920775B79043BE
:104410008D46631CD60014313C216364D6008606A9
:10442000E9BF9386C6078606F1BF94439147E39E92
:10443000F6F81C31BDB7938707064DB73717024012
:104440005C439146B18B6385D700A1466382D70652
:10445000B7177A00938707201CC1371602405C42C9
:1044600037070020130707009183BD8BBA97942369
:104470001C41B3D7D7005CC15442A1829D8ABA9631
:104480009422B3D6D70014C55442AD829D8A369784
:104490001823B3D7E7005CC55842398393763700B9
:1044A0001387C18036971823B3D7E7021CC98280CF
:1044B0005C435843C166C983758FB7F6FF1F83A657
:1044C000C670BD8B89071396160163480600C54662
:1044D00001466392D702C94739A88946638FD7023C
:1044E000BD46638ED702C146638ED702C5460146DC
:1044F0006393D700C1471DEF37470240032707806A
:10450000418B05C737177A0013070720B307F70257
:104510001CC121D61C41858381B701466DBF05466C
:10452000B547D1BF0146BD47F9B737173D0013075F
:104530000790E9BFB7150240D8559316F700D85534
:1045400063DF060411833D8B9306170037177A004B
:10455000130707203357D70218C1D455A182BD8A4B
:104560008DE295463307D702058318C137170240FD
:10457000585714413D8B050733D7E60218C118413F
:1045800071B785456394B600E546E9BFBD456396BE
:10459000B600D1463387E602C9BF8906E5BF3D8B29
:1045A0009306170037177A00130707203357D702EF
:1045B000F1B799C5371702405C4B5D8D48CB8280BF
:1045C000B7170240D84B1345F5FF798DC8CB8280D1
:1045D00099C5371702401C4F5D8D08CF8280B717F1
:1045E0000240984F1345F5FF798D88CF828099C599
:1045F000371702405C4F5D8D48CF8280B71702406D
:10460000D84F1345F5FF798DC8CF8280EFB2BFF048
:104610001629F577FD17F58FF621DA257971D58FF3
:104620001EA95625FD779387379FF58FD6212A84BB
:104630002EC6D58F9625D58FB625D58F5EA55E293A
:10464000C207C18393F7F7CFD98F5EA96808EFF04F
:10465000FFDEB747014093870780B245631AF40431
:10466000A25756246547B387E702C206C186984120
:1046700063D20604060752244206B3D7E7021307A3
:1046800040064186B3D6E702B3F7E70292066355C8
:1046900006028E0793872703B3D7E70213F7770045
:1046A000B367D700C207C1831EA445616FB0FFE89E
:1046B000925745BF0A07C1B7920793872703B3D71D
:1046C000E702BD8BD58FF9BF91C55E250967D98FEC
:1046D0005EA582805A25F977FD17F98FD5BF13F7AC
:1046E000F50F85471583B395B7006319F700930756
:1046F000C500984301CED98D8CC38280894693072B
:104700004501E318D7FE93070501E5B793C5F5FF0B
:10471000F98DDDB793F5F51F4EA182804A211375FF
:10472000F51F82800A216D8D3335A000828013F73A
:10473000F50F85461583B397B6006311D7025A2546
:10474000F98F1A2101454207418381CB0545A1819B
:10475000B315B5006D8F3335E00082808946631450
:10476000D7001A29F1BF5A29E1BFA1818547B39724
:10477000B70093C7F7FFC207C1831EA18280EFB2C3
:104780009FD941118545114502C202C402C6EFF00E
:104790003FE4E177371401407C82C1473EC64C00BC
:1047A0008D47130504803EC4EFF05FB0A16513058B
:1047B0000480EFF05FBC41016FB03FD8B7070460E1
:1047C000F917BE234111C207C1837C8728874101A5
:1047D0008280EFB25FD4B7070460239FA7FE154520
:1047E000EFF09F84EFF09FFD6FB03FD5B73700200B
:1047F00003D74750B7070460239FE7FE8280373610
:1048000000201306C64F3E26370704601358850064
:10481000231FF7FE8507C20723100701C183231F4B
:10482000F7FE1375F50F0AA35E2613D6850093F5E0
:10483000F50F231FF7FE8507C20712A3C183231FAD
:10484000F7FE0EA38280373500208D65B707046020
:104850001305C54F9385056012213621239FB7FEAE
:10486000930580068EA32E257D164206138815001B
:10487000239FB7FE42082390070013580801239F87
:1048800007FF138825004208239007004182135830
:1048900008018D05239F07FFC2051358860023904A
:1048A0000701C181239FB7FE1376F60F92A352250D
:1048B000FD16C20693051600239FC7FEC20523906E
:1048C0000700C181239FB7FE93052600C2052390F0
:1048D0000700C182C1810D06239FB7FE420693D512
:1048E00086008EA34182239FC7FE93F6F60F96A300
:1048F0008280EFB25FC2B73700209387C74F0DE5C4
:1049000037072003238307001307071E98C3373791
:10491000002A130707C098C70D67130707B0DAA767
:10492000EFF07FF26FB07FC10547F8A33707E001D2
:1049300013070732E1BFEFB21FBEB73700209387DE
:10494000C74F9A23A2238145AA8401453304E40278
:10495000EFF0FFEAEFF09FE98147370704606394C7
:1049600087006FB09FBD06A38507D5BFEFB2BFB765
:104970001971854513050010EFF0BFC38545130578
:104980008006EFF0FFC4B71401400D449167414A1F
:10499000138504C08A857C8022C252C4F179EFF06D
:1049A000FF90E14A93873973138504408A857C80A0
:1049B00056C422C2EFF09F8F37250140930700F8BD
:1049C0008A85130505807C8056C422C2EFF01F8EB5
:1049D0001385044005698A852310210156C422C22B
:1049E000EFF0DF8C13850440130909808A852310BA
:1049F000210122C2056952C4EFF05F8B9305098043
:104A000013850440EFF07F97BD473ECA9167BED83B
:104A10007C00BEDCC8003C10054BBEDE22D8CAD4E8
:104A20005AC602C802CC02D202D402D602DA02DC92
:104A300002DE82C082C282C482C6D2C882CA82CE4C
:104A400082CC82D082D282D682DAEFF0AFF885456E
:104A50000145EFF0DF8313052003EFF0EFE0B734FB
:104A6000002001451389C44FEFF0BFD62312A900DF
:104A700037040460930A300D231F54FFEFF01FD456
:104A80002312A900EFF09FD32312A900EFF01FD348
:104A900022052312A900EFF07FD2835749009384A7
:104AA000C44F5D8D2312A900231F54FFEFF01FD1C7
:104AB0002312A900EFF09FD02312A900EFF01FD01E
:104AC00022052312A900EFF07FCF835749005D8DA7
:104AD00042054181A5672312A90093871734631407
:104AE000F5006F10402E9147231FF4FEEFF01FCD0D
:104AF000CAA0EFF0BFCCCAA0EFF05FCC2205CAA0DD
:104B0000EFF0DFCBDE205D8D42054181A167CAA0B9
:104B1000938727556318F5009D6793879778DEA0E4
:104B20006F10602A9D6B93879B786314F5006F105C
:104B300080299307400D231FF4FEEFF03FC8CAA061
:104B4000EFF0DFC7CAA0EFF07FC72205CAA0EFF0E1
:104B5000FFC6DE2015695D8D42054181CAA093071D
:104B600009316314F5006F100026231F54FFEFF086
:104B7000FFC4CAA0EFF09FC4CAA0EFF03FC4220553
:104B8000CAA0EFF0BFC3DE20938B6B795D8D420529
:104B90004181CAA0631475016F10E022FD77231FC5
:104BA000F4FE130AE4FF130750052311EA001387EC
:104BB0001700231FE4FE1307A00A2311EA0013873E
:104BC0002700231FE4FE130720052311EA001387A3
:104BD0003700231FE4FE21472311EA009107231F1A
:104BE000F4FE23116A0193870950231FF4FEEFF0AE
:104BF000FFBC2205CAA093891950231F34FFEFF090
:104C0000FFBBDE20930909515D8DCAA01545EFF069
:104C1000AFC5DE20638437016F1040213704046084
:104C20007D789307E4FF231F04FF930E5005239123
:104C3000D70113071800231FE4FE1307A00ABAA325
:104C400093062800231FD4FE93062005B6A313065F
:104C50003800231FC4FE214E2391C70113064800CC
:104C6000231FC4FE0546B2A36D77231FE4FEB5469D
:104C7000B6A393051700231FB4FEB6A39305270020
:104C8000231FB4FE6D75B6A393050560130840039A
:104C9000231FB4FE2391070193051760231FB4FE61
:104CA0002391070193052760231FB4FE2391070179
:104CB00093050510231FB4FEB6A393051510231FFB
:104CC000B4FEB6A393052710231FB4FEB6A3930525
:104CD0000570231FB4FE2391070193051570231F50
:104CE000B4FE2391070193062770231FD4FE23915E
:104CF000070193060720231FD4FE23910700930684
:104D00001720231FD4FE2391070093062720231F7B
:104D1000D4FE71732391070093050380231FB4FE13
:104D200093064002B6A393051380231FB4FEB6A3D7
:104D300093052380231FB4FE7175B6A3930505F078
:104D4000231FB4FEB2A393050730231FB4FEBD4555
:104D5000AEA393081730231F14FFAEA39308273088
:104D6000231F14FFAEA393050590231FB4FE2391C8
:104D7000070193051590231FB4FE239107019305A6
:104D80002590231FB4FE2391070193050750231F8D
:104D9000B4FE2391C70193051750231FB4FE23913E
:104DA000C70113072750231FE4FE13070520239193
:104DB000C7018D45231FE4FEAEA3130705A0231FE3
:104DC000E4FEB6A3130715A0231FE4FEB6A3130742
:104DD00025A0231FE4FEB6A3930F03C0231FF4FFF7
:104DE00023910700930F13C0231FF4FF13078007BD
:104DF000BAA3930F23C0231FF4FF23910700930648
:104E000005D0231FD4FE23910700930615D0231F3E
:104E1000D4FEBAA3130725D0231FE4FE2391070075
:104E2000130705E0231FE4FE23910700130715E095
:104E3000231FE4FE13074006BAA3757793060710F5
:104E4000231FD4FE23910700930617109308300305
:104E5000231FD4FE2391170193062710231FD4FE8E
:104E60002391070093063710231FD4FE23910701D7
:104E700093064710231FD4FE239107009306571073
:104E8000231FD4FE130DA0032391A70193066710DF
:104E9000231FD4FE2391070093067710231FD4FE0F
:104EA000930CA0042391970193068710231FD4FE2F
:104EB0002391070093069710231FD4FE130CC005FF
:104EC000239187019306A710231FD4FE2391070087
:104ED0009306B710231FD4FE930B1008239177017C
:104EE0009306C710231FD4FE239107009306D71003
:104EF000231FD4FE130B600A239167019306E7106A
:104F0000231FD4FE239107009306F710231FD4FE1E
:104F1000930A500E2391570193060711231FD4FEC5
:104F2000B2A393061711231FD4FE4D4A23914701C4
:104F300093062711231FD4FEB2A3930637119309BA
:104F40004005231FD4FE2391370193064711231FE9
:104F5000D4FE93065711B2A313092008231FD4FED1
:104F60002391270193066711231FD4FEB2A3930652
:104F70007711231FD4FE9300A00C239117009306F2
:104F80008711231FD4FE8946B6A313039711231F4D
:104F900064FE239107001303A711231F64FEB6A329
:104FA0001303B711231F64FEB2A31303C711231FFA
:104FB00064FEB6A31303D711231F64FE23910701D8
:104FC0001303E711231F64FEB6A31303F711231F76
:104FD00064FE930370062391770013030712231FC7
:104FE00064FEB6A313031712231F64FE9302400846
:104FF0002391570013032712231F64FEB6A3130344
:105000003712930F400A231F64FE2391F701130305
:105010004712231F64FE130F700BB6A3130357121E
:10502000231F64FE2391E70113036712231F64FE0D
:10503000B6A313037712231F64FE930EF00C239183
:10504000D70113038712231F64FEB6A3130397121D
:10505000231F64FE130EE00D2391C7011303A71253
:10506000231F64FEB6A31303B712231F64FE1303AA
:10507000200F23916700930DC712231FB4FFB6A31F
:10508000930DD712231FB4FF930DE00F2391B701A7
:10509000930DE712231FB4FFAEA3930DF712231F46
:1050A000B4FFC14D2391B701930D0713231FB4FF24
:1050B000AEA3930D1713231FB4FF23911701930D74
:1050C0002713231FB4FFAEA3930D3713231FB4FF81
:1050D000930DD0062391B701930D0720231FB4FF32
:1050E00023910700930D1720231FB4FF930D272052
:1050F00023911701231FB4FF23910700930D37203D
:10510000231FB4FF23910701930D4720231FB4FFF2
:1051100023910700930D5720231FB4FF2391A7016C
:10512000930D6720231FB4FF23910700930D772071
:10513000231FB4FF23919701930D8720231FB4FFF2
:1051400023910700930D9720231FB4FF239187011C
:10515000930DA720231FB4FF23910700930DB720C1
:10516000231FB4FF23917701930DC720231FB4FFA2
:1051700023910700930DD720231FB4FF23916701CC
:10518000930DE720231FB4FF23910700930DF72011
:10519000231FB4FF23915701930D0721231FB4FF51
:1051A000B2A3930D1721231FB4FF23914701930D41
:1051B0002721231FB4FFB2A3930D3721231FB4FF70
:1051C00023913701930D4721231FB4FFB2A3930D01
:1051D0005721231FB4FF23912701930D6721231F1C
:1051E000B4FFB2A3930D7721231FB4FF23911700BF
:1051F000930D8721231FB4FFB6A3930D9721231F7F
:10520000B4FF23910700930DA721231FB4FFB6A37A
:10521000930DB721231FB4FFB2A3930DC721231F02
:10522000B4FFB6A3930DD721231FB4FF2391070129
:10523000930DE721231FB4FFB6A3930DF721231F7E
:10524000B4FF23917700930D0722231FB4FFB6A369
:10525000930D1722231FB4FF23915700930D27228C
:10526000231FB4FF930D3722B6A3231FB4FF23914E
:10527000F701930D4722231FB4FFB6A3930D5722C6
:10528000231FB4FF2391E701930D6722231FB4FF6F
:10529000B6A3930D7722231FB4FF2391D701930D5B
:1052A0008722231FB4FFB6A3930D9722231FB4FFB9
:1052B0002391C701930DA722231FB4FFB6A3930D1B
:1052C000B722231FB4FF23916700930DC722231F2A
:1052D000B4FFB6A3930DD722231FB4FF930DE00FA5
:1052E0002391B701930DE722231FB4FFAEA3930DC3
:1052F000F722231FB4FFC14D2391B701930D07235C
:10530000231FB4FFAEA3930D1723231FB4FF2391D4
:105310001701930D2723231FB4FFAEA3930D37234B
:10532000231FB4FF930DD0062391B701930D0730CF
:10533000231FB4FF23910700930D1730231FB4FFE1
:1053400023911701930D2730231FB4FF23910700EA
:10535000930D3730231FB4FF23910701930D47307E
:10536000231FB4FF23910700930D5730231FB4FF71
:105370002391A701930D6730231FB4FF23910700EA
:10538000930D7730231FB4FF23919701930D87303E
:10539000231FB4FF23910700930D9730231FB4FF01
:1053A00023918701930DA730231FB4FF239107009A
:1053B000930DB730231FB4FF23917701930DC730AE
:1053C000231FB4FF23910700930DD730231FB4FF91
:1053D00023916701930DE730231FB4FF239107004A
:1053E000930DF730231FB4FF930D0731239157011D
:1053F000231FB4FFB2A3930D1731231FB4FF2391D2
:105400004701930D2731231FB4FFB2A3930D37310A
:10541000231FB4FF23913701930D4731231FB4FF9E
:10542000B2A3930D5731231FB4FF23912701930D8E
:105430006731231FB4FFB2A3930D7731231FB4FF4D
:1054400023911700930D8731231FB4FFB6A3930D4B
:105450009731231FB4FF23910700930DA731231F1A
:10546000B4FFB6A3930DB731231FB4FFB2A3930DBE
:10547000C731231FB4FFB6A3930DD731231FB4FF49
:1054800023910701930DE731231FB4FFB6A3930DBA
:10549000F731231FB4FF23917700930D0732231FA9
:1054A000B4FFB6A3930D1732231FB4FF2391570007
:1054B000930D2732231FB4FFB6A3930D3732231F5A
:1054C000B4FF2391F701930D4732231FB4FFB6A316
:1054D000930D5732231FB4FF2391E701930D6732D9
:1054E000231FB4FFB6A3930D7732231FB4FF23917C
:1054F000D701930D8732231FB4FFB6A3930D9732C4
:10550000231FB4FF2391C701930DA732231FB4FFBC
:10551000B6A3930DB732231FB4FF23916700930DF9
:10552000C732231FB4FFB6A3930DD732231FB4FF96
:10553000930DE00F2391B701930DE732231FB4FFC2
:10554000AEA3930DF732231FB4FFC14D2391B701D2
:10555000930D0733231FB4FF930D1733AEA3231FFF
:10556000B4FF23911701930D2733231FB4FFAEA37C
:10557000930D3733231FB4FF930DD0062391B7014A
:10558000930D0740231FB4FF23910700930D17408D
:10559000231FB4FF23911701930D2740231FB4FF4E
:1055A00023910700930D3740231FB4FF2391070178
:1055B000930D4740231FB4FF23910700930D5740DD
:1055C000231FB4FF2391A701930D6740231FB4FF4E
:1055D00023910700930D7740231FB4FF2391970178
:1055E000930D8740231FB4FF23910700930D97402D
:1055F000231FB4FF23918701930DA740231FB4FFFE
:1056000023910700930DB740231FB4FF2391770127
:10561000930DC740231FB4FF23910700930DD7407C
:10562000231FB4FF23916701930DE740231FB4FFAD
:1056300023910700930DF740231FB4FF23915701D7
:10564000930D0741231FB4FFB2A3930D1741231FEE
:10565000B4FF23914701930D2741231FB4FFB2A349
:10566000930D3741231FB4FF23913701930D474119
:10567000231FB4FFB2A3930D5741231FB4FF2391FF
:105680002701930D6741231FB4FFB2A3930D774108
:10569000231FB4FF23911700930D8741231FB4FFED
:1056A000B6A3930D9741231FB4FF23910700930DD9
:1056B000A741231FB4FFB6A3930DB741231FB4FF27
:1056C000B2A3930DC741231FB4FFB6A3930DD741D7
:1056D000231FB4FF930DE74123910701231FB4FF5C
:1056E000B6A3930DF741231FB4FF23917700930DC9
:1056F0000742231FB4FFB6A3930D1742231FB4FF25
:1057000023915700930D2742231FB4FFB6A3930D97
:105710003742231FB4FF2391F701930D4742231F04
:10572000B4FFB6A3930D5742231FB4FF2391E701A3
:10573000930D6742231FB4FFB6A3930D7742231F37
:10574000B4FF2391D701930D8742231FB4FFB6A363
:10575000930D9742231FB4FF2391C701930DA742D6
:10576000231FB4FFB6A3930DB742231FB4FF2391A9
:105770006700930DC742231FB4FFB6A3930DD74212
:10578000231FB4FF930DE00F2391B701930DE74260
:10579000231FB4FFAEA3930DF742231FB4FFC14DE7
:1057A0002391B701930D0743231FB4FFAEA3930DBD
:1057B0001743231FB4FF23911701930D2743231F82
:1057C000B4FFAEA3930D3743231FB4FF930DD00650
:1057D0002391B701930D0750231FB4FF23910700B6
:1057E000930D1750231FB4FF23911701930D2750DA
:1057F000231FB4FF23910700930D3750231FB4FFDD
:1058000023910701930D4750231FB4FF23910700F5
:10581000930D5750231FB4FF2391A701930D675099
:10582000231FB4FF23910700930D7750231FB4FF6C
:1058300023919701930D8750231FB4FF23910700F5
:10584000930D9750231FB4FF23918701930DA75009
:10585000231FB4FF930DB75023910700231FB4FFFC
:1058600023917701930DC750231FB4FF23910700A5
:10587000930DD750231FB4FF23916701930DE75079
:10588000231FB4FF23910700930DF750231FB4FF8C
:1058900023915701930D0751231FB4FFB2A3930D1A
:1058A0001751231FB4FF23914701930D2751231F45
:1058B000B4FFB2A3930D3751231FB4FF23913701D7
:1058C000930D4751231FB4FFB2A3930D5751231FCC
:1058D000B4FF23912701930D6751231FB4FFB2A397
:1058E000930D7751231FB4FF23911700930D875118
:1058F000231FB4FFB6A3930D9751231FB4FF239129
:105900000700930DA751231FB4FFB6A3930DB75102
:10591000231FB4FFB2A3930DC751231FB4FFB6A337
:10592000930DD751231FB4FF23910701930DE75126
:10593000231FB4FFB6A3930DF751231FB4FF239188
:105940007700930D0752231FB4FFB6A3930D175290
:10595000231FB4FF23915700930D2752231FB4FF39
:10596000B6A3930D3752231FB4FF2391F701930D74
:105970004752231FB4FFB6A3930D5752231FB4FF02
:105980002391E701930D6752231FB4FFB6A3930D34
:105990007752231FB4FF2391D701930D8752231F02
:1059A000B4FFB6A3930D9752231FB4FF2391C701F1
:1059B000930DA752231FB4FFB6A3930DB752231F15
:1059C000B4FF930DC75223916700231FB4FFB6A302
:1059D000930DD752231FB4FF930DE00F2391B7010E
:1059E000930DE752231FB4FFAEA3930DF752231F6D
:1059F000B4FFC14D2391B701930D0753231FB4FF8B
:105A0000AEA3930D1753231FB4FF23911701930DDA
:105A10002753231FB4FFAEA3930D3753231FB4FFA7
:105A2000930DD0062391B701930D0760231FB4FF98
:105A300023910700930D1760231FB4FF23911701D3
:105A4000930D2760231FB4FF23910700930D376048
:105A5000231FB4FF23910701930D4760231FB4FF59
:105A600023910700930D5760231FB4FF2391A701D3
:105A7000130D6760231FA4FF23910700130D7760A8
:105A8000231FA4FF23919701930C8760231F94FF8A
:105A900023910700930C9760231F94FF23918701A4
:105AA000130CA760231F84FF23910700130CB7601A
:105AB000231F84FF23917701930BC760231F74FF7B
:105AC00023910700930BD760231F74FF2391670175
:105AD000130BE760231F64FF23910700130BF7608C
