:100000006F20B05613000000130000001300000022
:100010001300000013000000130000001300000094
:100020001300000013000000130000001300000084
:08003000130000007300100032
:100038000000000000000000A00B0000A40B00005E
:1000480000000000B02C00000000000000000000CC
:10005800B22C0000B42C00000000000000000000DA
:10006800AA130000000000000002000000000000C9
:10007800BA2C0000BC2C0000BE2C0000C02C0000D4
:10008800C22C0000C42C0000C62C0000C82C0000A4
:10009800CA2C0000CC2C0000CE2C0000D02C000074
:1000A800D22C0000D42C0000D62C0000D82C000044
:1000B800DA2C0000DC2C0000DE2C0000E02C000014
:1000C800E22C0000E42C0000E62C0000E82C0000E4
:1000D800EA2C0000EC2C0000EE2C0000F02C0000B4
:1000E800F22C0000F42C0000F62C0000F82C000084
:1000F800FA2C0000FC2C0000FE2C0000002D000053
:10010800022D0000182B0000BA2B0000082D00005B
:100118000A2D00000C2D00000E2D0000102D0000EF
:10012800122D0000142D0000162D0000182D0000BF
:100138001A2D00001C2D00001E2D0000202D00008F
:10014800222D0000242D0000262D0000282D00005F
:100158002A2D00002C2D00002E2D0000302D00002F
:10016800322D0000342D0000362D0000382D0000FF
:100178003A2D00003C2D00003E2D0000402D0000CF
:10018800422D0000442D0000462D0000482D00009F
:100198004A2D00004C2D00004E2D0000502D00006F
:1001A800522D0000542D0000562D0000582D00003F
:1001B8005A2D00005C2D00005E2D0000602D00000F
:1001C800622D0000642D0000662D0000682D0000DF
:1001D8000000000000000000000000000000000017
:1001E8000000000000000000000000000000000007
:0801F8000000000000000000FF
:10020000130181F806C216C41AC61EC822CA26CC1B
:100210002ACE2ED032D236D43AD63ED842DA46DC76
:100220004ADECEC0D2C2D6C4DAC6DEC8E2CAE6CC46
:10023000EACEEED0F2D2F6D4FAD6FED8F3220030CF
:1002400096DA9702002083A262FF23A02200F32502
:1002500010342EC09305000273A0458003A1818154
:10026000EF20000317030020032343FD03210300B5
:10027000824273901234D652739002309240A2425E
:100280003243C2435244E244724582551256A2564A
:100290003257C2575258E25872598649164AA64AEE
:1002A000364BC64B564CE64C764D865D165EA65ECA
:1002B000365FC65F13018107730020301300000012
:1002C00013000000130000001300000013000000E2
:1002D00013000000130000001300000013000000D2
:1002E00013000000130000001300000013000000C2
:1002F00013000000130000001300000013000000B2
:1003000083A28181938202E073900234170100205E
:100310000321C1F2024182403243C2435244E244CB
:10032000724582551256A2563257C2575258E25859
:1003300072598649164AA64A364BC64B564CE64C6D
:10034000764D865D165EA65E365FC65FD652A1020A
:1003500073900230A24213018107828013000000D3
:100360001300000013000000130000001300000041
:100370001300000013000000130000001300000031
:100380001300000013000000130000001300000021
:100390001300000013000000130000001300000011
:1003A0001300000013000000130000001300000001
:1003B00013000000130000001300000013000000F1
:1003C00013000000130000001300000013000000E1
:1003D00013000000130000001300000013000000D1
:1003E00013000000130000001300000013000000C1
:1003F00013000000130000001300000013000000B1
:10040000F322003093F272FF130380781203B3E2F9
:100410006200711523205500130585FA10C12115BE
:10042000232005009302000063870200711523203A
:100430000500FD12D5BF71150CC1828000000000BF
:1004400000000000000000000000000000000000AC
:10045000000000000000000000000000000000009C
:10046000000000000000000000000000000000008C
:10047000000000000000000000000000000000007C
:10048000000000000000000000000000000000006C
:10049000000000000000000000000000000000005C
:1004A000000000000000000000000000000000004C
:1004B000000000000000000000000000000000003C
:1004C000000000000000000000000000000000002C
:1004D000000000000000000000000000000000001C
:1004E000000000000000397101436EC619A0397187
:1004F00041536AC866CA62CC5ECE19A039710153F5
:100500005AD056D252D44ED64AD826DA22DC06DE4B
:1005100033016140828241114AC026C222C406C60C
:100520008282B24D4101024D924C224CB24B4101AC
:10053000024B924A224AB249410102499244224462
:10054000B240410182803D432A876373C30293779F
:10055000F700BDEFADE5937606FF3D8ABA960CC372
:100560004CC30CC74CC74107E36BD7FE11E2828036
:10057000B306C3408A069702000096966780A600DD
:100580002307B700A306B7002306B700A305B700EB
:100590002305B700A304B7002304B700A303B700E3
:1005A0002303B700A302B7002302B700A301B700DB
:1005B0002301B700A300B7002300B700828093F5A2
:1005C000F50F93968500D58D93960501D58D61B76E
:1005D000939627009702000096968682E78086FA17
:1005E0009680C1171D8F3E96E374C3F8A5B7EFF24E
:1005F0009FF237B500001305056CEF50E06C056500
:1006000013058538EF10904237B500001305456D8E
:10061000EF50806B1305803EEF10504139BFEFF271
:10062000FFED37B900001305896DEF50E069130540
:10063000803EEF10B03FB7B90000B70400209385AB
:10064000096E1385842A37040020EF50E06C2322C2
:10065000A420B70A00201304442037BB00001C402C
:10066000138A2A20B5C737B500001305C56FEF50B0
:10067000A0651305803EEF10703B37B900001305ED
:100680000971EF5060641305803EEF10303AB7B93E
:1006900000009385C9711385842AEF50E06708C074
:1006A000B7BA00001C40B9CF37B5000013058573F9
:1006B000EF50806105661306068081451385842A04
:1006C00023100A0049351305803EEF1030368DB5F2
:1006D00013058B6EEF50405F1305803EEF10103511
:1006E0001305896D23100A00EF50005E1305803E4C
:1006F000EF10D0339385096E1385842AEF50C061C3
:1007000008C0B1BF13858A72EF50005C1305803EAC
:10071000EF10D0311305097123100A00EF50C05AB1
:100720001305803EEF1090309385C9711385842A9C
:10073000EF50805E08C0BDB7EFF25FDC37C5000048
:1007400013058585EF5040581305803EEF10102E9D
:1007500037C9000037040020930589861305842AD1
:10076000B7040020EF50405B23A2A420370A0020EA
:1007700093844420B7CA000037CB00009C40930903
:100780002A208DC737C5000013058589EF50C05357
:1007900005661306068081451305842A2390090007
:1007A0005D331305803EEF10702859B313854A87D7
:1007B000EF5080511305803EEF10502713058B88B2
:1007C00023900900EF5040501305803EEF10102693
:1007D000930589861305842AEF50005488C079BF99
:1007E000EFF2FFD037C900001305898AEF50C04DE2
:1007F0001305803EEF10902337CA00003704002015
:1008000093050A8F1305842AB7040020EF50C050C7
:1008100023A2A420B70A00209384442037CB0000F1
:100820009C4093892A20DDC337C50000130505923B
:100830000569EF506049130909804A86814513050F
:10084000842A2390090001331305803EEF10101E07
:1008500037CA00001305CA93EF5000471305803EC6
:10086000EF10D01CB7CA00009385CA951305842ADF
:10087000EF50804A88C0B7CB000037CC00009C40C6
:1008800095E39385CB961305842AEF50E0482A8B95
:1008900088C04A8681451305842A23900900653162
:1008A00063000B0637C500001305C597EF50C04124
:1008B00005661306068081451305842A23900900E6
:1008C00059311305803EEF107016B1B913054B90E6
:1008D000EF50803F1305803EEF1050151305898AB5
:1008E00023900900EF50403E1305803EEF10101496
:1008F00093050A8F1305842AEF50004288C00DB774
:100900001305CC98EF50403C1305CA93EF50C03B01
:100910009385CA951305842AEF50004088C04A8603
:1009200081451305842A23900900313989BFEFF2EC
:10093000FFBC37C900001305C999EF50E038130513
:10094000007DEF10B00EB7C900003704002093857A
:10095000899D1305842AB7040020EF50E03B23A2B1
:10096000A420B70A00209384442037CB00009C4089
:10097000138A2A208DC737C500001305C59FEF5085
:10098000A03405661306068081451305842A2310CA
:100990000A00553E1305803EEF10500951BE130565
:1009A0008B9EEF5060321305803EEF103008130528
:1009B000C99923100A00EF5020311305803EEF1033
:1009C000F0069385899D1305842AEF50E03488C092
:1009D00079BFEFF25FB42E86AA8537B50000130504
:1009E0008574EF50601C91BEEFF2FFB2B704002097
:1009F00061712A8926848387842A638E07181305E8
:100A0000803EEF10B002B7B500009385057F1385D7
:100A1000842AEF50603005CD1808814793052002E5
:100A200013064006B306F500838676006385B6009C
:100A300005076391C714181B37B50000BA979305D3
:100A400061071305857F238307ECEF50E015B7C5D9
:100A50000000938585801305842AEF50E02B0DC993
:100A6000814713062002930640063307F50003076B
:100A700057006304C7006393D710181B37C50000E5
:100A8000BA970C081305C580238007E6EF50C01104
:100A9000B7C500009385C5811305842AEF50C02790
:100AA00039C5180881479305C002130820021306B0
:100AB0004006B306F500838686006387B60063852B
:100AC000060105076391C70C181BBA976C00E8096B
:100AD000238607F2EF503073EF40803FA30AA10650
:100AE00037C50000EC0913054582EF50E00BB7C590
:100AF0000000938585831305842AEF50E02139C5D2
:100B0000180881479305C002130820021306400607
:100B1000B306F500838696006387B60063850601F9
:100B200005076396C706181BBA976C0088022388CE
:100B300007F8EF50506DEF40A039A30DA10C37C559
:100B400000008C0213050584EF5000060566B70708
:100B500000201306068081451305842A239107206F
:100B6000DD320C081306001A4A85EF4000414A8521
:100B70005D61E1B28507A302D7066DB50C08BE958D
:100B800098A18507DDB58507A305D70C1DB7850797
:100B9000A307D712B5BF1305401FEF102069A1BDF1
:100BA0007300203001A001A0EFF2FF96EF00700368
:100BB0007122B7070020B7C50000371500009387E2
:100BC000C72009478146130600109385C5A1130568
:100BD00065BAEF00507CB7070020B7C50000371595
:100BE000000093874721094781461306001093852B
:100BF00045A2130525C3EF00107AB7070020B7C53B
:100C00000000371500000947814613060010938540
:100C100005A393870721130585C7EF00D077B70792
:100C2000002003A58720EF104017EF00E07C6FF055
:100C3000DF90EFF2BF8C370400204111370900200C
:100C40008549B7040020130AF03F1304842A0325C2
:100C5000C9287D569305F100EF00103EE31935FFDA
:100C600083D72420E365FAFE988793861700A2971E
:100C70002391D42098A3E1BFEFF2FF892571EFF013
:100C80001F97EFF0DF994D3CA13E5531B7C50000ED
:100C900037C500009385C5A3130545A41D3B0A85F0
:100CA000A1330145EF10600F1D616FF01F89EFF256
:100CB0009F860146854513050040EF00101FB707CA
:100CC000002023A6A72811E101A0B7070020B7C57F
:100CD00000003715000093878720054781461306DB
:100CE0000010938505A1130585BAEF00D06AEF10B7
:100CF000E0176FF09F84EFF21F821145EF20002A6A
:100D000013050009EF10907037140140EF10104DDB
:100D1000EF202068A16513050480EF20E02713056C
:100D20004006EF10107713050480A165EF208026A0
:100D3000EF20F004AD3F01456FF03F80EFF2AFFDD3
:100D40000145EF207000B70700207D57239CE7285E
:100D50002167130707439306801C1306802FE14584
:100D600013058002EF3010769306801C5146E14552
:100D70005145EF30307B9306C01D1306802F93053D
:100D8000C01D13058002EF30F07991461306802FC5
:100D9000914513058002EF30F0789306801C13060E
:100DA000C030E1451305C030EF30D0779306801C8A
:100DB0001306802FE14513058002EF30D07E5146A7
:100DC000E14513058002EF40A00151469305801CC8
:100DD00013058002EF40C00051469305801C1305A7
:100DE000802FEF30F07F5146E1451305802FEF3023
:100DF000307FB7C700009387C7A41307000293068C
:100E0000000213060012930580021305A00FEF30B5
:100E1000D0643164130784619306E0111306E01077
:100E20009305600A1305C003EF30D069130784618E
:100E30009306E0111306901F9305600A13057012C4
:100E4000EF305068130784619306E0111306402EBB
:100E50009305600A13052021EF30D06613078461E3
:100E60009306F01A1306E010930570131305C003E0
:100E7000EF305065130784619306F01A1306901F34
:100E80009305701313057012EF30D063130784615C
:100E90009306F01A1306402E9305701313052021B4
:100EA000EF305062B7C70000938707A61307000210
:100EB00093060002130600059305800C13054006F7
:100EC000EF30B059B7C70000938787A61307000219
:100ED00093060002130600089305800C1305001406
:100EE000EF30B057B7C70000938747A7130700023A
:100EF00093060002130600059305800C1305A0233A
:100F0000EF30B05537C400009307C4A713070002A1
:100F100093060002130600059305000F13058025B4
:100F2000EF30B053B7C70000938747A813070002FC
:100F30009306000213060009930590151305400659
:100F4000EF30B0519307C4A71307000293060002C5
:100F5000130600059305101813052008EF30F04F15
:100F6000B7C70000938707A9130700029306000282
:100F7000130600069305901513050014EF30F04D8D
:100F8000B7C70000938787A91307000293060002E2
:100F900013060006930590151305A023EF30F04BC0
:100FA0006FF0AFD9B71702409843B706FFF8411169
:100FB0001367170098C3D84337060200758FD8C34C
:100FC0009843B706F7FEFD16758F98C39843B7068A
:100FD000FCFFFD16758F98C3D843B70681FFFD1639
:100FE000758FD8C39843B70600ECFD16758F98C36C
:100FF0003707FF0098C723A6070202C402C698431A
:10100000C166558F98C3B716024005679C42F18FA1
:101010003EC6A24785073EC4B24781E7A247E39791
:10102000E7FEB71702409C431397E7006356070695
:1010300085473EC632478547631EF704B71702400F
:10104000D843B706C1FFFD16D8C3D843D8C3D84389
:1010500013670740D8C3D843758FD8C3D843C16638
:10106000558FD8C39843B7060001558F98C398434E
:1010700093166700E3DD06FED843B7160240719B66
:10108000D8C3D84313672700D8C32147DC42B18BAC
:10109000E39EE7FE4101828002C669BFB7070020D8
:1010A000938707239843636FA702D043B386C70093
:1010B0006316D50054413E85B296D4C35041B30661
:1010C000C500631CD700B706002083A686216306EF
:1010D000D70054431843B29654C118C16303F500B6
:1010E00088C38280BA877DBFEFF24FC141112AC603
:1010F000EF00F060B706002083A7862137060020A6
:10110000938686211306C6213245A9EF37170020A2
:10111000930787AA93F5F700130787AA81C513875A
:10112000F700419BB70500209385052323A2050006
:1011300098C189659385057FAE97C19B23A207005F
:1011400023A00700B385E7409CC21CC3B70700205B
:1011500023A2B722B707002023A0B722B707008039
:101160004CC31CC2032A0600B377AA0085E3930789
:10117000F5FF3957636CF7009307050113F7F70084
:1011800041C313F707FF410763EBE706814489A0DA
:1011900022872E8461A058C15CC009375840B70629
:1011A0000020938646229042B307E94023A0F9002D
:1011B00063F3C7009CC2B70700203367EA00938738
:1011C000872258C09843C10423200400050798C310
:1011D000EF00506F93F7F400D1CBA167938707809E
:1011E0007390073037C6000037C50000130606AA03
:1011F00093050011130505AEEF40101B01A0BA873F
:10120000370700200329072293090722E360F9F832
:101210003707002003240723130707235040637474
:10122000F6000C40B5F59442E38286F61440044380
:1012300014C33307F64093060002E3F1E6F63305E4
:10124000F4009376F500A1DAA16793870780739085
:10125000073037C6000037C50000130606AA9305FD
:10126000F00C130505AEEF40301401A026854101B6
:101270006FF00FAC55C1EFF20FAAB707002003279C
:1012800045FF83A7C7212A84B376F7009DE2A167B3
:10129000938707807390073037C6000037C500007A
:1012A000130606AA93054012130505AEEF40D00FB2
:1012B00001A0832605FF9DC2A167938707807390D5
:1012C000073037C6000037C50000130606AA93058D
:1012D0005012130505AEEF40300D01A093C7F7FF84
:1012E000F98F232AF5FEEF009041B707002093877E
:1012F00007229443032744FF130504FF369798C33E
:10130000713BB70700209387C7229843050798C30E
:10131000EF00505B6FF06FA282808280EFF2AF9F90
:10132000411102C6F32750303EC6B2470D478D8BA0
:101330006384E702A167938707807390073037C6FD
:10134000000037C50000130646B09305600B130577
:1013500005AEEF40700501A0B70701209387070095
:10136000BD8B9DC3A167938707807390073037C6F5
:10137000000037C50000130646B09305B00B1305F7
:1013800005AEEF40700201A0493FB7E700E00567F6
:1013900023A0E710116723A0E71023A20180EFE04C
:1013A0003FF6014541016FF04F9973110134A16778
:1013B0009387078073900730B7F700E023A20700F8
:1013C000EF00903511C5B7E700E0116723A0E720D3
:1013D000A167938787887390073073110134730076
:1013E0002030A167938707807390073093874180EF
:1013F0009843050798C38280138741801C438DE77B
:10140000EFF26F91A167938707807390073037C61B
:10141000000037C50000130646B0930520101305E1
:1014200005AEEF40607801A0FD171CC391E7A167EE
:101430009387878873900730828021651305058024
:101440007315053082807310053082809307850004
:101450007D575CC118C55CC51CC92320050082806E
:101460002328050082805C419847DCC198C59847D5
:101470004CC38CC71C4188C985071CC18280984118
:10148000FD5693078500631ED7001C49D843D8C179
:101490000CC79CC5CCC31C4188C985071CC1828070
:1014A000B687D4439042E37DC7FECDB7544118457B
:1014B0001C4998C654C3D4436393A600D8C3984329
:1014C000232805007D1798C388438280EFF2AF84FC
:1014D00041112AC639373245005D393F13351400B2
:1014E00041016FF08F85EFF20F8332893041045D47
:1014F0002A8409EE1C41014591E70844EF10E00DF4
:1015000023240400850404DC6FF02F836310090298
:101510004841EF3090265C4038400145BA97184466
:101520005CC0E3E1E7FE1C405CC0E9BF4845EF302A
:10153000D0243C4058441440B307F0403E9758C470
:101540006375D7001844BA975CC489470145E31B0B
:10155000F9FACDD8FD147DB7304115C2EFE2BFFBDB
:1015600058451445AA87329758C56364D700184177
:1015700058C52E85CC47EF3050206FE01FFC82808D
:10158000EFE27FF92A84B13D8344540413094402F5
:10159000E204E18463459002FD57A302F404A93DEF
:1015A00089358344440413090401E204E18463445B
:1015B0009002FD572302F40481356FE01FF85C5060
:1015C000E1DF4A85EF00506219C1EF00907EFD1403
:1015D000E204E184C1B71C48E9DF4A85EF00D0602E
:1015E00019C1EF00107DFD14E204E184C9B7EFE2F8
:1015F0009FF241111DE1A167938707807390073027
:1016000037C6000037C50000130686B493050011E5
:10161000130505AEEF40405901A05C5D2EC62A843B
:10162000BDC33841B3B7E702B9EF653B3040585C02
:101630001440232C0402B307E602B24554C033879A
:10164000F600918FB6975CC4FD572302F40418C4CA
:10165000A302F40495E11C4899CB13050401EF00A3
:10166000B05811C5B7E700E0116723A0E720693340
:10167000054541016FE07FEC13050401C13B1305F3
:101680004402E933EDB7A167938707807390073071
:1016900037C6000037C50000130686B49305501402
:1016A000130505AEEF40405001A0EFE2DFE6411127
:1016B00029C1B3B7A502AA848DEF3305B5029307FC
:1016C00070FB63E8A702130585042EC6EFF0DFA1C7
:1016D0002A8401CDB245AA8799C1930785042CC0FD
:1016E0001CC044DC854522851937228541016FE005
:1016F000DFE4A167938707807390073037C6000047
:1017000037C50000130686B49305601C130505AEAB
:10171000EF40804901A0EFE27FDE41111DE1A167AA
:10172000938707807390073037C6000037C50000E5
:10173000130686B493052040130505AEEF40C0465E
:1017400001A02A84B2898DE53C419DC3A16793879E
:1017500007807390073037C6000037C500001306B6
:1017600086B493053040130505AEEF40E04301A079
:1017700089476398F602585C85476304F702A167BE
:10178000938707807390073037C6000037C5000085
:10179000130686B493054040130505AEEF40C040E4
:1017A00001A036C62EC45139185C5C5C2A8AA24559
:1017B000B2466366F700894781446392F602834428
:1017C00054041C5C3686228513998401293B1359E5
:1017D0008941FD576316F9025C5081EB85445285BF
:1017E0009D31268541016FE0BFD413054402EF000F
:1017F000B03F6DD5E38409FE854723A0F900F9BF0A
:101800009307F0076314F902A16793870780739029
:10181000073037C6000037C50000130686B49305AD
:10182000D048130505AEEF40203801A08504E2043E
:10183000E184A30294045DB7EFE27FCB011132C6CD
:101840001DE1A167938707807390073037C60000BA
:1018500037C50000130686B493051055130505AE71
:10186000EF40803401A02A84AE898DE53C419DC3C0
:10187000A167938707807390073037C6000037C58C
:101880000000130686B493055055130505AEEF40CE
:10189000A03101A0EF00B05215E5B247014985C75C
:1018A000A167938707807390073037C6000037C55C
:1018B0000000130686B49305A055130505AEEF404E
:1018C000A02E01A001497D5A930A440237EB00E0A3
:1018D000916B85A8B24789E7EFF01FB2014551A887
:1018E000631509002808EF00F03EEFF0FFB0012D6E
:1018F000EFF03FAF83474404E207E1876394470179
:101900002302040483475404E207E18763944701F8
:10191000A3020404EFF05FAE6C002808EF00F03C77
:101920002DE12285EFF09FBA21C9B2455685EF001F
:10193000D01F2285B131EF00E07819E123207B210F
:101940000549EFF01FAA045CD1D4CE852285FD1491
:10195000213104DC1C4899CB13050401EF00D02889
:1019600011C5B7E700E0116723A0E720EFF0DFA87B
:10197000054505616FE03FBB22851931EF0080749A
:10198000C1B72285EFF0DFBFEF00C0732285EFF013
:10199000FFB35DD5A1B715E5EFE2FFB7A167938768
:1019A00007807390073037C60000856537C5000093
:1019B000130686B4938585AC130505AEEF40C01EB3
:1019C00001A09DCD373600209306862A8147014726
:1019D0001306862A214883A846006398A800931717
:1019E0003700B2978CC3C8C321A891E783A806002B
:1019F00063930800B6870507A106E31E07FDFDF304
:101A00008280EFE25FB141112A842EC632C4EFF02A
:101A10005F9D834744047D572246E207E187B24534
:101A20006394E70023020404834754047D57E207CC
:101A3000E1876394E700A302040432C62EC4EFF0EA
:101A4000BF9B1C5CA245324689E713054402EF00A8
:101A500050122285EFF0DFB241016FE01FAE370771
:101A600000201307C7231C439443B7070020938724
:101A7000C72581E67D5798C382801843584718438D
:101A8000DDBFEFE2BFA737090020B70700209304AE
:101A9000892383A9C7262A849C4088404111A388B2
:101AA000070411052EC6EFF07FA07D579307892309
:101AB000B245631CE40295C9B737002093870745F8
:101AC0009440D84398C610479440D0C694401047DD
:101AD000910654C29440910614C798405CCB984339
:101AE000050798C341016FE0BFA498434E9440C3DB
:101AF000637B340137070020032507248C439105BD
:101B0000EFF0FF97C5B7370700200325C7238C43A5
:101B10009105EFF0DF96B70700209387C72598431C
:101B2000E372E4FC80C37DBFEFE25F9D37340020A9
:101B3000B709002013044446370A0020B73A0020B2
:101B4000938489249C4089EF93878A2E9843854704
:101B5000E3F8E7FEB7E700E0116723A0E720CDB781
:101B6000EFF03F885C4403A9C70013054900EFF07C
:101B7000FF9313074A241C43FD171CC39C40FD1709
:101B80009CC0EFF07F8703250903EFF0AFEE4A8595
:101B9000EFF04FEE75B7EFE29F9513192600AA8A72
:101BA0004A852E8A368BBA8BBE89EFF0EFD31DC1E2
:101BB000AA8413054005EFF02FD32A8409C904D95C
:101BC0008147C146631A0A00230A050225A026851B
:101BD000EFF04FEA7D5565A23307FA0003070700CF
:101BE0003306F400230AE60201C78507E396D7FE11
:101BF000A3010404B94763F47703A16793870780BF
:101C00007390073037C6000037C50000130686B74B
:101C100093057039130505AEEF30107901A0130A52
:101C200044005285232674032322740523240404CC
:101C3000EFF01F8313058401EFF09F823D471305EA
:101C4000C9FF33077741269500C818CC40D023063A
:101C50000404A306040423070404A30704042308BC
:101C60000404A30804045A86D6854199EFE04FF98D
:101C700008C06384090023A08900EFF08FF6B7073E
:101C80000020938747249843B7040020B7390020E9
:101C9000050798C3138784231843938484231389E7
:101CA000892E6310070E80C0984385476316F70698
:101CB0009389892E930AC9124E85D109EFF00FF945
:101CC000E39C3AFF37350020930A4541130545410F
:101CD000EFF0CFF737350020930985421305854291
:101CE000EFF0CFF6373500201305C543EFF00FF6C0
:101CF0003735002013054546EFF04FF53735002006
:101D000013050545EFF08FF4B707002023AE5723E6
:101D1000B707002023A03725B707002093870725A2
:101D20009843050798C337070020130747255C54DD
:101D3000144363F3F6001CC35147B387E702CA9705
:101D4000D843144718C454C4144723A2460123247B
:101D5000470198435CC8050798C3EFF0EFE9B70760
:101D6000002083A78726054599CB9C40D8575C5413
:101D70006377F700B7E700E0116723A0E7206FE083
:101D80008FFAB707002083A78726D9F79C40D8573A
:101D90005C54E3E3E7F880C041B7EFE2CFF72A8471
:101DA000B7040020EFF0EFE39384842311E0804038
:101DB000130944004A85EFF06FEF1C5489C71305DF
:101DC0008401EFF0AFEEB707002093870725984313
:101DD000050798C39C40639A870637350020CA855B
:101DE00013054546EFF02FE8B707002093878724B7
:101DF0009843050798C3EFF02FE09C406388870065
:101E00000858EFF02FC72285EFF0CFC6B7070020A4
:101E100083A78726B1CB9C4063988704B70700202F
:101E200083A7C7248DCFA16793870780739007305E
:101E300037C6000037C50000130686B79305C04DAE
:101E4000130505AEEF30505601A0B7070020938769
:101E5000472498437D1798C3EFF07FC069BFB7E769
:101E600000E0116723A0E7206FE02FEDEFE2AFEA7B
:101E7000B7070020B7C500003725000093878725E6
:101E80000147814613060008938585BA130585B27C
:101E9000EFF07FD00544631E8502EF00302E631AF9
:101EA0008502A1679387078073900730B7070020EA
:101EB0007D5723AEE724B707002023A4A726B70742
:101EC000002023A60726EFF06FC583A781806FE06F
:101ED000CFE6FD57E31BF5FEA1679387078073905C
:101EE000073037C60000856537C50000130686B782
:101EF00093850584130505AEEF30104B01A0B7079D
:101F000000209387C7249843050798C38280B707AA
:101F1000002003A5C7268280B707002083A7C72417
:101F200063990718EFE22FDFB70700209387C726D2
:101F30008043050480C321ECB70700209387C723A3
:101F40009843184305C7A1679387078073900730AC
:101F500037C60000856537C50000130686B7938530
:101F600075AC130505AEEF30304401A037070020F3
:101F7000130707249443104390C3B707002014C3EA
:101F8000938707269843050798C3EFF05FAD3706A0
:101F900000209307C6259C4337370020B705002053
:101FA0001306C6251307872E938585230145637580
:101FB000F4029C41D146DC57B387D7023E971843C1
:101FC000854763F3E7000545B707002083A7072788
:101FD00091C305456FE06FD6370E0020B70E002085
:101FE000514F9307CE239443944281E6FD571CC280
:101FF000C9B79C43DC47DC47D4436374D40014C2A4
:102000004DBF83A8870003A8C700D44B13834700A4
:1020100023A408012322180183A8460063946800C2
:1020200023A2060103A8060023AA07007D1823A007
:102030000601945795CA03A8C70183A8070283AF76
:1020400046002324180183A8070223A2080113884D
:10205000870163940F0123A2160103A8060023A49D
:1020600007027D1823A0060193864E2503A8C70208
:1020700083A8060063F4080123A00601B306E80361
:10208000BA9683A8460083AF880023A4170123A62D
:10209000F70183AF880023A26F0023A46800D4CB8C
:1020A0009C4285079CC29C41DC57E36CF8F20545D5
:1020B0000DBFB707002093874726984301450507C2
:1020C00098C38280EFE28FC3370400201304C42436
:1020D0001C40411185E7A167938707807390073003
:1020E00037C60000856537C50000130686B793859F
:1020F000358B130505AEEF30302B01A0EFF06FAE3E
:102100001C40FD171CC01C4089CB01452AC6EFF0BE
:10211000AFAE324541016FE0AFC1B707002083A7E2
:102120004724E5D7B736002037350020814793860E
:10213000C643370F00201305852ED14837030020F2
:10214000370E0020854E59A8DC46DC47CC4F905313
:10215000985790C503A807022322B8000328470018
:10216000938587016313B80050C3104323A407026B
:102170007D1610C38C47D047D84B1388470090C5B5
:102180004CC24C436393050150C3104323AA07007C
:102190007D1610C313074F25D0570C4363F3C500BA
:1021A00010C3330716032A974C4383AF85008CC7AF
:1021B00023A6F70183AF850023A20F0123A4050105
:1021C0000C43D8CB85050CC31307832318435857FA
:1021D0006366E60013070E272320D70198422DF7E8
:1021E00099C3EFF0DF87B707002013874726044322
:1021F0001384472699CC370900208549EFF0DFD1B9
:1022000009C59307092723A03701FD14E5F823200A
:102210000400B707002083A70727E38807EEB7E786
:1022200000E0116723A0E7200545CDB519E5B7E724
:1022300000E0116723A0E7208280EFE2CFADB7076F
:10224000002083A7C72441119DC3A16793870780FE
:102250007390073037C6000037C50000130686B7F5
:1022600093059054130505AEEF30101401A02AC653
:10227000EFF0FFC832458145EFF0BF80A13511E591
:10228000B7E700E0116723A0E72041016FE0EFAA64
:10229000B707002003A7C724B707002093870727A5
:1022A00001C7054798C3828023A00700B707002015
:1022B00013874725184313864725B7370020938790
:1022C000872E5148B3060703B385D700884115C54B
:1022D000C841A106BE964841C8C16314D500544107
:1022E000D4C1D146B306D702B697DC43D447B7076B
:1022F000002023ACD72218C2828015E7EFE2AFA1FD
:10230000A167938707807390073037C60000856503
:1023100037C50000130686B7938525C0130505AEA3
:10232000EF30900801A07D1771BFEFE2CF9E05E569
:10233000A167938707807390073037C600008565D3
:1023400037C50000130686B79385C5C1130505AED2
:10235000EF30900501A0B70700202E8483A58723C6
:10236000E105EFF0CF9185452285EFF08FF16FE029
:10237000CF9CEFE24F9A2A8705E5A16793870780F4
:102380007390073037C60000856537C50000130617
:1023900086B7938525C5130505AEEF30F00001A083
:1023A000B70700209387872354432E858C4303A8C7
:1023B0008600D4CD8C4323A0050303A807008C46D8
:1023C000610823A2050103A807009C43610823A418
:1023D000060198D71C4385071CC311C27D55B285E1
:1023E000EFF02FEA6FE06F955C45DC4795E7EFE291
:1023F0008F92A167938707807390073037C60000DC
:10240000856537C50000130686B7938525C8130573
:1024100005AEEF30607901A0D04F94539857938563
:10242000870114C6D0C250436313B60054C314438B
:1024300023A40702FD1614C3370700200327C7246F
:10244000D45725EF8C47D047D84B90C5D047484349
:102450004CC2938547006313B50050C3104323AAB1
:1024600007007D1610C337070020130747251043C8
:102470006373D60014C351473386E6023737002012
:102480001307872E32975043084690C7C8C708469F
:102490004CC10CC6D8CB1C43014585071CC3B707EC
:1024A000002083A78723DC5763F8D700B7070020F5
:1024B000054723A8E7260545828037370020130704
:1024C000C74350430846D0CF88D308464CC10CC6FA
:1024D00098D7D1B7B707002083A707261CC1B70735
:1024E000002083A7C7265CC18280EFE2CF82411122
:1024F00005E5A167938707807390073037C6000012
:10250000856537C50000130686B79385D5CF1305BB
:1025100005AEEF30606901A085E5A167938707806C
:102520007390073037C60000856537C50000130675
:1025300086B79385E5CF130505AEEF30E06601A0C1
:102540002EC62AC4EFE0FFE937070020B7070020B6
:102550001307872383A6C7261C432245B24583C79A
:10256000170599CB1C43A38807040544EFE0DFE877
:10257000228541016FD07FFC9C417D570144E38758
:10258000E7FE3706002003260626032805005841EB
:102590006307C80063E5E60023A00500F9B73386AA
:1025A000E640E37BF6FE958FBA979CC12537014440
:1025B00075BFB7070020054723A8E7268280B70725
:1025C000002083A78726054581CBB707002003A5F8
:1025D000C724133515000605828011E50145828068
:1025E00001456FD09FF5EFD21FF3B707002083A7F7
:1025F00087232A846385A702A16793870780739046
:10260000073037C60000856537C50000130686B75A
:102610009385F504130505AEEF30005901A0BC47C2
:1026200085E7A167938707807390073037C600005E
:10263000856537C50000130686B793850505130524
:1026400005AEEF30605601A054557841FD173CC5EA
:10265000E388E6F8D1F7930445002685EFE01FE50F
:102660007C403D471D8F18CC3707002013074725B6
:1026700014435CD463F3F6001CC351473387E7026D
:10268000B73700209387872E0545BA97D84314475C
:1026900018C454C41447C4C204C798435CC805078F
:1026A00098C381B7EFD23FE737040020EFE07FD334
:1026B000130404281C40B1E737350020130985476F
:1026C00013058547EFE09FD8373500209304C548B0
:1026D0001305C548EFE09FD7B707002023AA272797
:1026E0000146B7070020C145154523AC9726EFE00A
:1026F000DFFB08C019C5B7C50000938545BDEFF0E5
:102700008FA9EFE07FCF6FD05FE3EFD2DFE04CC166
:1027100008C9AA876362B602184D158E0545637B0A
:10272000E60093854700B707002003A58727EFE061
:102730001FD501456FD07FE06375D6000545E3FBEB
:10274000D5FE93854700B707002003A54727C5B7E7
:10275000EFD27FDC2A84AE8432890C4CA6864A866E
:10276000A69522855D3719E16FD03FDD1C4C22858F
:10277000BE941C508297D5B7EFD2FFD9B70700207F
:1027800083A747274111AA84DC472EC6C0471305FB
:102790004400EFE0BFD183474402324613F74700BD
:1027A00011CBA68522856D371C5022858297410169
:1027B0006FD0BFD8F99B2302F402FDB7EFD2BFD58B
:1027C000370400209306442798421C4391EBB70737
:1027D000002093878727904398C390C26FD0FFD57E
:1027E0005C47FD558843493FF1BFEFD25FD0316967
:1027F0004111B70A0020B7090020370B0020B70BA2
:102800000020130909BB83A74A27984329CBDC473B
:10281000814C03AC0700EFF08FEEEFF04FEF83A792
:10282000C9272A849384C927130A0B28636CF502ED
:1028300088C0638F0C0283A78B2790431336160042
:1028400003250A00B3058C40EFF0AF9BEFF09F87A4
:1028500011EDB7E700E0116723A0E72001A8854C40
:10286000014C55BFA13F80C0EFF0DF85214C05A092
:102870000146E36785FDEFF0FF84A2856285ED3DAB
:10288000F5B79247B2458297824763DD070003257B
:102890000A0001468A85EFE03FFA35D58247224596
:1028A000E3C107FE22445C4895E3EFF04FE69C400D
:1028B000AA8C6373F5001937824723A09401FD1792
:1028C000E367FCFC8A07CA979C4382871305440090
:1028D000EFE0DFBDD9BF834744020C4C924693E73B
:1028E00017002302F4026686B6952285EFF0FFE119
:1028F00059DD8347440213F7470001CF1C4C924532
:1029000066862285BE95EFF0BFE41C502285829733
:10291000BDBFF99B2302F402CDBF83474402F99B5C
:102920002302F402ADB783474402924593E71700B0
:102930002302F4020CCC9DE1A1679387078073907A
:10294000073037C6000037C500001306C6BD930523
:102950009035130505AEEF30202501A0E68666868A
:10296000E6952285EFF07FDA1DB78347440213F71F
:10297000270055F72285EFE0FF8F11BFEFD2BFB9D7
:10298000EFF05FD2B707002083A707289DE3A16778
:10299000938707807390073037C6000037C5000063
:1029A0001306C6BD93059011130505AEEF30C01F89
:1029B00001A0B7070020B7C50000372500009387A6
:1029C000472839478146130600109385C5C0130573
:1029D000A57EEFF04F9C45DD6FD03FB6EFD21FB222
:1029E0005D7185451145EF00E07F854537050200A3
:1029F000EF00300185451165EF00C07E37140140BE
:102A0000930700208D4961492C0813050480FC843C
:102A10004ECE4AD0C1219307004091442C081305A3
:102A20000480FC8426D07D214C10130504802312E1
:102A300091024ED44AD67929A1474C10130504803F
:102A40002312F10226D671647121B74400401304A9
:102A5000042037090C008C0013850440A2C0CAC4AE
:102A600082C223160104EF00A07B22D83744014024
:102A70000C18130504804ADC02DA231E0102EF0061
:102A8000207A9307501305497C84280085475C858C
:102A90004AC6112B930760130808FC802309210103
:102AA0004ACA112313050480054693055052EF00CE
:102AB000500405461385044093055052EF007003FF
:102AC000130504808545EF0070018545138504409A
:102AD000EF00D00061616FD0BFA5EFD23FA2B74435
:102AE0000040AE8932890144938404406345240147
:102AF0004A856FD0FFA3930500042685EF00D0031D
:102B00007DD9B38789008385070026850504C20522
:102B1000C181EF007001D9BF411122C63744014085
:102B20009305505213050480EF00B00159C193057D
:102B3000505213050480EF009004130504803704FD
:102B40000020EF00E07E130484280AA0EF20A03DBF
:102B5000122032951C318D8B9DC73707002013073B
:102B6000B7281C23FD4663E0F6021C2393F6F70FFB
:102B70009387160093F7F70F1CA3B73700209387AE
:102B8000074AB69790A3A9476315F602B707002036
:102B9000A3850728370700208547374501402305CF
:102BA000F728814537070020130505802300F7200B
:102BB00035273244410173002030011122CE3744C1
:102BC0000040930550521305044002C69D2F1DC9B5
:102BD00093055052130504405D2713050440892FC7
:102BE000B7070020C88503A5C72881467000930554
:102BF000B100EFE05FB2B24791C7B7E700E01167FD
:102C000023A0E7207244056173002030B70700203D
:102C10002398A7284157B7E700E02387E74023869A
:102C2000E740B7F700E023A0070023A20700814692
:102C300094C70147D8C7370700208325071E13070D
:102C4000803E814633D6E5027D4790CBD4CB98C3F6
:102C50008280B7F600E0984ADC4A37F800E0B70710
:102C6000002083D70729BA8598463385A702DC461A
:102C70008147032688008326C800E30CC7FEBA9765
:102C80006377E600918F3287E3E5A7FE8280AE97F7
:102C9000D5BFEFD25F88AA840144636494006FD0EB
:102CA000DF891305803E75370504C5BF01A001A06B
:102CB00001A001A001A001A001A001A001A001A00C
:102CC00001A001A001A001A001A001A001A001A0FC
:102CD00001A001A001A001A001A001A001A001A0EC
:102CE00001A001A001A001A001A001A001A001A0DC
:102CF00001A001A001A001A001A001A001A001A0CC
:102D000001A001A001A001A001A001A001A001A0BB
:102D100001A001A001A001A001A001A001A001A0AB
:102D200001A001A001A001A001A001A001A001A09B
:102D300001A001A001A001A001A001A001A001A08B
:102D400001A001A001A001A001A001A001A001A07B
:102D500001A001A001A001A001A001A001A001A06B
:102D600001A001A001A001A001A097E1FF1F938194
:102D700061C717D100201301E12817C50000130512
:102D8000A53697D5FF1F9385E5271386018263FA41
:102D9000C5008322050023A0550011059105E3EA33
:102DA000C5FE17D5FF1F1305E54597050020938540
:102DB000A5726377B500232005001105E36DB5FE0C
:102DC000FD42739002BCFD4273904280B7820000C6
:102DD0009382028073A0023097D2FFFF9382022673
:102DE00093E2320073905230EFE0CF9B97E2FFFF07
:102DF0009382A2F0739012347300203014455C412A
:102E000058450328C502D58FD98F1849370600A029
:102E1000D98F5849D98F184DD98F584DD98F1851FE
:102E2000D98F5851D98F1855D98F1859B3E7070141
:102E3000D98F18410A073A961CC2A1476396F6003B
:102E40001C4293E707041CC254598C4E9C42CD8F00
:102E5000CC429205CD8F8C46A205CD8FCC46C205C3
:102E6000CD8F8C4AD44AD205CD8FE206D58F5CC275
:102E700091676319F802145D904E9C42D18FD04245
:102E80001206D18F90462206D18F904AD44A52061C
:102E9000E206D18FD58FB70600A0938646103697ED
:102EA0001CC38280B70700A0938747103E97B707DF
:102EB0000010FD17F5B7B70700A00A053E951C41A5
:102EC00089C593E717001CC1828037071000791766
:102ED000F98FD5BF9C4513F7070113F8F70001C719
:102EE000D8413368E8008E2113F7F50F39C3184134
:102EF0008146854E3D4F930F800293028004214E00
:102F00003396DE00B3F8C5006311160393982600CC
:102F100033131F011343F3FF3377E300B318180192
:102F200033E7E800639FF70550C98506E39AC6FDBD
:102F300018C11307F00F6375B70454412146854E3D
:102F40003D4F930F800293028004414EB398CE0010
:102F500033F715016392E8021317260001173313A4
:102F6000EF001343F3FFB376D3003317E800D98E95
:102F7000639DF701232A15010506E319C6FD54C117
:102F80008280E39457FA10C94DB7E39757FE232880
:102F90001501DDB70CC982804CC98280B7070020BB
:102FA00023AAA7288280B707002093874729944344
:102FB000182181E63C21920721A894430546639F8E
:102FC000C6023C21103192076314D60093E707F83C
:102FD000B7E600E093F7F70FBA962380F6408546F0
:102FE000935757003397E6005441A5C293870704CF
:102FF0008A07B7E600E0B69798C382808C4389467B
:103000006391D50214313C216365D6008A06B697D8
:103010005DB79386E6038A06B69793F7F70F920794
:1030200075B790438D46631CD60014313C21636410
:10303000D6008606E9BF9386C6078606F1BF94438D
:103040009147E39EF6F81C31BDB7938707064DB74D
:10305000371702405C439146B18B6385D700A14688
:103060006382D706B7177A00938707201CC13716EB
:1030700002405C4237070020130707009183BD8B95
:10308000BA9794231C41B3D7D7005CC15442A182A4
:103090009D8ABA969422B3D6D70014C55442AD8205
:1030A0009D8A36971823B3D7E7005CC55842398309
:1030B000937637001387C18036971823B3D7E7027A
:1030C0001CC982805C435843C166C983758FB7F6BB
:1030D000FF1F83A6C670BD8B890713961601634830
:1030E0000600C54601466392D702C94739A88946FA
:1030F000638FD702BD46638ED702C146638ED70267
:10310000C54601466393D700C1471DEF37470240CC
:1031100003270780418B05C737177A00130707205D
:10312000B307F7021CC121D61C41858381B7014634
:103130006DBF0546B547D1BF0146BD47F9B7371743
:103140003D0013070790E9BFB7150240D855931605
:10315000F700D85563DF060411833D8B93061700F3
:1031600037177A00130707203357D70218C1D455F1
:10317000A182BD8A8DE295463307D702058318C127
:1031800037170240585714413D8B050733D7E602E5
:1031900018C1184171B785456394B600E546E9BF8B
:1031A000BD456396B600D1463387E602C9BF89069E
:1031B000E5BF3D8B9306170037177A0013070720EA
:1031C0003357D702F1B799C5371702405C4B5D8D75
:1031D00048CB8280B7170240D84B1345F5FF798D55
:1031E000C8CB828099C5371702401C4F5D8D08CF30
:1031F0008280B7170240984F1345F5FF798D88CF2D
:10320000828099C5371702405C4F5D8D48CF828020
:10321000B7170240D84F1345F5FF798DC8CF82808C
:10322000EFD26FAF1629F577FD17F58FF621DA2566
:103230007971D58F1EA95625FD779387379FF58F16
:10324000D6212A842EC6D58F9625D58FB625D58F23
:103250005EA55E29C207C18393F7F7CFD98F5EA918
:103260006808EFF0FFDEB747014093870780B2455B
:10327000631AF404A25756246547B387E702C206CF
:10328000C186984163D20604060752244206B3D78A
:10329000E702130740064186B3D6E702B3F7E70219
:1032A0009206635506028E0793872703B3D7E7027A
:1032B00013F77700B367D700C207C1831EA4456127
:1032C0006FD0AFA7925745BF0A07C1B79207938740
:1032D0002703B3D7E702BD8BD58FF9BF91C55E2514
:1032E0000967D98F5EA582805A25F977FD17F98F76
:1032F000D5BF13F7F50F85471583B395B70063194D
:10330000F7009307C500984301CED98D8CC3828006
:10331000894693074501E318D7FE93070501E5B7F2
:1033200093C5F5FFF98DDDB793F5F51F4EA18280AA
:103330004A211375F51F82800A216D8D3335A00057
:10334000828013F7F50F85461583B397B600631196
:10335000D7025A25F98F1A2101454207418381CBB3
:103360000545A181B315B5006D8F3335E00082802E
:1033700089466314D7001A29F1BF5A29E1BFA181F8
:103380008547B397B70093C7F7FFC207C1831EA154
:103390008280EFD24F9841118545114502C202C487
:1033A00002C6EFF03FE4E177371401407C82C14769
:1033B0003EC64C008D47130504803EC4EFF09FB11C
:1033C000A16513050480EFF0FFBC41016FD0EF96BB
:1033D000B7070460F917BE234111C207C1837C8778
:1033E000288741018280EFD20F93B7070460239FA3
:1033F000A7FE1545EFF0FF85E13F6FD00F94B7377B
:10340000002003D7874CB7070460239FE7FE828024
:10341000373600201306064C3E2637070460135843
:103420008500231FF7FE8507C20723100701C1830C
:10343000231FF7FE1375F50F0AA35E2613D685002A
:1034400093F5F50F231FF7FE8507C20712A3C1836B
:10345000231FF7FE0EA38280373500208D65B70746
:1034600004601305054C9385056012213621239FC6
:10347000B7FE930580068EA32E257D16420613887F
:103480001500239FB7FE4208239007001358080138
:10349000239F07FF138825004208239007004182DD
:1034A000135808018D05239F07FFC2051358860096
:1034B00023900701C181239FB7FE1376F60F92A3D5
:1034C0005225FD16C20693051600239FC7FEC205AE
:1034D00023900700C181239FB7FE93052600C205F4
:1034E00023900700C182C1810D06239FB7FE4206CB
:1034F00093D586008EA34182239FC7FE93F6F60FD5
:1035000096A38280EFD22F81B73700209387074C94
:103510000DE537072003238307001307071E98C311
:103520003737002A130707C098C70D67130707B07E
:10353000DAA7EFF07FF26FD04F800547F8A3370787
:10354000E00113070732E1BFEFC2FFFCB7370020ED
:103550009387074C9A23A2238145AA84014533040B
:10356000E402EFF0FFEAEFF09FE9814737070460DC
:10357000639487006FC07FFC06A38507D5BFEFC2A9
:103580009FF61971854513050010EFF0DFC38545DF
:1035900013058006EFF01FC5B71401400D44916775
:1035A000414A138504C08A857C8022C252C4F179C5
:1035B000EFF05F92E14A93873973138504408A855F
:1035C0007C8056C422C2EFF0FF903725014093075C
:1035D00000F88A85130505807C8056C422C2EFF06E
:1035E0007F8F1385044005698A852310210156C405
:1035F00022C2EFF03F8E13850440130909808A85AB
:103600002310210122C2056952C4EFF0BF8C93053B
:10361000098013850440EFF03F98BD473ECA91678B
:10362000BED87C00BEDCC8003C10054BBEDE22D8F4
:10363000CAD45AC602C802CC02D202D402D602DAD6
:1036400002DC02DE82C082C282C482C6D2C882CAC2
:1036500082CE82CC82D082D282D682DAEFF00FFA8A
:1036600085450145EFF03F8513052003EFF06FE23C
:10367000B734002001451389044CEFF0DFD6231244
:10368000A90037040460930A300D231F54FFEFF0A4
:103690003FD42312A900EFF0BFD32312A900EFF00B
:1036A0003FD322052312A900EFF09FD28357490090
:1036B0009384044C5D8D2312A900231F54FFEFF067
:1036C0003FD12312A900EFF0BFD02312A900EFF0E1
:1036D0003FD022052312A900EFF09FCF8357490066
:1036E0005D8D42054181A5672312A9009387173498
:1036F0006314F5006F10402E9147231FF4FEEFF086
:103700003FCDCAA0EFF0DFCCCAA0EFF07FCC2205FE
:10371000CAA0EFF0FFCBDE205D8D42054181A1679D
:10372000CAA0938727556318F5009D6793879778FC
:10373000DEA06F10602A9D6B93879B786314F50061
:103740006F1080299307400D231FF4FEEFF05FC830
:10375000CAA0EFF0FFC7CAA0EFF09FC72205CAA01A
:10376000EFF01FC7DE2015695D8D42054181CAA0BB
:10377000930709316314F5006F100026231F54FFCF
:10378000EFF01FC5CAA0EFF0BFC4CAA0EFF05FC43E
:103790002205CAA0EFF0DFC3DE20938B6B795D8D2D
:1037A00042054181CAA0631475016F10E022FD77C4
:1037B000231FF4FE130AE4FF130750052311EA0048
:1037C00013871700231FE4FE1307A00A2311EA0042
:1037D00013872700231FE4FE130720052311EA00A7
:1037E00013873700231FE4FE21472311EA009107C6
:1037F000231FF4FE23116A0193870950231FF4FE4F
:10380000EFF01FBD2205CAA093891950231F34FF72
:10381000EFF01FBCDE20930909515D8DCAA015454C
:10382000EFF02FC7DE20638437016F10402137048B
:1038300004607D789307E4FF231F04FF930E500577
:103840002391D70113071800231FE4FE1307A00AD2
:10385000BAA393062800231FD4FE93062005B6A31F
:1038600013063800231FC4FE214E2391C7011306FF
:103870004800231FC4FE0546B2A36D77231FE4FE54
:10388000B546B6A393051700231FB4FEB6A3930550
:103890002700231FB4FE6D75B6A3930505601308BA
:1038A0004003231FB4FE2391070193051760231FD4
:1038B000B4FE2391070193052760231FB4FE2391D3
:1038C000070193050510231FB4FEB6A39305151039
:1038D000231FB4FEB6A393052710231FB4FEB6A37F
:1038E00093050570231FB4FE2391070193051570FE
:1038F000231FB4FE2391070193062770231FD4FED4
:103900002391070193060720231FD4FE239107006C
:1039100093061720231FD4FE239107009306272028
:10392000231FD4FE71732391070093050380231F87
:10393000B4FE93064002B6A393051380231FB4FE82
:10394000B6A393052380231FB4FE7175B6A3930518
:1039500005F0231FB4FEB2A393050730231FB4FE66
:10396000BD45AEA393081730231F14FFAEA39308E1
:103970002730231F14FFAEA393050590231FB4FE29
:103980002391070193051590231FB4FE239107018E
:1039900093052590231FB4FE23910701930507503B
:1039A000231FB4FE2391C70193051750231FB4FEB4
:1039B0002391C70113072750231FE4FE1307052097
:1039C0002391C7018D45231FE4FEAEA3130705A075
:1039D000231FE4FEB6A3130715A0231FE4FEB6A31E
:1039E000130725A0231FE4FEB6A3930F03C0231FD4
:1039F000F4FF23910700930F13C0231FF4FF130755
:103A00008007BAA3930F23C0231FF4FF239107005D
:103A1000930605D0231FD4FE23910700930615D0EB
:103A2000231FD4FEBAA3130725D0231FE4FE23913E
:103A30000700130705E0231FE4FE23910700130787
:103A400015E0231FE4FE13074006BAA3757793061B
:103A50000710231FD4FE2391070093061710930825
:103A60003003231FD4FE2391170193062710231F31
:103A7000D4FE2391070093063710231FD4FE239111
:103A8000070193064710231FD4FE239107009306D6
:103A90005710231FD4FE130DA0032391A7019306F3
:103AA0006710231FD4FE2391070093067710231F6E
:103AB000D4FE930CA0042391970193068710231F33
:103AC000D4FE2391070093069710231FD4FE130CF6
:103AD000C005239187019306A710231FD4FE2391CD
:103AE00007009306B710231FD4FE930B10082391F1
:103AF00077019306C710231FD4FE23910700930676
:103B0000D710231FD4FE130B600A2391670193067D
:103B1000E710231FD4FE239107009306F710231FFD
:103B2000D4FE930A500E2391570193060711231FC9
:103B3000D4FEB2A393061711231FD4FE4D4A23913E
:103B4000470193062711231FD4FEB2A39306371112
:103B500093094005231FD4FE239137019306471193
:103B6000231FD4FE93065711B2A313092008231F65
:103B7000D4FE2391270193066711231FD4FEB2A31D
:103B800093067711231FD4FE9300A00C23911700F6
:103B900093068711231FD4FE8946B6A313039711FA
:103BA000231F64FE239107001303A711231F64FE44
:103BB000B6A31303B711231F64FEB2A31303C711E7
:103BC000231F64FEB6A31303D711231F64FE2391A2
:103BD00007011303E711231F64FEB6A31303F711B4
:103BE000231F64FE930370062391770013030712CB
:103BF000231F64FEB6A313031712231F64FE930250
:103C000040082391570013032712231F64FEB6A315
:103C100013033712930F400A231F64FE2391F70109
:103C200013034712231F64FE130F700BB6A3130375
:103C30005712231F64FE2391E70113036712231F0A
:103C400064FEB6A313037712231F64FE930EF00CD9
:103C50002391D70113038712231F64FEB6A3130316
:103C60009712231F64FE130EE00D2391C701130367
:103C7000A712231F64FEB6A31303B712231F64FE0B
:103C80001303200F23916700930DC712231FB4FF66
:103C9000B6A3930DD712231FB4FF930DE00F23910A
:103CA000B701930DE712231FB4FFAEA3930DF712D4
:103CB000231FB4FFC14D2391B701930D0713231F99
:103CC000B4FFAEA3930D1713231FB4FF2391170165
:103CD000930D2713231FB4FFAEA3930D3713231F98
:103CE000B4FF930DD0062391B701930D0720231F36
:103CF000B4FF23910700930D1720231FB4FF930DEA
:103D0000272023911701231FB4FF23910700930D50
:103D10003720231FB4FF23910701930D4720231F52
:103D2000B4FF23910700930D5720231FB4FF239165
:103D3000A701930D6720231FB4FF23910700930D64
:103D40007720231FB4FF23919701930D8720231F12
:103D5000B4FF23910700930D9720231FB4FF2391F5
:103D60008701930DA720231FB4FF23910700930D14
:103D7000B720231FB4FF23917701930DC720231F82
:103D8000B4FF23910700930DD720231FB4FF239185
:103D90006701930DE720231FB4FF23910700930DC4
:103DA000F720231FB4FF23915701930D0721231FF1
:103DB000B4FFB2A3930D1721231FB4FF2391470132
:103DC000930D2721231FB4FFB2A3930D3721231F87
:103DD000B4FF23913701930D4721231FB4FFB2A3F2
:103DE000930D5721231FB4FF23912701930D6721C2
:103DF000231FB4FFB2A3930D7721231FB4FF239198
:103E00001700930D8721231FB4FFB6A3930D9721AD
:103E1000231FB4FF23910700930DA721231FB4FF95
:103E2000B6A3930DB721231FB4FFB2A3930DC721EF
:103E3000231FB4FFB6A3930DD721231FB4FF2391F3
:103E40000701930DE721231FB4FFB6A3930DF721BC
:103E5000231FB4FF23917700930D0722231FB4FF84
:103E6000B6A3930D1722231FB4FF23915700930D80
:103E70002722231FB4FF930D3722B6A3231FB4FFBD
:103E80002391F701930D4722231FB4FFB6A3930D8F
:103E90005722231FB4FF2391E701930D6722231FAD
:103EA000B4FFB6A3930D7722231FB4FF2391D7014C
:103EB000930D8722231FB4FFB6A3930D9722231FD0
:103EC000B4FF2391C701930DA722231FB4FFB6A30C
:103ED000930DB722231FB4FF23916700930DC722D0
:103EE000231FB4FFB6A3930DD722231FB4FF930D56
:103EF000E00F2391B701930DE722231FB4FFAEA378
:103F0000930DF722231FB4FFC14D2391B701930DE9
:103F10000723231FB4FFAEA3930D1723231FB4FF62
:103F200023911701930D2723231FB4FFAEA3930DF5
:103F30003723231FB4FF930DD0062391B701930DB0
:103F40000730231FB4FF23910700930D1730231F61
:103F5000B4FF23911701930D2730231FB4FF239142
:103F60000700930D3730231FB4FF23910701930DF2
:103F70004730231FB4FF23910700930D5730231FB1
:103F8000B4FF2391A701930D6730231FB4FF239142
:103F90000700930D7730231FB4FF23919701930DF2
:103FA0008730231FB4FF23910700930D9730231F01
:103FB000B4FF23918701930DA730231FB4FF2391F2
:103FC0000700930DB730231FB4FF23917701930DA2
:103FD000C730231FB4FF23910700930DD730231F51
:103FE000B4FF23916701930DE730231FB4FF2391A2
:103FF0000700930DF730231FB4FF930D0731239172
:104000005701231FB4FFB2A3930D1731231FB4FF31
:1040100023914701930D2731231FB4FFB2A3930DC2
:104020003731231FB4FF23913701930D4731231FED
:10403000B4FFB2A3930D5731231FB4FF239127017F
:10404000930D6731231FB4FFB2A3930D7731231F64
:10405000B4FF23911700930D8731231FB4FFB6A33C
:10406000930D9731231FB4FF23910700930DA731C0
:10407000231FB4FFB6A3930DB731231FB4FFB2A320
:10408000930DC731231FB4FFB6A3930DD731231F60
:10409000B4FF23910701930DE731231FB4FFB6A3AB
:1040A000930DF731231FB4FF23917700930D07324F
:1040B000231FB4FFB6A3930D1732231FB4FF239120
:1040C0005700930D2732231FB4FFB6A3930D373249
:1040D000231FB4FF2391F701930D4732231FB4FF31
:1040E000B6A3930D5732231FB4FF2391E701930D1D
:1040F0006732231FB4FFB6A3930D7732231FB4FF9B
:104100002391D701930D8732231FB4FFB6A3930DDC
:104110009732231FB4FF2391C701930DA732231FAA
:10412000B4FFB6A3930DB732231FB4FF23916700EA
:10413000930DC732231FB4FFB6A3930DD732231FAD
:10414000B4FF930DE00F2391B701930DE732231FC6
:10415000B4FFAEA3930DF732231FB4FFC14D2391DB
:10416000B701930D0733231FB4FF930D1733AEA38D
:10417000231FB4FF23911701930D2733231FB4FF8F
:10418000AEA3930D3733231FB4FF930DD0062391B5
:10419000B701930D0740231FB4FF23910700930D30
:1041A0001740231FB4FF23911701930D2740231FAE
:1041B000B4FF23910700930D3740231FB4FF2391D1
:1041C0000701930D4740231FB4FF23910700930D70
:1041D0005740231FB4FF2391A701930D6740231F6E
:1041E000B4FF23910700930D7740231FB4FF239161
:1041F0009701930D8740231FB4FF23910700930D70
:104200009740231FB4FF23918701930DA740231FDD
:10421000B4FF23910700930DB740231FB4FF2391F0
:104220007701930DC740231FB4FF23910700930D1F
:10423000D740231FB4FF23916701930DE740231F4D
:10424000B4FF23910700930DF740231FB4FF239180
:104250005701930D0741231FB4FFB2A3930D1741DC
:10426000231FB4FF23914701930D2741231FB4FF60
:10427000B2A3930D3741231FB4FF23913701930D50
:104280004741231FB4FFB2A3930D5741231FB4FF2F
:1042900023912701930D6741231FB4FFB2A3930D10
:1042A0007741231FB4FF23911700930D8741231FEC
:1042B000B4FFB6A3930D9741231FB4FF23910700CA
:1042C000930DA741231FB4FFB6A3930DB741231F3E
:1042D000B4FFB2A3930DC741231FB4FFB6A3930D40
:1042E000D741231FB4FF930DE74123910701231FFB
:1042F000B4FFB6A3930DF741231FB4FF23917700BA
:10430000930D0742231FB4FFB6A3930D1742231F3B
:10431000B4FF23915700930D2742231FB4FFB6A388
:10432000930D3742231FB4FF2391F701930D4742AA
:10433000231FB4FFB6A3930D5742231FB4FF23914D
:10434000E701930D6742231FB4FFB6A3930D774295
:10435000231FB4FF2391D701930D8742231FB4FF7E
:10436000B6A3930D9742231FB4FF2391C701930D6A
:10437000A742231FB4FFB6A3930DB742231FB4FF78
:1043800023916700930DC742231FB4FFB6A3930D7B
:10439000D742231FB4FF930DE00F2391B701930D74
:1043A000E742231FB4FFAEA3930DF742231FB4FFD0
:1043B000C14D2391B701930D0743231FB4FFAEA353
:1043C000930D1743231FB4FF23911701930D274328
:1043D000231FB4FFAEA3930D3743231FB4FF930DE8
:1043E000D0062391B701930D0750231FB4FF2391EB
:1043F0000700930D1750231FB4FF23911701930D4E
:104400002750231FB4FF23910700930D3750231F1C
:10441000B4FF23910701930D4750231FB4FF23914D
:104420000700930D5750231FB4FF2391A701930D4D
:104430006750231FB4FF23910700930D7750231F6C
:10444000B4FF23919701930D8750231FB4FF23914D
:104450000700930D9750231FB4FF23918701930DFD
:10446000A750231FB4FF930DB75023910700231FBC
:10447000B4FF23917701930DC750231FB4FF2391FD
:104480000700930DD750231FB4FF23916701930DAD
:10449000E750231FB4FF23910700930DF750231F0C
:1044A000B4FF23915701930D0751231FB4FFB2A30B
:1044B000930D1751231FB4FF23914701930D2751EB
:1044C000231FB4FFB2A3930D3751231FB4FF2391D1
:1044D0003701930D4751231FB4FFB2A3930D5751DA
:1044E000231FB4FF23912701930D6751231FB4FFAE
:1044F000B2A3930D7751231FB4FF23911700930D9F
:104500008751231FB4FFB6A3930D9751231FB4FF08
:1045100023910700930DA751231FB4FFB6A3930D5A
:10452000B751231FB4FFB2A3930DC751231FB4FF8C
:10453000B6A3930DD751231FB4FF23910701930D09
:10454000E751231FB4FFB6A3930DF751231FB4FF08
:1045500023917700930D0752231FB4FFB6A3930D49
:104560001752231FB4FF23915700930D2752231F87
:10457000B4FFB6A3930D3752231FB4FF2391F70165
:10458000930D4752231FB4FFB6A3930D5752231F19
:10459000B4FF2391E701930D6752231FB4FFB6A325
:1045A000930D7752231FB4FF2391D701930D8752A8
:1045B000231FB4FFB6A3930D9752231FB4FF23917B
:1045C000C701930DA752231FB4FFB6A3930DB75293
:1045D000231FB4FF930DC75223916700231FB4FF1D
:1045E000B6A3930DD752231FB4FF930DE00F239171
:1045F000B701930DE752231FB4FFAEA3930DF752FB
:10460000231FB4FFC14D2391B701930D0753231FFF
:10461000B4FFAEA3930D1753231FB4FF23911701CB
:10462000930D2753231FB4FFAEA3930D3753231FBE
:10463000B4FF930DD0062391B701930D0760231F9C
:10464000B4FF23910700930D1760231FB4FF23913C
:104650001701930D2760231FB4FF23910700930DCB
:104660003760231FB4FF23910701930D4760231F79
:10467000B4FF23910700930D5760231FB4FF2391CC
:10468000A701130D6760231FA4FF23910700130DDB
:104690007760231FA4FF23919701930C8760231F4A
:1046A00094FF23910700930C9760231F94FF23919D
:1046B0008701130CA760231F84FF23910700130CAD
:1046C000B760231F84FF23917701930BC760231FDB
:1046D00074FF23910700930BD760231F74FF23916E
:1046E0006701130BE760231F64FF23910700130B7F
:1046F000F760231F64FF23915701930A0761231F6B
:1047000054FFB2A3930A1761231F54FF239147015B
:10471000130A2761231F44FFB2A3130A3761231F23
:1047200044FF2391370193094761231F34FFB2A34C
:1047300093095761231F34FF2391270113096761F0
:10474000231F24FFB2A313097761231F24FF2391A2
:10475000170093008761231F14FE93009761B6A38F
:10476000231F14FE239107009300A761231F14FE4B
:10477000B6A39300B761231F14FEB2A39300C761D1
:10478000231F14FEB6A39300D761231F14FE2391A9
:1047900007011308E761231F04FFB6A31308F7619D
:1047A000231F04FF2391770013080762231F04FFD0
:1047B000B6A313081762231F04FF239157001308A1
:1047C0002762231F04FFB6A313083762231F04FFC9
:1047D0002391F70113084762231F04FFB6A31308B0
:1047E0005762231F04FF2391E70113086762231F09
:1047F00004FFB6A313087762231F04FF2391D70198
:1048000013088762231F04FFB6A313089762231FB0
:1048100004FF2391C7011308A762231F04FFB6A357
:104820001308B762231F04FF239167001308C762B0
:10483000231F04FFB6A31308D762231F04FF930DA1
:10484000E00F2391B7011308E762231F04FFAEA313
:104850001308F762231F04FFC14D2391B70113080A
:104860000763231F04FFAEA313081763231F04FF6E
:104870002391170113082763231F04FFAEA3130816
:104880003763231F04FF930DD0062391B7017D7872
:10489000231F04FF930E50052391D701930F180097
:1048A000231FF4FF130FA00A2391E701930F2800A1
:1048B000231FF4FF130F20052391E701130F380086
:1048C000231FE4FF214E2391C7011108ED78231F18
:1048D00004FF2391070013880810231F04FF130807
:1048E000C00C2391070113881810231F04FF239184
:1048F000070013880860231F04FF15482391070150
:1049000013880870231F04FF130800072391070171
:1049100093881870231F14FF7173239107011308E4
:104920000380231F04FFB2A313081380231F04FF77
:10493000AEA313082380231F04FFAEA31305358005
:10494000231FA4FEAEA3930503C0231FB4FEB6A38A
:10495000930513C0231FB4FE23910700130623C041
:10496000231FC4FE2391070013060790231FC4FED4
:104970001306000DB2A313061790231FC4FEB6A39F
:1049800093062790231FD4FE93060005B6A31306B3
:104990003790231FC4FEB6A313074790231FE4FEDE
:1049A0000D69B6A313070950231FE4FE1167239175
:1049B0000700130707A0231FE4FE2391D701856793
:1049C00093870710231FF4FE13058007130909902E
:1049D000EFE02FA8231F24FFDA20A5679387173461
:1049E0006300F702ED77938707CFBA9793F7F7DF66
:1049F000C207C18391C7896793873796631FF70002
:104A0000C2577D771307F70FF98F225793E70740B7
:104A10003ED8419B136747003AD40545EFE09FAE6F
:104A2000371501409165130505C0EFE0AFD621654C
:104A30001305C5D7EFE05FB109616FB09FAE231FCB
:104A400054FFEFE0FF98CAA0EFE09F98CAA0EFE004
:104A50003F982205CAA0EFE0BF97DE205D8D42059A
:104A60004181A967CAA093876780E307F5F693079A
:104A7000100A231FF4FEEFE0BF95CAA0EFE05F9598
:104A80002205CAA0EFE0DF94DE20130919765D8DC0
:104A900042054181CAA0631725018967938737962C
:104AA0006FE01FC9631435016FE07FD835B7B737A2
:104AB00000201387074C5623156713070751938768
:104AC000074C6391E604BA27B70604609358850043
:104AD000239FE6FE05074207239016014183239F8B
:104AE000E6FE1375F50F8AA2DA2713D5850093F534
:104AF000F50F239FE6FE050742078AA24183239F05
:104B0000E6FE8EA29627B7070460239FD7FE92A3E6
:104B10008280EFB25F9D13F4760093D73600333472
:104B200080003E9493D716003304F402930406FEEB
:104B3000011193F4F40F314693094002356AB16ACA
:104B4000316BB16B9377F40F3EC6939764003ECA06
:104B5000939744003EC8B387C4022A8DAE8DAE8CB5
:104B6000014C130A4A3D938A8A67130B8B08938B77
:104B70004BC1B38934033EC4B2471376FC0F63655F
:104B8000F60005616FB0FF9931466391C608A247F0
:104B90003306FC005E96938E8C00042213940E0163
:104BA0003739002041801309094C1396840161862E
:104BB00063560608B707002003D68729E6856A856D
:104BC0003ACE36CCEFF0BFEEE246724793871C0038
:104BD00003562900939C07011398140093DC0C01E1
:104BE0009374F80FE3FFCCF83386BC416314D60608
:104BF00013031D0083570900131D0301135D0D01ED
:104C0000E371FDF86E84050CA28CBDB74146639735
:104C1000C600C2473306FC005A96B5BF614663968C
:104C2000C60033063C015696BDB713060002E39A50
:104C3000C6F4D2473306FC005296B1BF41FB03D6FF
:104C40000181E6856A853ACE36CCEFF05FE67247A1
:104C5000E246ADBFE31B94F57DB7EFB25F892A96BC
:104C6000AE9613190601939906014111AE841359AA
:104C7000090193D909013A8A135B17002A84930A20
:104C8000E005937BF50F9023130706FE1377F70FCC
:104C900063F5EA0041016FB01F8963662401D29475
:104CA000C2045E84C1803EC6E3F634FF2285054718
:104CB000D286A685EFF0FFE5B2475A9442044180C0
:104CC0008507D1B7EFB29F833309A640B384B640BE
:104CD000050985044209C2044111AA892E8A135983
:104CE0000901C1800144B70A046063659400410171
:104CF0006FB01F84B3054401C205C1814E853AC619
:104D0000EFE00FF1EFE0AFEF3247814763E62701B5
:104D1000050442044180D1BF8507C2072390EA0001
:104D2000C183EDB7EFB22FFC3304A6402A8BAE8CC3
:104D3000B384B640854B63478000814B01C4330484
:104D4000C540FD5B054C63479000014C81C4B384B2
:104D5000D5407D5C2289635394002689416D814A48
:104D6000014A8149930D19007D1D63D43D016FB047
:104D70004FFB93950C0113150B016A86C18141818C
:104D8000229AEFF0DFD2A69A63554901330A2A41ED
:104D90005E9B63555901B38A2A41E29C8509C20989
:104DA00093D90901D9B7EFB26FF53684AE86B289CF
:104DB0002A89AE84EFF01FF7A2864A86A6854A8527
:104DC000EFF05FF6A2864E86A2854A85EFF09FF54A
:104DD000A2864E86A6854E85EFF0DFF46FB04FF5C4
:104DE000EFB26FF0931716008D49416441112A8B81
:104DF000AE8BB28AB389F940014A7D1413190A01B6
:104E000093940A0113590901C180B3076901B38C56
:104E10009B40C207C20CC18393DC0C01B38D6401BB
:104E2000338C2B413E852286E685C20D420C3EC660
:104E300093DD0D01EFF0BFC7135C0C01330D790159
:104E40006E852286E285420DEFF07FC6135D0D016F
:104E50006E852286EA85EFF09FC5B247B38D740157
:104E6000C20D93DD0D0133092B413E852286EE856F
:104E70004209EFF0DFC313590901B3049B402286B6
:104E8000EE854A85C204EFF09FC2C1802286EA8582
:104E90002685EFF0DFC12286E6854A85EFF03FC127
:104EA0002286E2852685EFF09FC0050A63DB0900B4
:104EB00093172A009907BE99E3D24AF541016FB0D2
:104EC0004FE6B3075A418A07A907BE99FD1AEDB705
:104ED00013577501370680009307F6FF1377F70F16
:104EE0009305E007B3F6A7009357F501014563F476
:104EF000E50099C3828082809307E0097D55E3EB4A
:104F0000E7FE93055009B3E7C60063D7E500130732
:104F1000A7F63395E7008280130560093307E54063
:104F200033D5E7008280938741819C439C5389E776
:104F300097B7FF1F9387071403A5C70E8280938737
:104F40004181AA85884359AA91ED41116C00014520
:104F500001CA795591C61C229CC108223335A00094
:104F600041018280014509CA795599C61C229CC11C
:104F700008223335A00082808280B3C7A5008D8BC4
:104F80003307C50081E78D4763EDC700AA87637EBD
:104F9000E508942185078505A38FD7FEE3EBE7FE9F
:104FA000828093763500AA8789CA94218507850572
:104FB000A38FD7FE93F63700C5BF9376C7FF13863E
:104FC00006FE63F0C70683A3050083A2450083AFF6
:104FD000850003AFC50083AE050103AE450103A301
:104FE000850183A8C5019385450223A0770003A806
:104FF000C5FF23A2570023A4F70123A6E70123A896
:10500000D70123AAC70123AC670023AE17019387FA
:10501000470223AE07FF75B790419107910523AE74
:10502000C7FEE3EBD7FEE3E6E7F68280DDC583A7A4
:10503000C5FF411122C406C626C21384C5FF63D32F
:1050400007003E94AA84EF30805F97B7FF1F9387D5
:1050500027259C4391EF2322040097B7FF1F23A12C
:1050600087242244B2402685924441016F30405D3E
:10507000637EF40014403307D4006396E70098433E
:10508000DC43369718C05CC0C9BFBA87D84319C380
:10509000E37DE4FE94433386D700631F860010400F
:1050A000B29694C33386D700E31DC7FA1043584322
:1050B000B29694C3D8C375B76375C400B1479CC09A
:1050C0004DB71040B306C4006316D70014435843CD
:1050D000B29614C058C0C0C369B78280011126CAF5
:1050E00093843500F19806CE22CC4AC84EC6A1045E
:1050F000B14763FBF404B14463EAB4042A89EF3096
:10510000005497B7FF1F9387A71998433A8429E85B
:1051100097B7FF1F938707199C4389EB81454A8501
:10512000EF00503B97B7FF1F23AEA716A6854A8511
:10513000EF00503AFD59631B3507B1472320F900B2
:105140004A85EF30E04F29A0E3D804FAB1471CC1EB
:105150000145F2406244D2444249B249056182802D
:105160001C40858F63C10704AD4663F6F6001CC082
:105170003E9404C001A85C406315870217B7FF1F67
:105180002320F7124A85EF30A04B1305B400930794
:10519000440061993307F5404DDF3A94898F1CC074
:1051A0004DBF5CC3C5B72287404095B71304350097
:1051B0007198E30085FCB305A4404A85EF00903167
:1051C000E31935FB9DBF797122D44AD052CC56CA1F
:1051D0005AC806D626D24ECE3A8AAE8A328436894C
:1051E000428B014763580600370700803344C700ED
:1051F0001307D00298A393F4F8FD930760048D463B
:105200006388F4009307500489466393F40005090A
:10521000DA879308C100130881004A87D685228661
:10522000EF10703E93077004AA896396F400137A16
:105230001A00630A0A0493076004338A29016397FA
:10524000F40203C7090093070003631EF700014639
:1052500081465685A285EF40107911C5854733896F
:10526000274123202B0183270B003E9A01468146CC
:105270005685A285EF40307711E152C6130700032F
:10528000B24763E24703B2474257B2502254B38752
:1052900037411CC34E8592540259F249624AD24AA0
:1052A000424B456182809386170036C698A3C9BFDA
:1052B00010A1130725009307B00263D60500B305BC
:1052C000B0409307D0021CB1A54763DAB70441117F
:1052D0009307F100BE88294813033006B3E605039F
:1052E0001386F7FF93860603A38FD7FEB3C6050385
:1052F000634DB30093860603F917A30FD6FE63E947
:1053000017013305A74041018280B287B685F9B7FE
:10531000850783C6F7FF0507A30FD7FECDB7930711
:10532000000313074500938505033CA12CB1330509
:10533000A740828019713ACE86DEA2DCA6DA2E84DE
:10534000CAD8CED6D2D4B689DAD0DECEE2CC328973
:10535000D6D2E6CAEAC8EEC6AA84EF30801C832BF8
:1053600005005E85EF00301A032B0400724702DC53
:1053700093760B102A8C034A84011C43F1CA93864E
:10538000470014C39C43081098433AD0D8433AD2FC
:1053900098473AD4DC473ED6EF60A00128C46CC4DD
:1053A000832CC40417A7000013074780832A8404B2
:1053B000032D0700832D470093971C0085836A8681
:1053C000EE865685BE853ECEEF50303E41EDF2472B
:1053D0006A86EE865685BE85EF4070726354A008DB
:1053E000014681465685E685EF407071635605009B
:1053F0009307D002A301F40493077004979A000066
:10540000938A4A7B63F64701979A0000938ACA7A87
:10541000137BBBFF8D47232064011CC8014B4E87C3
:10542000CA867018A2852685C12EFD5C631E95155F
:105430007D55F6506654D6544659B659265A965A52
:10544000065BF64B664CD64C464DB64D09618280E4
:105450009D07E19B9386870014C39843DC4338C4BF
:105460007CC43DBF5686E6865685E685EF50F03310
:1054700011CD93077004979A0000938A2A74E3F978
:1054800047F9979A0000938AAA7359B75C407D57F1
:10549000137DFA0D6395E70899475CC05440136784
:1054A0000B403C18D6853EC018C09307310302C29A
:1054B000D2881308410366862685EFF0DFD0930774
:1054C0007004AA8AD255631BFD00F55763C5F50029
:1054D0005C4063D8B708791A137AFA0F930750061D
:1054E00063E64705FD155286130504052EDAEFF035
:1054F0003FDC625785462A8BB307A7001CC863C5EB
:10550000E6001840058B19C385071CC88347310383
:10551000E38707F09307D002A301F40409B7130748
:105520007004E31DEDF6BDFB854785BF930760065C
:10553000631BFA025C40635BB0000CC881E7184053
:10554000058B09CF8507AE971CC809A889E71840C5
:105550008546058B19C39386270014C82CCC014BB4
:1055600075B7130A7006E25763C9F5001C400CC8F2
:10557000858BEDD793871500C1BF05476344B00005
:1055800009470D8FBA97C9B71C4013F7074015E3B9
:1055900014485686CA8526858299E30B95E91C40F6
:1055A000898B63960724F2574844E354F5E83E8517
:1055B00049B513075006637B471928446C440146DC
:1055C0008146EF40504239E98546179600001306A0
:1055D000665FCA8526858299E30C95E55257E257A6
:1055E0006345F7001C40858BDDDBE2865E86CA855D
:1055F00026858299FD57E30DF5E2014A930AA4013D
:105600007D5BE257FD17E35CFAF885465686CA854E
:1056100026858299E30E65E1050AE5B7D257634610
:10562000F0068546179600001306C659CA852685DA
:105630008299E30F95DFD2576257D98F81E71C40DB
:10564000858BB1DFE2865E86CA8526858299FD5705
:10565000E300F5DE014A130BA401FD5BD257B3074B
:10566000F040634BFA00E2565686CA852685829939
:10567000FD57E316F5F26DBB85465A86CA85268529
:105680008299E30775DB050AD1BF3C4C625A63D3AC
:1056900047013E8A635A4001D2865686CA852685CE
:1056A0008299FD57E306F5D8814C130DA401FD5DE9
:1056B00009A885466A86CA8526858299E30AB5D7F0
:1056C000850C032B8405D28763530A008147B307F7
:1056D000FB40E3C0FCFE5257E257634DF7021C400B
:1056E000858B8DEBE2575257338AE7406344EB00DA
:1056F000338A6741635B4001D28633866A01CA857B
:1057000026858299FD57E305F5D2814A130BA40142
:10571000FD5B15A0E2865E86CA8526858299FD57C7
:10572000E312F5FC31B385465A86CA8526858299EF
:10573000E30075D1850A5257E257998F5287635318
:105740000A000147998FE3C0FAFE91BDE256054772
:105750006344D700858BB5C785465686CA8526859E
:1057600082997D5AE30645CDE2865E86CA85268506
:105770008299E30F45CB28446C4401468146EF40B3
:1057800090261DC9E25613861A00CA85FD16268585
:105790008299E30F45C9DA8613060405F9B58546F3
:1057A0005686CA8526858299E30475C9050AE2579B
:1057B000FD17E346FAFEC5B7014A930AA401FD5B53
:1057C000FDB785465686CA8526858299E31595FDDF
:1057D00085B185465686CA8526858299E30A65C5C0
:1057E000050A5C447257998FE345FAFE6DBB014A86
:1057F000930A94017D5BF5B7797156CA9C49BA8AC0
:10580000984522D426D24ECE52CC06D64AD05AC87B
:105810005EC6AA892E84B284368A63D3E700BA872B
:105820009CC00347340419C385079CC01C4093F7F0
:10583000070281C79C4089079CC003290400137993
:105840006900631A0900130B9401FD5B5C449840E6
:10585000998F634CF9041C408346340493F7070284
:10586000B336D000A5EB13063404D2854E85829A58
:10587000FD576303F5041C4011469840998B54442E
:1058800081446397C700B384E64063D30400814436
:105890001C4418486354F700998FBE940149690469
:1058A0007D5B63982405014509A885465A86D28503
:1058B0004E85829A631E75017D55B25022549254D2
:1058C0000259F249624AD24A424BB24B4561828048
:1058D0000509ADBF3307D40013060003A301C704B5
:1058E0000347540493871600A2978906A381E7040F
:1058F0009DBF85462286D2854E85829AE30E65FB42
:10590000050945B7797122D426D24AD04ECE06D6A3
:1059100052CC56CA5AC8B689942D9307900632893C
:10592000AA842E8413863504638DF60263E2D706BB
:10593000930780056387F61863EDD700638F062011
:1059400093073004638FF60A930A24042301D404D6
:10595000D1A0930730066386F60A93074006E395C5
:10596000F6FE1C40084393F6070893054500CDC694
:105970001C410CC363D807001307D002B307F040E3
:10598000A301E404979600009386062429476DA896
:10599000930700076383F61663E5D7029307E006D3
:1059A000638AF6189307F006E390F6FA0C401C435E
:1059B00013F80508138547006308080608C39C43CD
:1059C0008DA893075007E383F6FE93078007638A49
:1059D000F61293073007E399F6F61C43D041814550
:1059E0009386470014C383AA07005685EF20B0436F
:1059F00001C53305554148C05C401CC8A3010404DF
:105A000061A81C43930A2404938647009C4314C353
:105A10002301F4048547D5B793F607041C410CC352
:105A2000B1DAC207C187B9B793F5050408C3C1D974
:105A30009E231307F0066387E60E97960000938671
:105A4000A6182947A30104044C400CC463C50500F3
:105A500008406D9908C099E3B28A89CDB28AB3F53E
:105A6000E702FD1AB6958C212380BA00B3D5E70270
:105A700063F0E70CA147631EF7001C40858B91CBB8
:105A800058401C4863C7E70093070003A38FFAFE42
:105A9000FD1A3306564110C84E87CA867000A2858B
:105AA0002685EFF07FD57D5A631D450B7D55B2509D
:105AB000225492540259F249624AD24A424B4561F9
:105AC0008280A382D504979600009386E60F0C404F
:105AD000084313F805081C411105630D080208C3AB
