:100000006F30F068130000001300000013000000C0
:100010001300000013000000130000001300000094
:100020001300000013000000130000001300000084
:08003000130000007300100032
:100038000000000000000000D20E0000D60E0000F4
:1000480000000000D43D0000000000000000000097
:10005800D63D0000D83D0000000000000000000070
:10006800D41F000000000000000200000000000093
:10007800DE3D0000E03D0000E23D0000E43D000000
:10008800E63D0000E83D0000EA3D0000EC3D0000D0
:10009800EE3D0000F03D0000F23D0000F43D0000A0
:1000A800F63D0000F83D0000FA3D0000FC3D000070
:1000B800FE3D0000003E0000023E0000043E00003D
:1000C800063E0000083E00000A3E00000C3E00000C
:1000D8000E3E0000103E0000123E0000143E0000DC
:1000E800163E0000183E00001A3E00001C3E0000AC
:1000F8001E3E0000203E0000223E0000243E00007C
:10010800263E0000843C0000DC3C00002C3E000041
:100118002E3E0000303E0000323E0000343E00001B
:10012800363E0000383E00003A3E00003C3E0000EB
:100138003E3E0000403E0000423E0000443E0000BB
:10014800463E0000483E00004A3E00004C3E00008B
:100158004E3E0000503E0000523E0000543E00005B
:10016800563E0000583E00005A3E00005C3E00002B
:100178005E3E0000603E0000623E0000643E0000FB
:10018800663E0000683E00006A3E00006C3E0000CB
:100198006E3E0000703E0000723E0000743E00009B
:1001A800763E0000783E00007A3E00007C3E00006B
:1001B8007E3E0000803E0000823E0000843E00003B
:1001C800863E0000883E00008A3E00008C3E00000B
:1001D8000000000000000000000000000000000017
:1001E8000000000000000000000000000000000007
:0801F8000000000000000000FF
:10020000130181F806C216C41AC61EC822CA26CC1B
:100210002ACE2ED032D236D43AD63ED842DA46DC76
:100220004ADECEC0D2C2D6C4DAC6DEC8E2CAE6CC46
:10023000EACEEED0F2D2F6D4FAD6FED8F3220030CF
:1002400096DA9702002083A2220123A02200F32540
:1002500010342EC09305000273A0458003A1818154
:10026000EF20F07D17030020032303FF0321030089
:10027000824273901234D652739002309240A2425E
:100280003243C2435244E244724582551256A2564A
:100290003257C2575258E25872598649164AA64AEE
:1002A000364BC64B564CE64C764D865D165EA65ECA
:1002B000365FC65F13018107730020301300000012
:1002C00013000000130000001300000013000000E2
:1002D00013000000130000001300000013000000D2
:1002E00013000000130000001300000013000000C2
:1002F00013000000130000001300000013000000B2
:1003000083A28181938202E073900234170100205E
:10031000032181F4024182403243C2435244E24409
:10032000724582551256A2563257C2575258E25859
:1003300072598649164AA64A364BC64B564CE64C6D
:10034000764D865D165EA65E365FC65FD652A1020A
:1003500073900230A24213018107828013000000D3
:100360001300000013000000130000001300000041
:100370001300000013000000130000001300000031
:100380001300000013000000130000001300000021
:100390001300000013000000130000001300000011
:1003A0001300000013000000130000001300000001
:1003B00013000000130000001300000013000000F1
:1003C00013000000130000001300000013000000E1
:1003D00013000000130000001300000013000000D1
:1003E00013000000130000001300000013000000C1
:1003F00013000000130000001300000013000000B1
:10040000F322003093F272FF130380781203B3E2F9
:100410006200711523205500130585FA10C12115BE
:10042000232005009302000063870200711523203A
:100430000500FD12D5BF71150CC1828000000000BF
:1004400000000000000000000000000000000000AC
:10045000000000000000000000000000000000009C
:10046000000000000000000000000000000000008C
:10047000000000000000000000000000000000007C
:10048000000000000000000000000000000000006C
:10049000000000000000000000000000000000005C
:1004A000000000000000000000000000000000004C
:1004B000000000000000000000000000000000003C
:1004C000000000000000000000000000000000002C
:1004D000000000000000000000000000000000001C
:1004E000000000000000397101436EC619A0397187
:1004F00041536AC866CA62CC5ECE19A039710153F5
:100500005AD056D252D44ED64AD826DA22DC06DE4B
:1005100033016140828241114AC026C222C406C60C
:100520008282B24D4101024D924C224CB24B4101AC
:10053000024B924A224AB249410102499244224462
:10054000B240410182803D432A876373C30293779F
:10055000F700BDEFADE5937606FF3D8ABA960CC372
:100560004CC30CC74CC74107E36BD7FE11E2828036
:10057000B306C3408A069702000096966780A600DD
:100580002307B700A306B7002306B700A305B700EB
:100590002305B700A304B7002304B700A303B700E3
:1005A0002303B700A302B7002302B700A301B700DB
:1005B0002301B700A300B7002300B700828093F5A2
:1005C000F50F93968500D58D93960501D58D61B76E
:1005D000939627009702000096968682E78086FA17
:1005E0009680C1171D8F3E96E374C3F8A5B7336795
:1005F000B500FD530D8B79E7B7877F7F9387F7F7BA
:1006000010419441B372F6003363F600BE92B3E238
:1006100062006395720C6318D6065041D441B372E0
:10062000F6003363F600BE92B3E262006396720A8C
:10063000631BD60410459445B372F6003363F6008D
:10064000BE92B3E26200639F7208631ED6025045F9
:10065000D445B372F6003363F600BE92B3E2620093
:10066000639872086311D60210499449B372F60078
:100670003363F600BE92B3E26200639172085105E3
:10068000D105E30FD6F61317060193970601631CF5
:10069000F7001357060193D706013305F74093750A
:1006A000F50F91E982804183C1833305F74093754B
:1006B000F50F91E182801377F70F93F7F70F33056A
:1006C000F740828010219421050585056313D6002B
:1006D00075FA3305D640828011059105E314D6FEE4
:1006E000014582802105A105E31ED6FC01458280DB
:1006F0003105B105E318D6FC014582804105C105ED
:10070000E312D6FC01458280EFF2FFE041118545FE
:100710002145EF30B04037140140C1473EC68D44FB
:1007200089474C00130504C07C8226C4EF30D00CEE
:1007300091473EC64C008547130504C07C8226C401
:10074000EF30900B4101D5BBEFF2FFDC2A86371565
:1007500001408945130505C0EF303017F9BBEFF2B2
:100760009FDB411185452145EF30503B91473714C0
:1007700001403EC685477C824C008D47130504C06E
:100780003EC4EF3070078545130504C0EF30D0122A
:10079000410165B3EFF23FD8D93701457537C1370D
:1007A0007DFD0545EF30005DE14401440545693FAD
:1007B00001450604513F653711C10504FD1493F44A
:1007C000F40FEDF4054549370145BD3F370580007D
:1007D000218DA5B3EFF23FD4411129466C00EF7093
:1007E000D009B2478387070099E71307F00F937783
:1007F000F50F637CA70083A7418137D5000013055F
:10080000C506CC47EF50B02C81473E85410135B33A
:10081000EFF27FD0B70700203707002003274720DB
:1008200083A787203704002013040420998F130521
:1008300005131CC045371C40130745016368F700CA
:10084000311533B5A70013451500C5B90145F5BFEE
:10085000EFF27FCC37D500001305C508EF603003F9
:10086000056513058538EF20301737D500001305CF
:10087000050AEF60D0011305803EEF20F01575B931
:10088000EFF2DFC737D900001305490AEF603000E7
:100890001305803EEF205014B7D90000B7040020A4
:1008A0009385C90A1385042E37040020EF60300CAD
:1008B0002328A420B70A00201304042137DB0000FA
:1008C0001C40138ACA20B5C737D500001305850C14
:1008D000EF60E07B1305803EEF20101037D9000059
:1008E0001305C90DEF60A07A1305803EEF20D00EEE
:1008F000B7D900009385890E1385042EEF60300769
:1009000008C0B7DA00001C40B9CF37D50000130586
:100910004510EF60C0770566130606808145138594
:10092000042E23100A0005311305803EEF20D00A63
:1009300001B113054B0BEF6080751305803EEF206E
:10094000B0091305490A23100A00EF60407413052B
:10095000803EEF2070089385C90A1385042EEF604E
:10096000100108C0B1BF13854A0FEF604072130534
:10097000803EEF2070061305C90D23100A00EF60BA
:1009800000711305803EEF2030059385890E138595
:10099000042EEF60C07D08C0BDB7EFF23FB637D57B
:1009A000000013054522EF60806E1305803EEF20A6
:1009B000B00237D9000037040020930549231305FE
:1009C000042EB7040020EF60807A23A8A420370A01
:1009D000002093840421B7DA000037DB00009C403C
:1009E0009309CA208DC737D5000013054526EF604F
:1009F000006A05661306068081451305042E2390C0
:100A0000090091361305803EEF20007D15B6138551
:100A10000A24EF60C0671305803EEF20E07B1305DA
:100A20004B2523900900EF6080661305803EEF2080
:100A3000A07A930549231305042EEF60407388C004
:100A400079BFEFF2DFAA37D9000013054927EF601D
:100A500000641305803EEF20207837DA0000370469
:100A600000209305CA2B1305042EB7040020EF6065
:100A7000007023A8A420B70A00209384042137DB48
:100A800000009C409389CA20DDC337D500001305C0
:100A9000C52E0569EF60A05F130909804A8681456C
:100AA0001305042E23900900793C1305803EEF20A6
:100AB000A07237DA000013058A30EF60405D13053D
:100AC000803EEF206071B7DA000093858A3213050B
:100AD000042EEF60C06988C0B7DB000037DC00007F
:100AE0009C4095E393858B331305042EEF602068BB
:100AF0002A8B88C04A8681451305042E239009005D
:100B0000993463000B0637D5000013058534EF6078
:100B1000005805661306068081451305042E2390B0
:100B2000090015341305803EEF20006BEDBA130564
:100B30000B2DEF60C0551305803EEF20E0691305D3
:100B4000492723900900EF6080541305803EEF2071
:100B5000A0689305CA2B1305042EEF60406188C07E
:100B60000DB713058C35EF6080521305803EEF20E2
:100B7000A06613058A30EF60805193858A32130591
:100B8000042EEF60C05E88C04A8681451305042E9E
:100B9000239009004D3AA9B7EFF25F9637D90000CC
:100BA00013058936EF60A04E1305007DEF20C0626B
:100BB000B7D90000370400209385493A1305042E65
:100BC000B7040020EF60A05A23A8A420B70A002091
:100BD0009384042137DB00009C40138ACA209DC700
:100BE00037D500001305853CEF60604A05661306A3
:100BF000068081451305042E23100A00EFF0BF94F0
:100C00001305803EEF20405D6FF09F9213054B3B34
:100C1000EF60E0471305803EEF20005C1305893646
:100C200023100A00EF60A0461305803EEF20C05A53
:100C30009385493A1305042EEF60605388C069BF5D
:100C4000EFF27F8D2E86AA8537D50000130545115A
:100C5000EF60E0316FF07F8EEFF2FF8BB704002082
:100C600061712A8926848387042E638C0718B7D57F
:100C700000009385C51B1385042EEF60404F0DC9FE
:100C8000814713062002930640063307F500030749
:100C900057006304C7006395D714181B37D50000AD
:100CA000BA970C081305051C238007E6EF60202C7B
:100CB000B7D500009385051D1305042EEF60204B6A
:100CC00005CD180881479305200213064006B30698
:100CD000F500838676006385B60005076397C71025
:100CE000181B37D50000BA97930561071305851DBA
:100CF000238307ECEF60A027B7D500009385851EFE
:100D00001305042EEF60A04639C5180881479305E6
:100D1000C0021308200213064006B306F5008386BE
:100D200086006387B6006385060105076393C70CD9
:100D3000181BBA976C00E809238607F2EF700012BF
:100D4000EF50A045A30AA10637D50000EC09130512
:100D5000051FEF60C021B7D500009385452013051E
:100D6000042EEF60C04039C5180881479305C002C2
:100D70001308200213064006B306F500838696008A
:100D80006387B6006385060105076398C706181BCD
:100D9000BA976C008802238807F8EF70200CEF5098
:100DA000C03FA30DA10C37D500008C021305C52050
:100DB000EF60E01B0566B70700201306068081453B
:100DC0001305042E23960720EFF0EFF70C08130607
:100DD000001A4A85EF50C0564A855D616FF0EFF505
:100DE0000C08BE9598A185074DB58507A302D706C7
:100DF000F9BD8507A305D70C0DB78507A307D71243
:100E0000A5BF1305401FEF20203DB1BDEFF2AFF0AD
:100E100083A7418137D500001305C541CC47EF506A
:100E2000004B0545EF50C03C232205002300050080
:100E30008280EFF24FEE41112A841305001A2EC66C
:100E4000EF50A04BB24511E1D1371306001AAA8426
:100E5000EF50004F5C4023AC041889EB44C01C20C9
:100E600085071CA041016FF04FEDBA8703A78719D2
:100E70006DFF23AC9718E5B7EFF24FE840411DC86E
:100E80002E89AA848149CA852285EFF04FF68327EF
:100E900084191DE163960902DCC02285EF5080466B
:100EA0009C2037D50000CA85FD179CA01305C53DC1
:100EB000EF60E00B6FF0CFE7A28991C73E84E1B706
:100EC00023ACF918D9BF37D50000CA851305C53F33
:100ED000C5B77300203001A0EFF2EFE3EF1000136D
:100EE000512BB7070020B7D50000371500009387B6
:100EF000872209478146130600109385454713054D
:100F0000E5F3EF101044B7070020B7D50000371500
:100F10000000094781461306001093850548938712
:100F2000C72113050521EF10D041B707002003A505
:100F3000C722EF105061EF10C00E6FF00FE0EFF21C
:100F4000EFDB370400204111370900208549B70441
:100F50000020130AF03F1304042E0325C92B7D56ED
:100F60009305F100EF10C06BE31935FF83D7C42060
:100F7000E365FAFE988793861700A2972396D420FC
:100F800098A3E1BFEFF22FD6130101CCB7090020DF
:100F9000B7040020370A0020B7DA0000371B000032
:100FA00037040020B70B0020370C0020894C0D4D72
:100FB000914D0549EF50A0082389A92C83C7292DFD
:100FC00093F7F70F6381971163E6FC0EE39427FF15
:100FD000EF00C0709385CA4893074A2109478146AC
:100FE0001306001013058B14EF10B0350325842A67
:100FF000FD55EF104079E31B25FB03A50B2C7D5617
:101000000C13EF10E06163162505B7D5000093853A
:101010008549081335311305007DEF20E01B0A8553
:1010200025391306001A8A850813EF506031B70777
:10103000002003A5472C81467D560C13EF1040314C
:10104000B707002003A5C72A814601468145EF1056
:1010500020301306001A0C130A85EF50602E0A8503
:10106000EF0060751305803EEF20001703250C2B61
:10107000814601468145EF10A02D1306001A0C137E
:101080000A85EF50E02B8A85138504225D33B7076C
:10109000002003A5472BFD55EF10E06E8547631335
:1010A000F500C92E0325842A814601468145EF10AB
:1010B000202AEDBD6388A709E39EB7EF13850422BC
:1010C000EF00300FE5B5EF00807893074A2109471C
:1010D0008146130600109385CA4813058B14EF1040
:1010E00050260325842AFD55EF10E06985472A899B
:1010F000E31EF5EA03A50B2C7D560C13EF104052AE
:1011000063142503B7D500009385054A08130D3EE7
:101110001305007DEF20400C0A853D3E1306001AA2
:101120008A850813EF50C0210C131306001A0A8594
:10113000EF5000210A85EF00207F0C131385042255
:10114000253B8DB7052E9DB5EFF24FBB37440140CF
:10115000617113040480B70A002037390020370A70
:101160000020B7090020B704002085452285EF3014
:10117000602A03A58A2B7D569305F100EF10404AA3
:101180008547E314F5FEEF50C01598873A951C315A
:101190008D8B85C783C7442AFD4663E0F60283C76B
:1011A000442A93F7F70F9386170093F6F60F2382DE
:1011B000D42A9306894DB69798A3A947E317F7FA5F
:1011C0009305894D130640060808EF501078032553
:1011D0008A2A814601468145230A0106EF104017FD
:1011E00003A5092C81460C087D56EF1060161306E6
:1011F000000281451305894D2382042AEFF0AFB424
:1012000022858145EF3000210145EF10D033B1BF79
:10121000EFF26FB0EFF0CFE3EFF08FE6EFF0EFF724
:10122000EFF03F82EFF05F97B7070020B7D50000DF
:101230003715000093878721094781461306002050
:101240009385454A130545F8EF10B00FB707002006
:10125000B7D5000037150000094781461306001076
:101260009385054B9387072313050528EF10700D11
:10127000B707002003A5C721EF10F02C6FF0EFABEC
:10128000EFF2CFA7130101CCEFF00FC837E4E40071
:10129000EFF04FD01304F41B370900208544B70941
:1012A0000020370A0020B70A0020EFF0AFCEE36E2F
:1012B000A4FE0325C92AFD55EF10E04CE31795FE67
:1012C00003A5492C7D560C13EF108035631095044F
:1012D0001306001A0C130A85EF5080060A85EFF0FA
:1012E0002FD311ED03A50A2BFD55EF10C04963184C
:1012F0009500EF0030081305803EEF10F06D0325D8
:101300004A2B814601468145EF1080040325C92AF6
:10131000814601468145EF10A00341BFEFF2AF9F28
:101320000D4681450545EF00F07BB704002023A45E
:10133000A42A0D4681450545EF00D07A37040020E8
:101340002326A42A0D4681450545EF00B079B7074D
:10135000002023A8A72A0D4681450545EF00907877
:10136000B707002023AAA72A83A7842A81C7832737
:10137000C42A99E737D5000013058543EF50303F65
:101380000146854513050002EF00D075370900209E
:10139000232CA92A0146854513050040EF009074CF
:1013A000B704002023AEA42A01469305001A054580
:1013B000EF005073370400202320A42C014693052E
:1013C000001A0545EF001072B707002023A2A72CD2
:1013D0008327892B81CB83A7C42B89C78327042C20
:1013E00091C301E937D4000013054445EF5030386C
:1013F000E5BF3705002013050522EFF0FFA2B70770
:101400000020B7D50000371500009387C722054795
:1014100081461306001093858546130585EDEF1070
:101420004072EF10701F6FF04F91EFF2CF8E1145A9
:10143000EF20504A13050009EF20700F37140140C8
:10144000EF208070EF40703CEF302008A16513055D
:101450000480EF20504713054006EF20B015130518
:101460000480A165EF20F045EF300025453D0145A2
:101470006FF0AF8CEFF22F8A0145EF308020B70775
:1014800000207D572398E72C216713070743930615
:10149000801C1306802FE14513058002EF403016B3
:1014A0009306801C5146E1455145EF40501B930681
:1014B000C01D1306802F9305C01D13058002EF4049
:1014C000101A91461306802F914513058002EF40B4
:1014D00010199306801C1306C030E1451305C03077
:1014E000EF40F0179306801C1306802FE14513058B
:1014F0008002EF40F01E5146E14513058002EF40A7
:10150000D02151469305801C13058002EF40F02046
:1015100051469305801C1305802FEF401020514643
:10152000E1451305802FEF40501FB7D70000938788
:10153000475013070002930600021306001293059A
:1015400080021305A00FEF40F0043164130784619B
:101550009306E0111306E0109305600A1305C0031B
:10156000EF40F009130784619306E0111306901F02
:101570009305600A13057012EF4070081307846129
:101580009306E0111306402E9305600A13052021EF
:10159000EF40F006130784619306F01A1306E0107B
:1015A000930570131305C003EF40700513078461A2
:1015B0009306F01A1306901F93057013130570120B
:1015C000EF40F003130784619306F01A1306402ED0
:1015D0009305701313052021EF407002B7D7000068
:1015E0009387875113070002930600021306000534
:1015F0009305800C13054006EF40C079B7D7000073
:10160000938707521307000293060002130600088F
:101610009305800C13050014EF40C077B7D7000086
:101620009387C752130700029306000213060005B2
:101630009305800C1305A023EF40C07537D400003C
:101640009307445313070002930600021306000594
:101650009305000F13058025EF40C073B7D7000036
:101660009387C7531307000293060002130600096D
:101670009305901513054006EF40C071930744533E
:1016800013070002930600021306000593051018C5
:1016900013052008EF400070B7D7000093878754E8
:1016A0001307000293060002130600069305901527
:1016B00013050014EF40006EB7D70000938707555D
:1016C0001307000293060002130600069305901507
:1016D0001305A023EF40006C6FE03FE6EFE2BFE3AD
:1016E0000145EF20107AB70700207D572398E72C9B
:1016F0002167130707439306801C1306802FE145DB
:1017000013058002EF40A06F9306801C5146E1450F
:101710005145EF40C0749306C01D1306802F9305FA
:10172000C01D13058002EF40807391461306802F81
:10173000914513058002EF4080729306801C1306CA
:10174000C030E1451305C030EF4060719306801C46
:101750001306802FE14513058002EF406078514663
:10176000E14513058002EF40407B51469305801C04
:1017700013058002EF40607A51469305801C1305E3
:10178000802FEF4080795146E1451305802FEF40CF
:10179000C078B7D700009387474C13070002930621
:1017A00000021306000B930540061305A00FEF403F
:1017B000605E6FE09FD8EFE21FD6B16419712A8492
:1017C000138504C4EF20F06B138784619306000F28
:1017D00013068025930580071305800CEF402062D7
:1017E000930764063E853EC6EF501015B2471316A8
:1017F000450042061307000241829306000293054A
:10180000400B1305800CEF40E0588346540637D652
:1018100000001306C64B930540066808EF50100BF6
:101820007C081307000293060002130600059305C7
:10183000800C1305800CEF40E0550565130505FA93
:10184000EF204057EFF01FC309616FE01FCFEFE2B9
:101850009FCC0145EF20F062B70700207D57239809
:10186000E72C2167130707439306801C1306802F7C
:10187000E14513058002EF4080589306801C5146D5
:10188000E1455145EF40A05D9306C01D1306802F32
:101890009305C01D13058002EF40605C914613065E
:1018A000802F914513058002EF40605B9306801CFA
:1018B0001306C030E1451305C030EF40405A93068F
:1018C000801C1306802FE14513058002EF40406124
:1018D0005146E14513058002EF40206451469305CF
:1018E000801C13058002EF40406351469305801C25
:1018F0001305802FEF4060625146E1451305802FAC
:10190000EF40A061B7D700009387474C1307000250
:10191000930600021306000B930580021305A00F27
:10192000EF4040476FE07FC1EFE2FFBE2A84416590
:1019300019717D15EF20F054316713078761930605
:10194000000F13068025930580071305800CEF40D8
:10195000004B930764063E853EC6EF50E07DB247DC
:101960001316450042061307000241829306000247
:101970009305400B1305800CEF40C041834654068D
:1019800037D600001306C64B930540066808EF5093
:10199000E0737C081307000293060002130600059B
:1019A0009305800C1305800CEF40C03E09616FE089
:1019B000DFB8EFE2DFB30349050040411171014593
:1019C000EF20304C37DB0000B7D9000037DA0000D9
:1019D000B7DA0000A94763E727016311091811610D
:1019E0006FE07FB493041009930BF01E45C8930673
:1019F000640613060B4E930500100A85EF50006D28
:101A00000A85EF5060731316450042068A87130754
:101A10000002A68541829306000213052003EF40D1
:101A20006037834644191386C94E930500100A8512
:101A3000EF50C0690A85EF5020701316450042062A
:101A400093074A4F13070002A685418293060002BE
:101A50001305A00FEF4000349306C40C13868A4F81
:101A6000930500100A85EF5060660A85EF50C06C40
:101A700013164500A685938434024206C2044182AF
:101A80008A8713070002930600021305401FC180D6
:101A9000EF40403003248419E39A74F559191379FF
:101AA000F90F0DBFB38449039306640613060C4E69
:101AB000930500100A85EF5060610A85EF50C067FA
:101AC0001316450042069384E406C204C1808A8747
:101AD00013070002418293060002A6851305200326
:101AE000EF40402B834644191386CA4E93050010DD
:101AF0000A85EF50A05D0A85EF500064131645007B
:101B0000420693074B4F13070002418293060002DF
:101B1000A6851305A00FEF40E0279306C40C13869B
:101B20008B4F930500100A85EF50405A0A85EF50FD
:101B3000A06013164500420641828A8713070002FF
:101B400093060002A6851305401F8509EF408024F7
:101B500003248419E34539E931F451B5854937DC6B
:101B60000000130A3002B7DA000037DB0000B7DBF1
:101B70000000DDB7EFE23F9A41657D15EF20703040
:101B80003167130787619306000F130680259305BD
:101B900080071305800CEF408026B7D7000093879D
:101BA000074D13070002930600021306000D93056C
:101BB000400B1305800CEF40E01D0565130505FA89
:101BC000EF20401FEFF01F8B6FE03F97B7170240E9
:101BD0009843B706FFF841111367170098C3D8431D
:101BE00037060200758FD8C39843B706F7FEFD1677
:101BF000758F98C39843B706FCFFFD16758F98C381
:101C0000D843B70681FFFD16758FD8C39843B70632
:101C100000ECFD16758F98C33707FF0098C723A601
:101C2000070202C402C69843C166558F98C3B7160F
:101C3000024005679C42F18F3EC6A24785073EC41D
:101C4000B24781E7A247E397E7FEB71702409C43FC
:101C50001397E7006356070685473EC63247854718
:101C6000631EF704B7170240D843B706C1FFFD163D
:101C7000D8C3D843D8C3D84313670740D8C3D84381
:101C8000758FD8C3D843C166558FD8C39843B7065C
:101C90000001558F98C3984393166700E3DD06FE55
:101CA000D843B7160240719BD8C3D84313672700A7
:101CB000D8C32147DC42B18BE39EE7FE410182801D
:101CC00002C669BFB70700209387C7249843636F94
:101CD000A702D043B386C7006316D50054413E85A2
:101CE000B296D4C35041B306C500631CD700B706F3
:101CF000002083A646236306D70054431843B296B8
:101D000054C118C16303F50088C38280BA877DBFC0
:101D1000EFE2CFFE41112AC6EF102019B7060020CE
:101D200083A746233706002093864623130686237F
:101D30003245A9EF37170020930707AE93F5F70058
:101D4000130707AE81C51387F700419BB705002035
:101D50009385C52423A2050098C189659385057FD5
:101D6000AE97C19B23A2070023A00700B385E740DD
:101D70009CC21CC3B707002023A0B724B7070020CC
:101D800023AEB722B70700804CC31CC2032A06004B
:101D9000B377AA0085E39307F5FF3957636CF70023
:101DA0009307050113F7F70041C313F707FF410736
:101DB00063EBE706814489A022872E8461A058C185
:101DC0005CC009375840B70600209386062490422D
:101DD000B307E94023A0F90063F3C7009CC2B7072B
:101DE00000203367EA009387472458C09843C10412
:101DF00023200400050798C3EF10802793F7F40011
:101E0000D1CBA167938707807390073037D6000046
:101E100037D5000013068655930500111305855923
:101E2000EF50E01401A0BA87370700200329C72329
:101E30009309C723E360F9F8370700200324C72478
:101E40001307C72450406374F6000C40B5F5944264
:101E5000E38286F61440044314C33307F640930626
:101E60000002E3F1E6F63305F4009376F500A1DA1B
:101E7000A167938707807390073037D6000037D566
:101E80000000130686559305F00C13058559EF5095
:101E9000000E01A0268541016FE08FE95DC1EFE2F0
:101EA0008FE7B7070020032745FF83A787232A84EE
:101EB000B376F7009DE2A1679387078073900730A0
:101EC00037D6000037D5000013068655930540121B
:101ED00013058559EF50A00901A0832605FF9DC277
:101EE000A167938707807390073037D6000037D5F6
:101EF0000000130686559305501213058559EF50BF
:101F0000000701A093C7F7FFF98F232AF5FEEF0022
:101F1000D079B70700209387C7239443032744FF52
:101F2000130504FF369798C3EFF0DFD9B7070020F9
:101F3000938787249843050798C3EF1060136FE0D9
:101F4000CFDF82808280EFE20FDD411102C6F327EE
:101F500050303EC6B2470D478D8B6384E702A167C0
:101F6000938707807390073037D6000037D500007D
:101F70001306C65B9305600B13058559EF40307F50
:101F800001A0B707012093870700BD8B9DC3A16700
:101F9000938707807390073037D6000037D500004D
:101FA0001306C65B9305B00B13058559EF40307CD3
:101FB00001A0493FB7E700E0056723A0E7101167DC
:101FC00023A0E71023A20180EFE08FB30145410178
:101FD0006FE0AFD673110134A167938707807390C8
:101FE0000730B7F700E023A20700EF00B06D11C57E
:101FF000B7E700E0116723A0E720A16793878788F0
:10200000739007307311013473002030A1679387F8
:10201000078073900730938741809843050798C3E2
:102020008280138741801C438DE7EFE2CFCEA1670A
:10203000938707807390073037D6000037D50000AC
:102040001306C65B9305201013058559EF403072C7
:1020500001A0FD171CC391E7A16793878788739040
:102060000730828021651305058073150530828055
:10207000731005308280930785007D575CC118C5B9
:102080005CC51CC9232005008280232805008280AE
:102090005C419847DCC198C598474CC38CC71C412C
:1020A00088C985071CC182809841FD569307850029
:1020B000631ED7001C49D843D8C10CC79CC5CCC3EC
:1020C0001C4188C985071CC18280B687D4439042D1
:1020D000E37DC7FECDB7544118451C4998C654C38B
:1020E000D4436393A600D8C39843232805007D17E3
:1020F00098C388438280EFE20FC241112AC6393764
:102100003245005D393F1335140041016FE0EFC2E5
:10211000EFE26FC032893041045D2A8409EE1C4130
:10212000014591E70844EF10205123240400850461
:1021300004DC6FE08FC0631009024841EF4040208B
:102140005C4038400145BA9718445CC0E3E1E7FEC3
:102150001C405CC0E9BF4845EF40801E3C405844ED
:102160001440B307F0403E9758C46375D700184435
:10217000BA975CC489470145E31BF9FACDD8FD1431
:102180007DB7304115C2EFE20FB958451445AA8713
:10219000329758C56364D700184158C52E85CC477F
:1021A000EF40001A6FE06FB98280EFE2CFB62A8469
:1021B000EFF0DFE58344540413094402E204E184B0
:1021C00063489002FD57A302F404EFF09FE5EFF09F
:1021D000FFE38344440413090401E204E1846345FA
:1021E0009002FD572302F404EFF0BFE36FE0EFB479
:1021F0005C50E9DB4A85EF10001A19C1EF10603618
:10220000FD14E204E1846DBF1C48E1DF4A85EF1054
:10221000801819C1EF10E034FD14E204E184C1B765
:10222000EFE26FAF41111DE1A167938707807390C3
:10223000073037D6000037D5000013060660930537
:10224000001113058559EF40905201A05C5D2EC628
:102250002A84BDC73841B3B7E702BDE3EFF01FDB07
:102260003040585C1440232C0402B307E602B24508
:1022700054C03387F600918FB6975CC4FD57230294
:10228000F40418C4A302F4049DE11C4899CB13057F
:102290000401EF10401011C5B7E700E0116723A05B
:1022A000E720EFF01FD8054541016FE00FA91305A6
:1022B0000401EFF05FDC13054402EFF0DFDBD5B77C
:1022C000A167938707807390073037D6000037D512
:1022D0000000130606609305501413058559EF405E
:1022E000104901A0EFE22FA3411129C1B3B7A50204
:1022F000AA848DEF3305B502930770FB63E8A7024C
:10230000130585042EC6EFF0BFA02A8401CDB24587
:10231000AA8799C1930785042CC01CC044DC85455D
:102320002285FD3D228541016FE02FA1A1679387A2
:1023300007807390073037D6000037D500001306AA
:1023400006609305601C13058559EF40504201A0BB
:10235000EFE2EF99011132C61DE1A1679387078073
:102360007390073037D6000037D50000130606609B
:102370009305E03213058559EF40703F01A02A8490
:102380002E89B6848DE53C419DC3A1679387078064
:102390007390073037D6000037D50000130606606B
:1023A0009305F03213058559EF40703C01A0894731
:1023B0006398F402585C85476304F702A16793872A
:1023C00007807390073037D6000037D5000013061A
:1023D00006609305003313058559EF40503901A07D
:1023E000EF10E01815E5B247014C85C7A167938748
:1023F00007807390073037D6000037D500001306EA
:1024000006609305303313058559EF40503601A01F
:10241000014C094BFD59930B040137EA00E0916A26
:10242000A5A8B24789E7EFF0DFBF014555A06315C6
:102430000C002808EF10E004EFF0BFBEEF00F0261C
:10244000EFF0DFBC83474404E207E1876394370180
:102450002302040483475404E207E18763943701AD
:10246000A3020404EFF0FFBB6C002808EF10C002C9
:1024700035EDEFF0BFB9185C5C5C631EF704EFF05C
:102480005FBAB2455E85EF0030652285EFF0FFD17F
:10249000EF00103E29C9054CEFF05FB7185C5C5C9B
:1024A0006364F700E39F64F72686CA852285EFF010
:1024B0003FC65C5089C713054402EF00D06D11C5BB
:1024C000B7E700E0116723A0E720EFF09FB50545CF
:1024D00005616FE04F85EFF0DFB42285EFF0FFCCB0
:1024E000EF0010394DBF23205A2175B72285EFF038
:1024F000DFCBEF00F03715BFEFE24F8041111DE158
:10250000A167938707807390073037D6000037D5CF
:102510000000130606609305204013058559EF401F
:10252000102501A02A84B2898DE53C419DC3A16795
:10253000938707807390073037D6000037D50000A7
:10254000130606609305304013058559EF4030228D
:1025500001A089476398F602585C85476304F70237
:10256000A167938707807390073037D6000037D56F
:102570000000130606609305404013058559EF409F
:10258000101F01A036C62EC4EFF0DFAD185C5C5CF6
:102590002A8AA245B2466366F7008947814463935D
:1025A000F602834454041C5C368622851399840108
:1025B000EFF01FB613598941FD576317F9025C50BC
:1025C00089EB85445285EFF0BFAA268541016FD083
:1025D0003FF613054402EF00105C65D5E38309FE66
:1025E000854723A0F900F1BF9307F0076314F902B0
:1025F000A167938707807390073037D6000037D5DF
:102600000000130606609305D04813058559EF4076
:10261000101601A08504E204E184A302940455B7D6
:10262000EFD2FFEC011132C61DE1A167938707804D
:102630007390073037D6000037D5000013060660C8
:102640009305105513058559EF40701201A02A8497
:10265000AE898DE53C419DC3A16793870780739048
:10266000073037D6000037D5000013060660930503
:10267000505513058559EF40900F01A0EF00306FC2
:1026800015E5B247014985C7A16793870780739015
:10269000073037D6000037D50000130606609305D3
:1026A000A05513058559EF40900C01A001497D5AB2
:1026B000930A440237EB00E0916B95A8B24789E793
:1026C000EFF03F96014569A8631509002808EF005F
:1026D000505BEFF01F95EF00407DEFF03F93834795
:1026E0004404E207E187639447012302040483471B
:1026F0005404E207E18763944701A3020404EFF066
:102700005F926C002808EF00305925E52285EFF034
:102710009F9E31C9B2455685EF00103C2285EFF0EF
:10272000DFA8EF00F01419E123207B210549EFF029
:10273000FF8D045CC1D4CE852285FD14EFF07FA40B
:1027400004DC1C4899CB13050401EF00D04411C5EB
:10275000B7E700E0116723A0E720EFF09F8C054565
:1027600005616FD05FDC2285EFF03FA4EF005010D1
:1027700075BF2285EFF07FA3EF00900F2285EFF069
:102780009F974DD581B7EFD27FD701112EC61DE19E
:10279000A167938707807390073037D6000037D53D
:1027A0000000130606609305305E13058559EF405F
:1027B000007C01A03C412A849DC3A16793870780C8
:1027C0007390073037D6000037D500001306066037
:1027D0009305705E13058559EF40607901A0EF0005
:1027E00010590DE5B2479DC3A16793870780739089
:1027F000073037D6000037D5000013060660930572
:10280000C05E13058559EF40807601A081440149DF
:10281000FD59130A4402B7EA00E0116B6DA0B247FC
:102820009DE79DC0A167938707807390073037D6D7
:10283000000037D5000013060660930520631305DA
:102840008559EF40C07201A0EFF0AFFD7DA0631588
:1028500009002808EF00F042EFF0AFFCB925EFF0D7
:10286000EFFA83474404E207E187639437012302C8
:10287000040483475404E207E18763943701A30209
:102880000404EFF00FFA6C002808EF00F04041E17B
:102890002285EFF05F8635C51C4089EBEFF00FF71E
:1028A0000844EF00904EAA84EFF0AFF7B24552858E
:1028B000EF0090222285EFF05F8FEF00607B19E13F
:1028C00023A06A210549EFF06FF41C5CA9DBFD171A
:1028D0001CDC1C4081E7EF00307108C41C4899CB18
:1028E00013050401EF00302B11C5B7E700E01167B5
:1028F00023A0E720EFF0EFF28544268505616FD035
:102900003FC32285EFF07F8AEF00807665BF228586
:10291000EFF0BF89EF00C0752285EFF0CFFD5DD1EC
:10292000E9DCEFF0AFEE5C50814589C71C58BD452E
:102930009C439D8D08448144EF00B05CEFF06FEE46
:102940006DBF15E5EFD23FBDA167938707807390F8
:10295000073037D60000856537D5000013060660BE
:10296000938585AC13058559EF40606001A09DCD2E
:10297000373600209306062E814701471306062EA0
:10298000214883A846006398A80093173700B297A0
:102990008CC3C8C321A891E783A8060063930800ED
:1029A000B6870507A106E31E07FDFDF38280EFD27F
:1029B0009FB641112A842EC632C4EFF02FE583471B
:1029C00044047D572246E207E187B2456394E7005D
:1029D00023020404834754047D57E207E18763948C
:1029E000E700A302040432C62EC4EFF08FE31C5CA0
:1029F000A245324689E713054402EF007012228592
:102A0000EFF0AFFA41016FD05FB337070020130733
:102A100087251C439443B70700209387872781E6C7
:102A20007D5798C38280184358471843DDBFEFD2C3
:102A3000FFAC37090020B70700209304492583A97C
:102A400087282A849C4088404111A38807041105E7
:102A50002EC6EFF04FE87D5793074925B245631C1A
:102A6000E40295C9B7370020938787489440D8433C
:102A700098C610479440D0C694401047910654C25F
:102A80009440910614C798405CCB9843050798C3BF
:102A900041016FD0FFA998434E9440C3637B34013A
:102AA000370700200325C7258C439105EFF0CFDFC2
:102AB000C5B737070020032587258C439105EFF024
:102AC000AFDEB7070020938787279843E372E4FCC3
:102AD00080C37DBFEFD29FA237340020B70900200A
:102AE0001304C449370A0020B73A002093844926CA
:102AF0009C4089EF93870A3298438547E3F8E7FEC5
:102B0000B7E700E0116723A0E720CDB7EFF00FD0C3
:102B10005C4403A9C70013054900EFF0CFDB13079E
:102B20000A261C43FD171CC39C40FD179CC0EFF0F8
:102B30004FCF03250903EFF06FB64A85EFF00FB6CC
:102B400075B7EFD2DF9A13192600AA8A4A852E8A12
:102B5000368BBA8BBE89EFF0AF9B1DC1AA841305DB
:102B60004005EFF0EF9A2A8409C904D98147C1468C
:102B7000631A0A00230A050225A02685EFF00FB28A
:102B80007D5565A23307FA00030707003306F400FA
:102B9000230AE60201C78507E396D7FEA3010404D2
:102BA000B94763F47703A167938707807390073071
:102BB00037D6000037D50000130606639305703939
:102BC00013058559EF40A03A01A0130A440052852D
:102BD000232674032322740523240404EFF0EFCA90
:102BE00013058401EFF06FCA3D471305C9FF330792
:102BF0007741269500C818CC40D023060404A306CC
:102C0000040423070404A307040423080404A308FA
:102C100004045A86D6854199EFD08FFE08C063849C
:102C2000090023A08900EFF06FBEB707002093874B
:102C300007269843B7040020B7390020050798C33A
:102C4000138744251843938444251389093263105C
:102C5000070E80C0984385476316F70693890932AB
:102C6000930AC9124E85D109EFF0EFC0E39C3AFFF9
:102C700037350020930AC5441305C544EFF0AFBFB4
:102C8000373500209309054613050546EFF0AFBE22
:102C90003735002013054547EFF0EFBD37350020ED
:102CA0001305C549EFF02FBD3735002013058548C2
:102CB000EFF06FBCB707002023AC5725B707002003
:102CC00023AE3725B70700209387C726984305070B
:102CD00098C337070020130707275C54144363F396
:102CE000F6001CC35147B387E702CA97D84314477D
:102CF00018C454C4144723A246012324470198430F
:102D00005CC8050798C3EFF0CFB1B707002083A7D1
:102D10004728054599CB9C40D8575C546377F7000A
:102D2000B7E700E0116723A0E7206FD0CFFFB70718
:102D3000002083A74728D9F79C40D8575C54E3E389
:102D4000E7F880C041B7EFD20FFD2A84B704002016
:102D5000EFF0CFAB9384442511E080401309440089
:102D60004A85EFF04FB71C5489C713058401EFF073
:102D70008FB6B70700209387C7269843050798C3E7
:102D80009C40639A870637350020CA851305C549DC
:102D9000EFF00FB0B7070020938747269843050749
:102DA00098C3EFF00FA89C40638887000858EFF0A5
:102DB000EF8E2285EFF08F8EB707002083A747287C
:102DC000B1CB9C4063988704B707002083A7872670
:102DD0008DCFA167938707807390073037D60000A7
:102DE00037D50000130606639305C04D13058559BA
:102DF000EF40E01701A0B70700209387072698430C
:102E00007D1798C3EFF07FC069BFB7E700E0116797
:102E100023A0E7206FD06FF2EFD2EFEFB7070020CB
:102E2000B7D5000037350000938747270147814613
:102E30001306000893850566130545ADEFF07FD0B6
:102E40000544631E8502EF00304A631A8502A167BC
:102E50009387078073900730B70700207D5723AC16
:102E6000E726B707002023A2A728B707002023A43E
:102E70000728EFF04F8D83A781806FD00FECFD57AF
:102E8000E31BF5FEA167938707807390073037D661
:102E90000000856537D50000130606639385058419
:102EA00013058559EF40A00C01A0B70700209387B8
:102EB00087269843050798C38280B707002003A59B
:102EC00087288280B707002083A787266399071881
:102ED000EFD26FE4B707002093878728804305046B
:102EE00080C321ECB70700209387872598431843B8
:102EF00005C7A167938707807390073037D6000016
:102F0000856537D5000013060663938575AC1305F8
:102F10008559EF40C00501A0370700201307C725DA
:102F20009443104390C3B707002014C39387C72767
:102F30009843050798C3EFF05FAD3706002093076D
:102F400086279C4337370020B705002013068627C5
:102F5000130707329385452501456375F4029C41AB
:102F6000D146DC57B387D7023E971843854763F3B2
:102F7000E7000545B707002083A7C72891C305458B
:102F80006FD0AFDB370E0020B70E0020514F9307F4
:102F90008E259443944281E6FD571CC2C9B79C43D9
:102FA000DC47DC47D4436374D40014C24DBF83A80C
:102FB000870003A8C700D44B1383470023A408014C
:102FC0002322180183A846006394680023A2060107
:102FD00003A8060023AA07007D1823A00601945722
:102FE00095CA03A8C70183A8070283AF460023241C
:102FF000180183A8070223A208011388870163949C
:103000000F0123A2160103A8060023A407027D18BE
:1030100023A0060193860E2703A8C70283A80600F3
:1030200063F4080123A00601B306E803BA9683A857
:10303000460083AF880023A4170123A6F70183AFBE
:10304000880023A26F0023A46800D4CB9C4285078C
:103050009CC29C41DC57E36CF8F205450DBFB707F5
:1030600000209387072898430145050798C382806D
:10307000EFD2CFC837040020130484261C4041112E
:1030800085E7A167938707807390073037D60000E4
:10309000856537D50000130606639385358B1305C8
:1030A0008559EF30D06C01A0EFE05FF61C40FD17B2
:1030B0001CC01C4089CB01452AC6EFE09FF6324573
:1030C00041016FD0EFC6B707002083A70726E5D7D9
:1030D000B736002037350020814793864647370FA3
:1030E000002013050532D14837030020370E002099
:1030F000854E59A8DC46DC47CC4F9053985790C575
:1031000003A807022322B8000328470093858701FC
:103110006313B80050C3104323A407027D1610C3E5
:103120008C47D047D84B1388470090C54CC24C43BE
:103130006393050150C3104323AA07007D1610C3F3
:1031400013070F27D0570C4363F3C50010C3330791
:1031500016032A974C4383AF85008CC723A6F7013B
:1031600083AF850023A20F0123A405010C43D8CB14
:1031700085050CC313074325184358576366E600BB
:103180001307CE282320D70198422DF799C3EFF0DB
:10319000DF87B70700201387072804431384072815
:1031A00099CC370900208549EFF0DFD109C5930795
:1031B000C92823A03701FD14E5F823200400B70730
:1031C000002083A7C728E38807EEB7E700E0116770
:1031D00023A0E7200545CDB519E5B7E700E0116765
:1031E00023A0E7208280EFD20FB3B707002083A788
:1031F000872641119DC3A16793870780739007308D
:1032000037D6000037D500001306066393059054A7
:1032100013058559EF30B05501A02AC6EFF0FFC85D
:1032200032458145EFF0BF80EFF09FE411E5B7E74D
:1032300000E0116723A0E72041016FD00FB0B7076E
:10324000002003A78726B70700209387C72801C758
:10325000054798C3828023A00700B7070020138783
:103260000727184313860727B737002093870732AD
:103270005148B3060703B385D700884115C5C84137
:10328000A106BE964841C8C16314D5005441D4C1BB
:10329000D146B306D702B697DC43D447B707002020
:1032A00023AAD72418C2828015E7EFD2CFA6A16740
:1032B000938707807390073037D60000856537D530
:1032C000000013060663938525C013058559EF306A
:1032D000104A01A07D1771BFEFD2EFA305E5A167EA
:1032E000938707807390073037D60000856537D500
:1032F0000000130606639385C5C113058559EF3099
:10330000104701A0B70700202E8483A54725E105BB
:10331000EFE09FD985452285EFF06FF16FD0EFA1E7
:10332000EFD26F9F2A8705E5A16793870780739087
:10333000073037D60000856537D5000013060663D1
:10334000938525C513058559EF30704201A0B70755
:1033500000209387472554432E858C4303A886007D
:10336000D4CD8C4323A0050303A807008C46610835
:1033700023A2050103A807009C43610823A40601BA
:1033800098D71C4385071CC311C27D55B285EFF049
:103390000FEA6FD08F9A5C45DC4795E7EFD2AF9785
:1033A000A167938707807390073037D60000856543
:1033B00037D5000013060663938525C81305855984
:1033C000EF30F03A01A0D04F94539857938587017E
:1033D00014C6D0C250436313B60054C3144323A48D
:1033E0000702FD1614C33707002003278726D4578A
:1033F00025EF8C47D047D84B90C5D04748434CC2A7
:10340000938547006313B50050C3104323AA0700F8
:103410007D1610C337070020130707271043637377
:10342000D60014C351473386E6023737002013070E
:10343000073232975043084690C7C8C708464CC168
:103440000CC6D8CB1C43014585071CC3B707002019
:1034500083A74725DC5763F8D700B7070020054747
:1034600023A6E72805458280373700201307474702
:1034700050430846D0CF88D308464CC10CC698D7D5
:10348000D1B7B707002083A7C7271CC1B707002003
:1034900083A787285CC18280EFD2EF87411105E5C1
:1034A000A167938707807390073037D60000856542
:1034B00037D50000130606639385D5CF13058559CC
:1034C000EF30F02A01A085E5A1679387078073900C
:1034D000073037D60000856537D500001306066330
:1034E0009385E5CF13058559EF30702801A02EC6CE
:1034F0002AC4EFE0BFB137070020B7070020130749
:10350000472583A687281C432245B24583C7170554
:1035100099CB1C43A38807040544EFE09FB02285A4
:1035200041016FD08F819C417D570144E387E7FEC5
:10353000370600200326C6270328050058416307E5
:10354000C80063E5E60023A00500F9B73386E6402E
:10355000E37BF6FE958FBA979CC1EFF09FF2014492
:103560006DBFB7070020054723A6E7288280B7076D
:10357000002083A74728054581CBB707002003A576
:10358000872613351500060582804DC5EFC21FF74B
:1035900037090020930749259443585513094925B5
:1035A000D4566373D7081C4D63C8070083270900EE
:1035B000D457BD47958F1CCD51463307C702B73747
:1035C00000209386073293840732369754496398D4
:1035D000E604930945002A844E85EFE0DFAF832798
:1035E00009003707002013070727DC5714435CD472
:1035F00063F3F6001CC35147B387E702A697D8438D
:10360000144718C454C4144723A236012324370195
:1036100098435CC8050798C305456FC07FF18327B1
:103620000900DC575CD5CDBF9C436841DC5733357E
:10363000F500E5B70145828011E50145828001452D
:103640006FC0BFEFEFC23FEDB707002083A747254C
:103650002A846385A702A167938707807390073048
:1036600037D60000856537D50000130606639385BD
:10367000F50413058559EF30900F01A0BC4785E78D
:10368000A167938707807390073037D60000856560
:1036900037D5000013060663938505051305855984
:1036A000EF30F00C01A054557841FD173CC5E3887C
:1036B000E6F8D1F7930445002685EFE0DFA17C40D2
:1036C0003D471D8F18CC37070020130707271443E9
:1036D0005CD463F3F6001CC351473387E702B73766
:1036E0000020938707320545BA97D843144718C47A
:1036F00054C41447C4C204C798435CC8050798C3A0
:1037000081B775C1EFC23FE134452A8485E6A167E0
:10371000938707807390073037D60000856537D5CB
:103720000000130606639385F50913058559EF30EC
:10373000100401A07C4163F3B700AE8758546302C4
:10374000F70A0546639FC608B706002083A64625EC
:1037500063958602A167938707807390073037D6F9
:103760000000856537D50000130606639385A50B19
:1037700013058559EF30A07F01A0144C5CD463C6BB
:103780000600BD46B387F6401CCC51463307C7023E
:10379000B737002093860732938407323697544810
:1037A0006391E604130944004A85EFE0DF9237078E
:1037B0000020130707275C54144363F3F6001CC36F
:1037C0005147B387E702A697D843144718C454C497
:1037D000144723A226012324270198435CC8050728
:1037E00098C36FC09FD58280B707002013874725F5
:1037F00018439387472509C79443B8460507B8C6B9
:1038000088438280EFC23FD137040020EFE01F8061
:103810001304C4291C40B1E7373500201309054BB8
:103820001305054BEFE03F85373500209304454CE9
:103830001305454CEFE03F84B707002023A8272954
:103840000146B7070020C145154523AA9728EFE098
:103850007FA908C019C5B7D500009385C568EFF0EA
:103860004F8EEFE00FFC6FC05FCDEFC2DFCA4CC1DF
:1038700008C9AA876362B602184D158E0545637B99
:10388000E60093854700B707002003A54729EFE02E
:10389000BF8101456FC07FCA6375D6000545E3FB54
:1038A000D5FE93854700B707002003A50729C5B7B4
:1038B000EFC27FC62A84AE8432890C4CA6864A8623
:1038C000A6952285EFF07FFA19E16FC01FC71C4C47
:1038D0002285BE941C508297CDB7EFC2DFC3B707D5
:1038E000002083A707294111AA84DC472EC6C047C0
:1038F00013054400EFE02FFE83474402324613F7DE
:10390000470019CBA6852285EFF09FFA1C5022852F
:10391000829741016FC07FC2F99B2302F402FDB779
:10392000EFC27FBF370400209306042998421C434E
:1039300091EBB707002093874729904398C390C223
:103940006FC0BFBF5C47FD558843EFF01FF9E9BF6B
:10395000EFC2FFB935694111B70A0020B70900204D
:10396000370B0020B70B00201309896683A70A29AB
:10397000984329CBDC47814C03AC0700EFF0EFD232
:10398000EFF0AFD383A789292A8493848929130A66
:10399000CB29636CF50288C063800C0483A74B2994
:1039A00090431336160003250A00B3058C40EFF050
:1039B0000F80EFF0EFEB19EDB7E700E0116723A000
:1039C000E72009A8854C014C55BFEFF07FF580C07A
:1039D000EFF00FEA214C0DA00146E36685FDEFF004
:1039E0002FE9A2856285EFF05FEFEDB79247B24510
:1039F0008297824763DD070003250A0001468A8516
:103A0000EFE01FC225D582472245E3C107FE2244CD
:103A10005C489DE3EFF06FCA9C40AA8C6374F5008C
:103A2000EFF01FF0824723A09401FD17E366FCFC32
:103A30008A07CA979C43828713054400EFE0AFE9E9
:103A4000D1BF834744020C4C924693E717002302F0
:103A5000F4026686B6952285EFF03FE151DD83479B
:103A6000440213F7470001CF1C4C9245668622851D
:103A7000BE95EFF0FFE31C5022858297B5BFF99BFE
:103A80002302F402CDBF83474402F99B2302F402D0
:103A9000A5B783474402924593E717002302F40237
:103AA0000CCC9DE1A167938707807390073037D6D0
:103AB000000037D5000013064669930590351305BD
:103AC0008559EF30C04A01A0E6866686E6952285D4
:103AD000EFF0BFD915B78347440213F7270055F716
:103AE0002285EFE0AFBB09BFEFC2FFA2EFF09FD18D
:103AF000B707002083A7C7299DE3A16793870780A5
:103B00007390073037D6000037D50000130646699A
:103B10009305901113058559EF30604501A0B70753
:103B20000020B7D50000374500009387072A3947A2
:103B30008146130600109385456C13050595EFF03B
:103B40004F8045DD6FC07F9FEFC25F9B5D718545F4
:103B50001145EF00A07C854537050200EF00E07DB0
:103B600085451165EF00807B3714014093070020E5
:103B70008D4961492C0813050480FC844ECE4AD03F
:103B8000A5299307004091442C0813050480FC8468
:103B900026D09D214C1013050480231291024ED48F
:103BA0004AD69929A1474C10130504802312F1022B
:103BB00026D671649121B7440040130404203709CC
:103BC0000C008C0013850440A2C0CAC482C2231614
:103BD0000104EF00607822D8374401400C18130527
:103BE00004804ADC02DA231E0102EF00E07693072C
:103BF000501305497C84280085475C854AC6C52149
:103C0000930760130808FC80230921014ACAC129CF
:103C100013050480054693055052EF001001054638
:103C20001385044093055052EF00300013050480C3
:103C30008545EF00207E854513850440EF00807D9B
:103C400061616FC0FF8EEFC27F8BB7440040AE89C9
:103C50003289014493840440634524014A856FC03E
:103C60003F8D930500042685EF0090007DD9B38732
:103C700089008385070026850504C205C181EF0000
:103C8000207ED9BF011122CE374401409305505206
:103C90001305048002C6EF00407E0DCD93055052FF
:103CA00013050480EF00300113050480EF00C07B92
:103CB000B7070020C88503A5872B814670009305B0
:103CC000B100EFE07F83B24791C7B7E700E011672B
:103CD00023A0E7207244056173002030011122CE39
:103CE00037440040930550521305044002C6712723
:103CF0001DC99305505213050440752F1305044048
:103D0000A527B7070020C88503A5C72B81467000EB
:103D10009305B100EFE04FFEB24791C7B7E700E06F
:103D2000116723A0E7207244056173002030B707B4
:103D300000202394A72C4157B7E700E02387E740F2
:103D40002386E740B7F700E023A0070023A207007F
:103D5000814694C70147D8C7370700208325071E2F
:103D60001307803E814633D6E5027D4790CBD4CB06
:103D700098C38280B7F600E0984ADC4A37F800E042
:103D8000B707002083D7872CBA8598463385A702CA
:103D9000DC468147032688008326C800E30CC7FE63
:103DA000BA976377E600918F3287E3E5A7FE8280BA
:103DB000AE97D5BFEFC22FF6AA8401446364940086
:103DC0006FC0AFF71305803EEFF0DFFA0504FDB7D3
:103DD00001A001A001A001A001A001A001A001A0DB
:103DE00001A001A001A001A001A001A001A001A0CB
:103DF00001A001A001A001A001A001A001A001A0BB
:103E000001A001A001A001A001A001A001A001A0AA
:103E100001A001A001A001A001A001A001A001A09A
:103E200001A001A001A001A001A001A001A001A08A
:103E300001A001A001A001A001A001A001A001A07A
:103E400001A001A001A001A001A001A001A001A06A
:103E500001A001A001A001A001A001A001A001A05A
:103E600001A001A001A001A001A001A001A001A04A
:103E700001A001A001A001A001A001A001A001A03A
:103E800001A001A001A001A001A001A001A097D163
:103E9000FF1F938121B517C100201301A11617D56B
:103EA00000001305E5CF97C5FF1F9385A515138661
:103EB000018263FAC5008322050023A05500110585
:103EC0009105E3EAC5FE17C5FF1F1305A53397F556
:103ED000FF1F9385E5636377B50023200500110577
:103EE000E36DB5FEFD42739002BCFD4273904280CB
:103EF000B78200009382028073A0023097C2FFFF56
:103F00009382C21393E2320073905230EFD01FCCF1
:103F100097D2FFFF9382A251739012347300203026
:103F200014455C4158450328C502D58FD98F1849DF
:103F3000370600A0D98F5849D98F184DD98F584DC1
:103F4000D98F1851D98F5851D98F1855D98F1859E1
:103F5000B3E70701D98F18410A073A961CC2A14757
:103F60006396F6001C4293E707041CC254598C4E1A
:103F70009C42CD8FCC429205CD8F8C46A205CD8F31
:103F8000CC46C205CD8F8C4AD44AD205CD8FE206ED
:103F9000D58F5CC291676319F802145D904E9C4204
:103FA000D18FD0421206D18F90462206D18F904AEF
:103FB000D44A5206E206D18FD58FB70600A0938669
:103FC000461036971CC38280B70700A0938747101E
:103FD0003E97B7070010FD17F5B7B70700A00A0511
:103FE0003E951C4189C593E717001CC182803707A5
:103FF00010007917F98FD5BF9C4513F7070113F807
:10400000F70001C7D8413368E8008E2113F7F50F98
:1040100039C318418146854E3D4F930F800293026C
:104020008004214E3396DE00B3F8C50063111603F9
:104030009398260033131F011343F3FF3377E300F4
:10404000B318180133E7E800639FF70550C98506E8
:10405000E39AC6FD18C11307F00F6375B704544106
:104060002146854E3D4F930F800293028004414EBE
:10407000B398CE0033F715016392E80213172600B8
:1040800001173313EF001343F3FFB376D300331755
:10409000E800D98E639DF701232A15010506E3196F
:1040A000C6FD54C18280E39457FA10C94DB7E39717
:1040B00057FE23281501DDB708456D8D3335A00067
:1040C00082800CC982804CC9828019C20CC982804E
:1040D0004CC98280B707002023A6A72C8280B7078F
:1040E00000209387C72C9443182181E63C21920736
:1040F00021A894430546639FC6023C2110319207D4
:104100006314D60093E707F8B7E600E093F7F70FDC
:10411000BA962380F6408546935757003397E600BA
:104120005441A5C2938707048A07B7E600E0B69713
:1041300098C382808C4389466391D50214313C2117
:104140006365D6008A06B6975DB79386E6038A064E
:10415000B69793F7F70F920775B790438D46631C98
:10416000D60014313C216364D6008606E9BF9386ED
:10417000C6078606F1BF94439147E39EF6F81C31CB
:10418000BDB7938707064DB7371702405C4391468A
:10419000B18B6385D700A1466382D706B7177A0033
:1041A000938707201CC1371602405C423707002066
:1041B000130707009183BD8BBA9794231C41B3D793
:1041C000D7005CC15442A1829D8ABA969422B3D68C
:1041D000D70014C55442AD829D8A36971823B3D7B1
:1041E000E7005CC558423983937637001387C18056
:1041F00036971823B3D7E7021CC982805C43584323
:10420000C166C983758FB7F6FF1F83A6C670BD8BC5
:1042100089071396160163480600C5460146639256
:10422000D702C94739A88946638FD702BD46638E36
:10423000D702C146638ED702C54601466393D700B5
:10424000C1471DEF3747024003270780418B05C751
:1042500037177A0013070720B307F7021CC121D6CE
:104260001C41858381B701466DBF0546B547D1BF67
:104270000146BD47F9B737173D0013070790E9BF5F
:10428000B7150240D8559316F700D85563DF0604DA
:1042900011833D8B9306170037177A001307072009
:1042A0003357D70218C1D455A182BD8A8DE29546F5
:1042B0003307D702058318C13717024058571441F6
:1042C0003D8B050733D7E60218C1184171B7854504
:1042D0006394B600E546E9BFBD456396B600D14696
:1042E0003387E602C9BF8906E5BF3D8B93061700F9
:1042F00037177A00130707203357D702F1B799C54C
:10430000371702405C4B5D8D48CB8280B717024067
:10431000D84B1345F5FF798DC8CB828099C53717E7
:1043200002401C4F5D8D08CF8280B7170240984F26
:104330001345F5FF798D88CF828099C537170240E4
:104340005C4F5D8D48CF8280B7170240D84F134530
:10435000F5FF798DC8CF8280EFC2EF9B1629F577E4
:10436000FD17F58FF621DA257971D58F1EA956250F
:10437000FD779387379FF58FD6212A842EC6D58F58
:104380009625D58FB625D58F5EA55E29C207C18338
:1043900093F7F7CFD98F5EA96808EFF0FFDEB74734
:1043A000014093870780B245631AF404A25756244C
:1043B0006547B387E702C206C186984163D2060407
:1043C000060752244206B3D7E70213074006418688
:1043D000B3D6E702B3F7E7029206635506028E07EB
:1043E00093872703B3D7E70213F77700B367D700A4
:1043F000C207C1831EA445616FC02F94925745BF69
:104400000A07C1B7920793872703B3D7E702BD8B8B
:10441000D58FF9BF91C55E250967D98F5EA58280CA
:104420005A25F977FD17F98FD5BF13F7F50F854793
:104430001583B395B7006319F7009307C500984338
:1044400001CED98D8CC38280894693074501E3183C
:10445000D7FE93070501E5B793C5F5FFF98DDDB7E5
:1044600093F5F51F4EA182804A211375F51F8280B6
:104470000A216D8D3335A000828013F7F50F854634
:104480001583B397B6006311D7025A25F98F1A2105
:1044900001454207418381CB0545A181B315B50094
:1044A0006D8F3335E000828089466314D7001A2966
:1044B000F1BF5A29E1BFA1818547B397B70093C7E0
:1044C000F7FFC207C1831EA18280EFC2CF844111D2
:1044D0008545114502C202C402C6EFF03FE4E17710
:1044E000371401407C82C1473EC64C008D471305FE
:1044F00004803EC4EFF05FB0A16513050480EFF0C7
:104500005FBC41016FC06F83B7070460F917BE231A
:104510004111C207C1837C87288741018280EFB2A5
:104520009FFFB7070460239FA7FE1545EFF09F8408
:10453000EFF09FFD6FC06F80B737002003D70750A3
:10454000B7070460239FE7FE8280373600201306FA
:10455000864F3E263707046013588500231FF7FE59
:104560008507C20723100701C183231FF7FE1375B8
:10457000F50F0AA35E2613D6850093F5F50F231FCA
:10458000F7FE8507C20712A3C183231FF7FE0EA300
:104590008280373500208D65B70704601305854F8D
:1045A0009385056012213621239FB7FE930580066F
:1045B0008EA32E257D16420613881500239FB7FE75
:1045C00042082390070013580801239F07FF138810
:1045D00025004208239007004182135808018D05E9
:1045E000239F07FFC2051358860023900701C1814E
:1045F000239FB7FE1376F60F92A35225FD16C2062F
:1046000093051600239FC7FEC20523900700C181B2
:10461000239FB7FE93052600C20523900700C182A1
:10462000C1810D06239FB7FE420693D586008EA357
:104630004182239FC7FE93F6F60F96A38280EFB2C6
:104640009FEDB73700209387874F0DE5370720038D
:10465000238307001307071E98C33737002A130761
:1046600007C098C70D67130707B0DAA7EFF07FF20E
:104670006FB0BFEC0547F8A33707E0011307073217
:10468000E1BFEFB25FE9B73700209387874F9A23E6
:10469000A2238145AA8401453304E402EFF0FFEA36
:1046A000EFF09FE9814737070460639487006FB09C
:1046B000DFE806A38507D5BFEFB2FFE21971854594
:1046C00013050010EFF0BFC3854513058006EFF01A
:1046D000FFC4B71401400D449167414A138504C0DB
:1046E0008A857C8022C252C4F179EFF0FF90E14AC2
:1046F00093873973138504408A857C8056C422C20F
:10470000EFF09F8F37250140930700F88A85130546
:1047100005807C8056C422C2EFF01F8E13850440B2
:1047200005698A852310210156C422C2EFF0DF8C6F
:1047300013850440130909808A852310210122C2B0
:10474000056952C4EFF05F8B93050980138504401F
:10475000EFF07F97BD473ECA9167BED87C00BEDCB4
:10476000C8003C10054BBEDE22D8CAD45AC602C8C7
:1047700002CC02D202D402D602DA02DC02DE82C00D
:1047800082C282C482C6D2C882CA82CE82CC82D081
:1047900082D282D682DAEFF0AFF885450145EFF09C
:1047A000DF8313052003EFF0EFE0B734002001456D
:1047B0001389844FEFF0BFD62312A9003704046099
:1047C000930A300D231F54FFEFF01FD42312A900CA
:1047D000EFF09FD32312A900EFF01FD3220523127D
:1047E000A900EFF07FD2835749009384844F5D8DF9
:1047F0002312A900231F54FFEFF01FD12312A90099
:10480000EFF09FD02312A900EFF01FD02205231252
:10481000A900EFF07FCF835749005D8D42054181AC
:10482000A5672312A900938717346314F5006F104E
:10483000402E9147231FF4FEEFF01FCDCAA0EFF0EA
:10484000BFCCCAA0EFF05FCC2205CAA0EFF0DFCB4F
:10485000DE205D8D42054181A167CAA0938727555F
:104860006318F5009D6793879778DEA06F10602A24
:104870009D6B93879B786314F5006F1080299307D5
:10488000400D231FF4FEEFF03FC8CAA0EFF0DFC7D2
:10489000CAA0EFF07FC72205CAA0EFF0FFC6DE2056
:1048A00015695D8D42054181CAA0930709316314E2
:1048B000F5006F100026231F54FFEFF0FFC4CAA0BD
:1048C000EFF09FC4CAA0EFF03FC42205CAA0EFF0EA
:1048D000BFC3DE20938B6B795D8D42054181CAA0F9
:1048E000631475016F10E022FD77231FF4FE130A95
:1048F000E4FF130750052311EA0013871700231F55
:10490000E4FE1307A00A2311EA0013872700231FE0
:10491000E4FE130720052311EA0013873700231F45
:10492000E4FE21472311EA009107231FF4FE23111F
:104930006A0193870950231FF4FEEFF0FFBC2205A4
:10494000CAA093891950231F34FFEFF0FFBBDE206C
:10495000930909515D8DCAA01545EFF0AFC5DE2062
:10496000638437016F104021370404607D7893071A
:10497000E4FF231F04FF930E50052391D701130773
:104980001800231FE4FE1307A00ABAA39306280009
:10499000231FD4FE93062005B6A313063800231F59
:1049A000C4FE214E2391C70113064800231FC4FEF5
:1049B0000546B2A36D77231FE4FEB546B6A3930563
:1049C0001700231FB4FEB6A393052700231FB4FED0
:1049D0006D75B6A39305056013084003231FB4FE4D
:1049E0002391070193051760231FB4FE239107014C
:1049F00093052760231FB4FE23910701930505103B
:104A0000231FB4FEB6A393051510231FB4FEB6A34F
:104A100093052710231FB4FEB6A393050570231F2B
:104A2000B4FE2391070193051570231FB4FE239153
:104A3000070193062770231FD4FE239107019306D5
:104A40000720231FD4FE2391070093061720231F5E
:104A5000D4FE2391070093062720231FD4FE7173F1
:104A60002391070093050380231FB4FE93064002A1
:104A7000B6A393051380231FB4FEB6A3930523802A
:104A8000231FB4FE7175B6A3930505F0231FB4FE72
:104A9000B2A393050730231FB4FEBD45AEA3930810
:104AA0001730231F14FFAEA393082730231F14FFD2
:104AB000AEA393050590231FB4FE23910701930530
:104AC0001590231FB4FE2391070193052590231F02
:104AD000B4FE2391070193050750231FB4FE2391D1
:104AE000C70193051750231FB4FE2391C701130775
:104AF0002750231FE4FE130705202391C7018D458E
:104B0000231FE4FEAEA3130705A0231FE4FEB6A3F4
:104B1000130715A0231FE4FEB6A3130725A0231F28
:104B2000E4FEB6A3930F03C0231FF4FF23910700F5
:104B3000930F13C0231FF4FF13078007BAA3930F2B
:104B400023C0231FF4FF23910700930605D0231FE2
:104B5000D4FE23910700930615D0231FD4FEBAA3D9
:104B6000130725D0231FE4FE23910700130705E058
:104B7000231FE4FE23910700130715E0231FE4FE23
:104B800013074006BAA3757793060710231FD4FEB8
:104B9000239107009306171093083003231FD4FEB8
:104BA0002391170193062710231FD4FE239107009A
:104BB00093063710231FD4FE239107019306471055
:104BC000231FD4FE2391070093065710231FD4FE02
:104BD000130DA0032391A70193066710231FD4FE92
:104BE0002391070093067710231FD4FE930CA00493
:104BF0002391970193068710231FD4FE239107006A
:104C000093069710231FD4FE130CC0052391870130
:104C10009306A710231FD4FE239107009306B71015
:104C2000231FD4FE930B1008239177019306C7101E
:104C3000231FD4FE239107009306D710231FD4FE11
:104C4000130B600A239167019306E710231FD4FE1C
:104C5000239107009306F710231FD4FE930A500EEA
:104C60002391570193060711231FD4FEB2A3930685
:104C70001711231FD4FE4D4A239147019306271194
:104C8000231FD4FEB2A39306371193094005231FB7
:104C9000D4FE2391370193064711231FD4FE9306B8
:104CA0005711B2A313092008231FD4FE2391270113
:104CB00093066711231FD4FEB2A393067711231F17
:104CC000D4FE9300A00C2391170093068711231F95
:104CD000D4FE8946B6A313039711231F64FE2391C4
:104CE00007001303A711231F64FEB6A31303B71114
:104CF000231F64FEB2A31303C711231F64FEB6A3D0
:104D00001303D711231F64FE239107011303E71137
:104D1000231F64FEB6A31303F711231F64FE93033E
:104D200070062391770013030712231F64FEB6A3B6
:104D300013031712231F64FE9302400823915700A8
:104D400013032712231F64FEB6A313033712930F16
:104D5000400A231F64FE2391F70113034712231F08
:104D600064FE130F700BB6A313035712231F64FEC8
:104D70002391E70113036712231F64FEB6A31303F5
:104D80007712231F64FE930EF00C2391D7011303B7
:104D90008712231F64FEB6A313039712231F64FE1A
:104DA000130EE00D2391C7011303A712231F64FE06
:104DB000B6A31303B712231F64FE1303200F23911E
:104DC0006700930DC712231FB4FFB6A3930DD7122C
:104DD000231FB4FF930DE00F2391B701930DE7124A
:104DE000231FB4FFAEA3930DF712231FB4FFC14DD1
:104DF0002391B701930D0713231FB4FFAEA3930DA7
:104E00001713231FB4FF23911701930D2713231F9B
:104E1000B4FFAEA3930D3713231FB4FF930DD00639
:104E20002391B701930D0720231FB4FF239107009F
:104E3000930D1720231FB4FF930D272023911701F3
:104E4000231FB4FF23910700930D3720231FB4FFC6
:104E500023910701930D4720231FB4FF23910700DF
:104E6000930D5720231FB4FF2391A701930D6720B3
:104E7000231FB4FF23910700930D7720231FB4FF56
:104E800023919701930D8720231FB4FF23910700DF
:104E9000930D9720231FB4FF23918701930DA72023
:104EA000231FB4FF23910700930DB720231FB4FFE6
:104EB00023917701930DC720231FB4FF239107008F
:104EC000930DD720231FB4FF23916701930DE72093
:104ED000231FB4FF23910700930DF720231FB4FF76
:104EE00023915701930D0721231FB4FFB2A3930D04
:104EF0001721231FB4FF23914701930D2721231F5F
:104F0000B4FFB2A3930D3721231FB4FF23913701C0
:104F1000930D4721231FB4FFB2A3930D5721231FE5
:104F2000B4FF23912701930D6721231FB4FFB2A380
:104F3000930D7721231FB4FF23911700930D872131
:104F4000231FB4FFB6A3930D9721231FB4FF239112
:104F50000700930DA721231FB4FFB6A3930DB7211C
:104F6000231FB4FFB2A3930DC721231FB4FFB6A321
:104F7000930DD721231FB4FF23910701930DE72140
:104F8000231FB4FFB6A3930DF721231FB4FF239172
:104F90007700930D0722231FB4FFB6A3930D1722AA
:104FA000231FB4FF23915700930D2722231FB4FF23
:104FB000930D3722B6A3231FB4FF2391F701930D5E
:104FC0004722231FB4FFB6A3930D5722231FB4FF1C
:104FD0002391E701930D6722231FB4FFB6A3930D1E
:104FE0007722231FB4FF2391D701930D8722231F1C
:104FF000B4FFB6A3930D9722231FB4FF2391C701DB
:10500000930DA722231FB4FFB6A3930DB722231F2E
:10501000B4FF23916700930DC722231FB4FFB6A3EB
:10502000930DD722231FB4FF930DE00F2391B701F7
:10503000930DE722231FB4FFAEA3930DF722231F86
:10504000B4FFC14D2391B701930D0723231FB4FF74
:10505000AEA3930D1723231FB4FF23911701930DC4
:105060002723231FB4FFAEA3930D3723231FB4FFC1
:10507000930DD0062391B701930D0730231FB4FF82
:1050800023910700930D1730231FB4FF23911701BD
:10509000930D2730231FB4FF23910700930D373062
:1050A000231FB4FF23910701930D4730231FB4FF43
:1050B00023910700930D5730231FB4FF2391A701BD
:1050C000930D6730231FB4FF23910700930D7730B2
:1050D000231FB4FF23919701930D8730231FB4FF43
:1050E00023910700930D9730231FB4FF239187016D
:1050F000930DA730231FB4FF23910700930DB73002
:10510000231FB4FF23917701930DC730231FB4FFF2
:1051100023910700930DD730231FB4FF239167011C
:10512000930DE730231FB4FF23910700930DF73051
:10513000231FB4FF930D073123915701231FB4FFA1
:10514000B2A3930D1731231FB4FF23914701930D91
:105150002731231FB4FFB2A3930D3731231FB4FFB0
:1051600023913701930D4731231FB4FFB2A3930D51
:105170005731231FB4FF23912701930D6731231F5C
:10518000B4FFB2A3930D7731231FB4FF239117000F
:10519000930D8731231FB4FFB6A3930D9731231FBF
:1051A000B4FF23910700930DA731231FB4FFB6A3CB
:1051B000930DB731231FB4FFB2A3930DC731231F43
:1051C000B4FFB6A3930DD731231FB4FF239107017A
:1051D000930DE731231FB4FFB6A3930DF731231FBF
:1051E000B4FF23917700930D0732231FB4FFB6A3BA
:1051F000930D1732231FB4FF23915700930D2732CD
:10520000231FB4FFB6A3930D3732231FB4FF23919E
:10521000F701930D4732231FB4FFB6A3930D573206
:10522000231FB4FF2391E701930D6732231FB4FFBF
:10523000B6A3930D7732231FB4FF2391D701930DAB
:105240008732231FB4FFB6A3930D9732231FB4FFF9
:105250002391C701930DA732231FB4FFB6A3930D6B
:10526000B732231FB4FF23916700930DC732231F6A
:10527000B4FFB6A3930DD732231FB4FF930DE00FF5
:105280002391B701930DE732231FB4FFAEA3930D13
:10529000F732231FB4FFC14D2391B701930D07339C
:1052A000231FB4FF930D1733AEA3231FB4FF239125
:1052B0001701930D2733231FB4FFAEA3930D37338C
:1052C000231FB4FF930DD0062391B701930D074020
:1052D000231FB4FF23910700930D1740231FB4FF32
:1052E00023911701930D2740231FB4FF239107003B
:1052F000930D3740231FB4FF23910701930D4740BF
:10530000231FB4FF23910700930D5740231FB4FFC1
:105310002391A701930D6740231FB4FF239107003A
:10532000930D7740231FB4FF23919701930D87407E
:10533000231FB4FF23910700930D9740231FB4FF51
:1053400023918701930DA740231FB4FF23910700EA
:10535000930DB740231FB4FF23917701930DC740EE
:10536000231FB4FF23910700930DD740231FB4FFE1
:1053700023916701930DE740231FB4FF239107009A
:10538000930DF740231FB4FF23915701930D07415D
:10539000231FB4FFB2A3930D1741231FB4FF239122
:1053A0004701930D2741231FB4FFB2A3930D37414B
:1053B000231FB4FF23913701930D4741231FB4FFEF
:1053C000B2A3930D5741231FB4FF23912701930DDF
:1053D0006741231FB4FFB2A3930D7741231FB4FF8E
:1053E00023911700930D8741231FB4FFB6A3930D9C
:1053F0009741231FB4FF23910700930DA741231F5B
:10540000B4FFB6A3930DB741231FB4FFB2A3930D0E
:10541000C741231FB4FFB6A3930DD741231FB4FF89
:10542000930DE74123910701231FB4FFB6A3930D0A
:10543000F741231FB4FF23917700930D0742231FE9
:10544000B4FFB6A3930D1742231FB4FF2391570057
:10545000930D2742231FB4FFB6A3930D3742231F9A
:10546000B4FF2391F701930D4742231FB4FFB6A366
:10547000930D5742231FB4FF2391E701930D674219
:10548000231FB4FFB6A3930D7742231FB4FF2391CC
:10549000D701930D8742231FB4FFB6A3930D974204
:1054A000231FB4FF2391C701930DA742231FB4FF0D
:1054B000B6A3930DB742231FB4FF23916700930D4A
:1054C000C742231FB4FFB6A3930DD742231FB4FFD7
:1054D000930DE00F2391B701930DE742231FB4FF13
:1054E000AEA3930DF742231FB4FFC14D2391B70123
:1054F000930D0743231FB4FFAEA3930D1743231F40
:10550000B4FF23911701930D2743231FB4FFAEA3CC
:10551000930D3743231FB4FF930DD0062391B7019A
:10552000930D0750231FB4FF23910700930D1750CD
:10553000231FB4FF23911701930D2750231FB4FF9E
:1055400023910700930D3750231FB4FF23910701C8
:10555000930D4750231FB4FF23910700930D57501D
:10556000231FB4FF2391A701930D6750231FB4FF9E
:1055700023910700930D7750231FB4FF23919701C8
:10558000930D8750231FB4FF23910700930D97506D
:10559000231FB4FF23918701930DA750231FB4FF4E
:1055A000930DB75023910700231FB4FF2391770178
:1055B000930DC750231FB4FF23910700930DD750BD
:1055C000231FB4FF23916701930DE750231FB4FFFE
:1055D00023910700930DF750231FB4FF2391570128
:1055E000930D0751231FB4FFB2A3930D1751231F2F
:1055F000B4FF23914701930D2751231FB4FFB2A39A
:10560000930D3751231FB4FF23913701930D475159
:10561000231FB4FFB2A3930D5751231FB4FF23914F
:105620002701930D6751231FB4FFB2A3930D775148
:10563000231FB4FF23911700930D8751231FB4FF3D
:10564000B6A3930D9751231FB4FF23910700930D29
:10565000A751231FB4FFB6A3930DB751231FB4FF67
:10566000B2A3930DC751231FB4FFB6A3930DD75117
:10567000231FB4FF23910701930DE751231FB4FFAC
:10568000B6A3930DF751231FB4FF23917700930D19
:105690000752231FB4FFB6A3930D1752231FB4FF65
:1056A00023915700930D2752231FB4FFB6A3930DE8
:1056B0003752231FB4FF2391F701930D4752231F45
:1056C000B4FFB6A3930D5752231FB4FF2391E701F4
:1056D000930D6752231FB4FFB6A3930D7752231F78
:1056E000B4FF2391D701930D8752231FB4FFB6A3B4
:1056F000930D9752231FB4FF2391C701930DA75217
:10570000231FB4FFB6A3930DB752231FB4FF930D0D
:10571000C75223916700231FB4FFB6A3930DD7523E
:10572000231FB4FF930DE00F2391B701930DE752B0
:10573000231FB4FFAEA3930DF752231FB4FFC14D37
:105740002391B701930D0753231FB4FFAEA3930D0D
:105750001753231FB4FF23911701930D2753231FC2
:10576000B4FFAEA3930D3753231FB4FF930DD006A0
:105770002391B701930D0760231FB4FF2391070006
:10578000930D1760231FB4FF23911701930D27601A
:10579000231FB4FF23910700930D3760231FB4FF2D
:1057A00023910701930D4760231FB4FF2391070046
:1057B000930D5760231FB4FF2391A701130D67605A
:1057C000231FA4FF23910700130D7760231FA4FF5D
:1057D00023919701930C8760231F94FF2391070067
:1057E000930C9760231F94FF23918701130CA760EC
:1057F000231F84FF23910700130CB760231F84FF2E
:1058000023917701930BC760231F74FF2391070037
:10581000930BD760231F74FF23916701130BE7607D
:10582000231F64FF23910700130BF760231F64FFFE
:1058300023915701930A0761231F54FFB2A3930AD0
:105840001761231F54FF23914701130A2761231F68
:1058500044FFB2A3130A3761231F44FF239137018A
:1058600093094761231F34FFB2A393095761231F94
:1058700034FF2391270113096761231F24FFB2A37B
:1058800013097761231F24FF239117009300876179
:10589000231F14FE93009761B6A3231F14FE2391C8
:1058A00007009300A761231F14FEB6A39300B761FE
:1058B000231F14FEB2A39300C761231F14FEB6A3D7
:1058C0009300D761231F14FE239107011308E7619A
:1058D000231F04FFB6A31308F761231F04FF2391BE
:1058E000770013080762231F04FFB6A3130817628B
:1058F000231F04FF2391570013082762231F04FF6F
:10590000B6A313083762231F04FF2391F70113087E
:105910004762231F04FFB6A313085762231F04FF27
:105920002391E70113086762231F04FFB6A313083E
:105930007762231F04FF2391D70113088762231F77
:1059400004FFB6A313089762231F04FF2391C70126
:105950001308A762231F04FFB6A31308B762231F0F
:1059600004FF239167001308C762231F04FFB6A337
:105970001308D762231F04FF930DE00F2391B70193
:105980001308E762231F04FFAEA31308F762231F67
:1059900004FFC14D2391B70113080763231F04FFC0
:1059A000AEA313081763231F04FF239117011308E5
:1059B0002763231F04FFAEA313083763231F04FFCD
:1059C000930DD0062391B7017D78231F04FF930E1A
:1059D00050052391D701930F1800231FF4FF130FD5
:1059E000A00A2391E701930F2800231FF4FF130F50
:1059F00020052391E701130F3800231FE4FF214EF8
:105A00002391C7011108ED78231F04FF239107009C
:105A100013880810231F04FF1308C00C23910701EB
:105A200013881810231F04FF2391070013880860B0
:105A3000231F04FF15482391070113880870231FB3
:105A400004FF130800072391070193881870231F90
:105A500014FF71732391070113080380231F04FFB0
:105A6000B2A313081380231F04FFAEA313082380DF
:105A7000231F04FFAEA313053580231FA4FEAEA38E
:105A8000930503C0231FB4FEB6A3930513C0231FC1
:105A9000B4FE23910700130623C0231FC4FE2391E5
:105AA000070013060790231FC4FE1306000DB2A3C0
:105AB00013061790231FC4FEB6A393062790231F37
:105AC000D4FE93060005B6A313063790231FC4FE29
:105AD000B6A313074790231FE4FE0D69B6A313076F
